:400000000080002011000000E5050000E505000080B500AF00F0F0FA80B500AF2D4B12221A6001F0ADFA2C4B180001F0D9FA012001F0B6FA302000F0F1FF284B284A1A6037
:40004000284B8022D2051A60274B274A126802210A431A60254B264A1A60264B00221A60254B254A126808218A431A60FA23DB00180001F0C5F8214B180001F03DF9204BCF
:40008000204A1A60204B214A1A60214B1D4A1A601D4B204A1A60204B882292011A601A4B1E4A1A601E4B802212061A601D4B8022D2021A601C4B42221A601C4B40221A608D
:4000C0001B4B41221A60074B8022D2051A60C046BD4680BD30001040001BB70004010B40060000800C020B4078002E407C002E402D3E000064F02E406CF02E40DC05000009
:4001000008030140007FBB000000014042FF00800003014040FF00800403014041FF008008010B4000010B4038010140300101400401014080B586B000AF72B6684B002243
:400140001A60684B01221A701723FB1800221A7025E01723FB181A7813005B009B185B00614A9B183B613B691A78597809020A43997809040A43DB781B06134318003B6902
:400180001A795B791B0213439BB2190000F0B4F91723FB181A781723FB1801321A701723FB181B78022BD4D91723FB1800221A7036E01723FB181A7813009B009B185B0015
:4001C0004A4A9B18FB60FB681A78597809020A43997809040A43DB781B061343BB60FB681A79597909020A43997909040A43DB791B0613437B60BA1CFB68197A5B7A1B02FF
:400200000B431380BB1C1A887968BB68180000F083F91723FB181A781723FB1801321A701723FB181B78002BC3D0314A314B1100180000F081F9304BA02212011A802F4B67
:4002400001221A702E4B2F4A1A602F4B2F4A1A602F4B992212041A602E4B802212041A602D4B2E4A1A602E4B802292051A602D4B802252051A602C4B802292011A602B4B6B
:4002800006221A602A4B06221A602A4A294B1B78DBB23C218B43DBB214210B43DBB21370254A254B1B78DBB216210B43DBB21370224B08221A60224B224A1A60224B60224B
:4002C0001A60224BB12212031A60214B20221A60FFF7A2FE00F072F9C046BD4606B080BD6CF02E401C700F40D4180000E818000014190000F418000000600F4002600F4076
:4003000000000240003000EE000102400000990200500F4008500F4010500F400400990014500F4018500F401C500F402000104000800F4001700F4000700F4000000440C6
:4003400008000440000CD80000010440080104401801044010B5064C2378002B07D1054B002B02D0044800E000BF0123237010BD8801002000000000A8180000084B10B56C
:40038000002B03D00749084800E000BF07480368002B00D110BD064B002BFBD09847F9E7000000008C010020A8180000C80000200000000080B500AF024B01221A70C0463E
:4003C000BD4680BDA401002080B500AF62B600F0C1FF642000F06AFF202001F073F8064B180001F053F800F059FC044B180000F06DFCC046BD4680BDAC180000B503000067
:4004000080B500AFFFF7E0FF0B4B01221A700A4B1B78DBB2002B04D0074B00221A7000F03BFA064B1B78DBB2002BF0D000F058FA00F006F8EBE7C046A4010020D40100204B
:4004400080B596B000AF0823FB18180050231A00002101F00CFA264B1B685A1C244B1A60234B1B681A003B001900100000F03EFB02000823FB181100180001F000FA0823ED
:40048000FB18180001F008FA03001A000823FB189A18184B1000190002231A0001F0DEF9002000F079FB02000823FB181100180001F0E5F90823FB18180001F0EDF9030092
:4004C0001A000823FB189A180A4B1000190002231A0001F0C3F90823FB18180000F0D6FF202000F0EFFFC046BD4616B080BDC046A8010020D018000080B582B000AF78609E
:4005000039603A687B680021180001F0B0F9C046BD4602B080BDC04680B584B000AFF860B9607A607A68B968FB68180001F096F9C046BD4604B080BD80B586B000AF78607F
:40054000396000233B6100237B612FE07B699B007A68D3181B68BB600F23FB18BA681A70BB68FF229343BB6018E03B695B003A68D3181B781A00BB68D31819003B695B00AE
:400580003A68D3185B780B703B6901333B610F23FB181A780F23FB18013A1A700F23FB181B78002BE1D17B6901337B617B69072BCCD9C046BD4606B080BDC04680B500AFC1
:4005C000054B03221A60054B03221A60044B00221A60C046BD4680BD3000304030003140000E3F4080B500AF01F00CF903001B680C2B00D1FEE7FEE780B586B000AF224B65
:400600007B61224B3B61204B7B6135E03B691B68FB603B695B68BB603B699B683B6000237B600CE0FB681A68BB681A60BB680433BB60FB680433FB607B6804337B607A6886
:400640003B689A42EED13B69DB683B6000237B6008E0BB6800221A60BB680433BB607B6804337B607A683B689A42F2D13B6910333B617B69013B7B617B69002BC6D101F071
:40068000C7F8FFF7BDFEFEE701000000401C000080B582B000AF154B144A126801218A431A6000237B600FE07B68032B04D8104B7A689200D35800E00E4B0F4A7968890001
:4006C0008B507B6801337B607B682F2BECD9FFF731FD0A4B00221A60044B044A126801210A431A60C046BD4602B080BD0000104000000000E505000000000020C0000020E4
:4007000080B500AF024B01221A70C046BD4680BDD401002090B583B000AF142000F0ECFDFF2000F0FDFB002000F02EFB0A2000F0E3FD012000F028FB052000F0DDFD0020EF
:4007400000F0EEFB002000F01FFBFC1D00F02CFB03002370FB1D1B781800BD4603B090BD80B582B000AF0200FB1D1A70142000F0C3FD002000F008FBFB1D1B78002B03D18F
:40078000322000F0B9FD02E00A2000F0B5FD012000F0FAFAC046BD4602B080BD80B584B000AF0200FB1D1A70FF2000F0B9FB0F23FB1800221A7019E0FB1D1A780F23FB183E
:4007C0001B781A411300DAB20E23FB1801210A401A700E23FB181B781800FFF7C1FF0F23FB181A780F23FB1801321A700F23FB181B78072BE0D9C046BD4604B080BDC046F1
:4008000090B583B000AFFB1D00221A700EE0FB1D1B781F4A9B001F49D3180422180001F01DF8FB1D1A78FB1D01321A70FB1D1B78072BECD9BB1D00221A70002000F0A4FA46
:40084000FF2000F06DFBF0235B00180000F054FD012000F099FA052000F04EFD002000F05FFB002000F090FA372000F045FDBC1D00F09AFA03002370C82000F03DFDBB1DCC
:400880001B78DB43DBB21800BD4603B090BDC046B4010020CC00002080B500AFFFF7B0FF03001A000C4B1A700B4B1B78002B04D10A4B01221A7000230AE0CC20FFF76EFF4A
:4008C0004420FFF76BFF012000F03AFB024B1B781800BD4680BDC046D5010020D401002090B58BB000AF3B1D180020231A00002100F0BDFF784B1B78DBB2002B01D10023F9
:40090000E6E0754B00221A70744B1B78002B01D10023DDE0FFF774FF03001A006F4B1A706E4B1B78002B01D10023D1E02523FB186A4A12781A702723FB1800221A701BE048
:400940002723FB181B782522BA1811782722BA18127811410A00D2B201210A40D1B23A1D9B00D31802330A1C1A702723FB181A782723FB1801321A702723FB181B78002B8B
:40098000DED0CC20FFF70AFFBE20FFF707FF2623FB1800221A7047E02423FC18FFF7BAFE030023702723FB1800221A7030E02723FB181B783A1D9B00D31802331B78002B1D
:4009C0001FD02723FB181A782723FB1819783B1D8900CB5A19B22423FB1818782723FB181B7818410300012018402623FB181B78984003001BB20B431BB299B23B1D9200C4
:400A0000D1522723FB181A782723FB1801321A702723FB181B78002BC9D02623FB181A782623FB1801321A702623FB181B780B2BB2D92723FB1800221A7041E02723FB1898
:400A40001B783A1D9B00D31802331B78002B19D02723FB181A783B1D9200D35A204A934217D92723FB181A782723FB1819783B1D8900CB5A1B498C46634499B23B1D920000
:400A8000D15206E02723FB181A783B1D92001549D1522723FB181A782723FB181B78124891003A1D9B004018D3180422190000F0D5FE2723FB181A782723FB1801321A70C9
:400AC0002723FB181B78072BB8D92523FB181B781800BD460BB090BDD4010020D5010020FF07000000F0FFFFB401002080B588B000AF786039601723FB180A221A703B684B
:400B0000FB613B68BB617B683B611723FB181B781900786800F08AFD03007B60FB695A1CFA613A69093211001722BA181278786842438A1A17498A5C1A707B68002BE2D19A
:400B40003B69002B04DAFB695A1CFA612D221A70FB695A1EFA6100221A7011E00F23FB18FA6912781A70FB695A1EFA61BA6912781A70BB695A1CBA610F22BA1812781A70F0
:400B8000BA69FB699A42E9D33B681800BD4608B080BDC046941B000080B58CB000AF0200FB1D1A701423FB1818000D231A00002100F05DFE1423FB18BB62FB1D1B78344A42
:400BC0009B00D31802331B78002B01D1314B5AE0FB1D1A782E4B9200D25A2623FB181A802623FB181B88DB0BDAB22523FB181A702523FB181B78002B06D02623FB1800225A
:400C00009B5E5B42FB6204E02623FB1800229B5EFB62FB6ADAB22423FB180F210A401A70FB6A1B11FB622523FB181B78002B0FD0FB6A5B420C22BA1811001800FFF756FF5E
:400C400002001423FB181100180000F018FE0DE00C23FA18FB6A11001800FFF747FF02001423FB181100180000F009FE2423FB181A78094B9200D2581423FB181100180026
:400C800000F0FDFDBB6A1800BD460CB080BDC046B4010020A81B0000D000002080B500AF074B180000F05CF9064B180000F008F900F0C0F8044B00221A70C046BD4680BDAD
:400CC00001070000EE020000D401002080B582B000AF786000F04EF87B68180000F00AF8032000F015F800F03BF8C046BD4602B080BDC04680B582B000AF7860034B7A6897
:400D00009A64C046BD4602B080BDC0460000002090B585B000AF0200FB1D1A701623FB600B23FC1800F065FC030023700A4B0A4A12680A491140FA1D1078FA689040020073
:400D40000A431A600B23FB181B78180000F055FCC046BD4605B090BD00E400E0FFFF3FFF80B500AF024B04221A60C046BD4680BD00E100E080B500AF024B04221A60C046C5
:400D8000BD4680BD80E100E080B582B000AF0200FB1D1A70034AFB1D1B781370C046BD4602B080BD72000F4080B500AF024B1B78DBB21800BD4680BD60000F4090B583B0F4
:400DC00000AF124B180000F061F8104B180000F077F8FC1D00F00DFC030023700C4A0C4B1B78DBB210210B43DBB21370FB1D1B78180000F002FC00F073F800F081F800201B
:400E000000F02AF8C046BD4603B090BDED02000091000F4080B500AF0549054B1B78DBB2802252421343DBB20B70C046BD4680BD71000F4080B500AF064B1B78002B04D1C4
:400E4000FFF7BCFF034B01221A70FFF7E3FFC046BD4680BDAC01002080B582B000AF0200FB1D1A70034AFB1D1B781370C046BD4602B080BD81000F4080B500AF024B1B781A
:400E8000DBB21800BD4680BD61000F4080B582B000AF0200BB1D1A80034ABB1D1B881380C046BD4602B080BD40100F4080B500AF024B1B889BB21800BD4680BD80100F40C9
:400EC00080B582B000AF0200BB1D1A80034ABB1D1B881380C046BD4602B080BD00100F4080B500AF054A054B1B78DBB210210B43DBB21370C046BD4680BDC04671000F4078
:400F000080B500AF01E0FFF7D1FFFFF7B5FF03001A0008231340F6D1C046BD4680BDC04680B582B000AF0200FB1D1A70034AFB1D1B781370C046BD4602B080BD73000F40DF
:400F400080B582B000AF0200FB1D1A70034AFB1D1B781370C046BD4602B080BD70000F4080B582B000AF786000F04EF87B68180000F00AF8032000F015F800F03BF8C0462B
:400F8000BD4602B080BDC04680B582B000AF7860034B7A685A64C046BD4602B080BDC0460000002090B585B000AF0200FB1D1A700E23FB600B23FC1800F01BFB0300237008
:400FC0000A4B0A4A12680A491140FA1D1078FA68904002000A431A600B23FB181B78180000F00BFBC046BD4605B090BD00E400E0FF3FFFFF80B500AF024B02221A60C046CE
:40100000BD4680BD00E100E080B500AF024B02221A60C046BD4680BD80E100E090B585B000AF78600C23FC1800F0E3FA030023707B68022B00D8AFE07B68302B00D9ABE099
:401040005C4B1B78DBB21A007B689A420AD35A4A0F23FB1812781A70584A0E23FB1812781A703FE0564B1B78DBB21A007B689A420AD3544A0F23FB1812781A70524A0E23A2
:40108000FB1812781A702DE0504B1B78DBB21A007B689A420AD34E4A0F23FB1812781A704C4A0E23FB1812781A701BE04A4B1B78DBB21A007B689A420AD3484A0F23FB186F
:4010C00012781A70464A0E23FB1812781A7009E0444A0F23FB1812781A70434A0E23FB1812781A707B68DA1E0B23FB183F498A5C1A700B23FB181B782F2B0DD97B682A2BDF
:401100000AD93B4B19221A60052000F069FA0D23FB1819221A7007E0354B1B68DAB20D23FB183F210A401A700B23FA180D23FB1812781B789A4208D22D4B7A68033A2B49C3
:401140008A5C1A60052000F04BFA2A4B7A6826498C4662441278D2B21A60274B0F22BA1812781A60254B0E22BA1812781A60052000F0C2F80B23FA180D23FB1812781B7891
:401180009A420CD91A4B7A68033A18498A5C1A60052000F025FA02E0002000F07BF80C23FB181B78180000F028FAC046BD4605B090BDC04640F3FF0F41F3FF0F42F3FF0FBA
:4011C00043F3FF0F44F3FF0F45F3FF0F46F3FF0F47F3FF0F48F3FF0F49F3FF0F4AF3FF0F4BF3FF0F4CF3FF0F4DF3FF0FEC1B00002CFF0B4028FF0B401CFF0B4020FF0B400D
:4012000080B584B000AF78600023FB60154B154A126801210A431A60134B144A1A60144B134A1268802109020A431A607B68002B12D01023FB600CE0012000F05DF800F07F
:4012400019F8031E02D00023FB6005E07B68013B7B607B68002BEFD1FB681800BD4604B080BDC04660F02E4078002E400220000010002E4080B582B000AF054B1B6801227A
:4012800013407B607B681800BD4602B080BDC0460C002E4080B582B000AF0200FB1D1A7001BEC046BD4602B080BDC04680B582B000AF786009E00D4B1B68180000F090F9D9
:4012C0007B680B4A944663447B607A6880231B029A42F0D8074B1B687A685343180000F07FF9C046BD4602B080BDC0461C0100200080FFFF1401002080B582B000AF020041
:40130000BB1D1A80BB1D1B88044A12785343180000F066F9C046BD4602B080BD1801002080B500AF00F036F8C046BD4680BDC04680B500AF064B064A1268802109060A4370
:401340001A6000F019F800F01DF8C046BD4680BD0000244080B500AF064B1B78002B04D1FFF7DEFF034B01221A70FFF7E1FFC046BD4680BDAE01002080B500AFC046BD46D5
:4013800080BDC04680B500AF00F066F8C046BD4680BDC04680B500AF1B4B1C4A1A601C4B00221A601B4B1C4A1A601C4B1C4A1A601C4B07221A601C4B00221A601B4B01221C
:4013C0001A601B4B164A1A601A4B00221A601A4B04221A60194B00221A60194B00221A60184B00221A60184B00221A60174B00221A60174B00221A60154B1B689AB2154BA4
:401400001A80C046BD4680BD000024400B000002400024404800244001000A000003244007000080040324401003244044002440000224400402244050002440880E24400A
:40144000C80E2440480F2440080F2440C80F2440880F2440B001002080B500AF074B074A126807490A40902109040A431A60054B054A12881A60C046BD4680BD0001024099
:40148000FFFF0FFF880F2440B001002080B584B000AF78600023FB6009E07A68FB68D3181B78180000F0ACF8FB680133FB607A68FB68D3181B78002BEFD1C046BD4604B031
:4014C00080BDC04680B582B000AF78607B68180000F096F80D2000F093F80A2000F090F8C046BD4602B080BD80B500AF0F4B0F4A126801218A431A600C4B0C4A126802213C
:401500008A431A600A4B0A4A126830218A4310210A431A60064B064A126807218A4301210A431A60C046BD4680BDC04600F02E4000FF2E4080B500AF0F4B0F4A12680221E7
:401540008A431A600D4B0D4A126807218A4302210A431A60094B094A126830218A4320210A431A60044B044A126801210A431A60C046BD4680BDC04600F02E4000FF2E40BE
:4015800080B500AFFFF7B0FF044B044A1268802109060A431A60C046BD4680BD00F02E4080B584B000AF78600C4B1B6801221340FB607B68002B02D0012B03D005E0FFF71B
:4015C00093FF06E0FFF7B6FF03E00020FFF762FEC046FB681800BD4604B080BD00F02E400230800803D00138FDD1C046C046C0467047EFF3108072B6704780F3108870472C
:4016000080B582B000AF7860C046064B1B681F221340082BF9D0044B7A681A60C046BD4602B080BD080224404002244003460B437FD4002243088B4274D303098B425FD325
:40164000030A8B4244D3030B8B4228D3030C8B420DD3FF22090212BA030C8B4202D31212090265D0030B8B4219D300E0090AC30B8B4201D3CB03C01A5241830B8B4201D347
:401680008B03C01A5241430B8B4201D34B03C01A5241030B8B4201D30B03C01A5241C30A8B4201D3CB02C01A5241830A8B4201D38B02C01A5241430A8B4201D34B02C01A76
:4016C0005241030A8B4201D30B02C01A5241CDD2C3098B4201D3CB01C01A524183098B4201D38B01C01A524143098B4201D34B01C01A524103098B4201D30B01C01A5241F8
:40170000C3088B4201D3CB00C01A524183088B4201D38B00C01A524143088B4201D34B00C01A5241411A00D201465241104670475DE0CA0F00D04942031000D340425340BD
:4017400000229C4603098B422DD3030A8B4212D3FC22890112BA030A8B420CD3890192118B4208D3890192118B4204D389013AD0921100E08909C3098B4201D3CB01C01A3E
:40178000524183098B4201D38B01C01A524143098B4201D34B01C01A524103098B4201D30B01C01A5241C3088B4201D3CB00C01A524183088B4201D38B00C01A5241D9D231
:4017C00043088B4201D34B00C01A5241411A00D20146634652415B10104601D34042002B00D54942704763465B1000D3404201B5002000F005F802BD0029F8D016E77047AC
:401800007047C046014B18687047C046840100200E4B70B500251E000D4CE41AA410A54204D0AB00F35898470135F8E700F0F6F9084B00251E00084CE41AA410A54204D016
:40184000AB00F35898470135F8E770BD281C0000281C0000281C0000301C0000002310B59A4203D0CC5CC4540133F9E710BD03008218934202D019700133FAE770470200E6
:4018800010B51378002B01D00132FAE7CC5CD4540133002CFAD110BD0023C25C0133002AFBD1581E704700000000000054656D70657261747572652073656E736F72204D33
:4018C0006178696D20445331384232303A0D0A000900000000300F40800000310F40000300400F400004000080300F40141B00008000000003000F4020300F403F310F40A8
:401900004C320F4039330F4005400F4011410F4002600F4072017301810D0C012E023201360239023E044041410549FF4AFF4BFF4F015018520153015610580459045A0421
:401940005B045C135D335F016040624064406540668068806A806C806E800202055006400C020E2110021608174A182019801A011C401D521E2021012510264B27482D8046
:401980002F803510360837423C023D203E4040404180450247404A014D054F805580560857C0581A5A805D055E80608A6220636068026A407401764077027E0282018C108C
:4019C000C0D1C2B0C4F1CA90CCF0CEB0D099D218D6DFD80FDE10E6400108021903630601073509200A050B170D310E010F0612111337161917371A191B371C011D181E1818
:401A00001F202120221F231124012618273129112A012B262E062F37300931383211330334033540360537043AAA3B2A3F40580459045B045C115F01800882608404862024
:401A40008A028E02920296029A029C029E20A001A2E0A410A6E0A802B080B220B440B61FB902BAEABF01D804D904DB04DC01DF010004010202080302055207200A010BA88E
:401A80000E6510441220144815031622180419021A051B581D541E401F5623402544263827602C042E202F5A34083506362037403D093FA04540460268026D40800281402C
:401AC00082408F40910296809740A880AB10B012B220B340C0FFC2FFC4FECAF0CCF0CEF0E2105B1080048F10D480E6800980330267026C047208818083038E089008C240F3
:401B0000CC40D680DA80DC20E220E480E620100A110100000000CE0E0000000000009F01020411000000400D0E00200800000001400C00000000DF010400100008001000E6
:401B4000FE0000040101300CC0020E0100000000000001404501000000EC020217FFFFFF00830301180090000100000004040404333300054000400040408000800080009E
:401B8000800080000000000000000000000000000000000039383736353433323130313233343536373839002D0000002E3030002E3036002E3133002E3139002E3235002D
:401BC0002E3331002E3338002E3434002E3530002E3536002E3633002E3639002E3735002E3831002E3838002E393400030405060708090A0B0C0E0F101112131415161756
:401C000018191B1C1D1E1F2021222325262728292A2B2E2F3031323334354300F8B5C046F8BC08BC9E4670477D03000091060000F8B5C046F8BC08BC9E467047550300007A
:401C4000501C0000C8000020C0000000500000000000000000F00000AC1B0000B01B0000B41B0000B81B0000BC1B0000C01B0000C41B0000C81B0000CC1B0000D01B000096
:401C8000D41B0000D81B0000DC1B0000E01B0000E41B0000E81B0000006CDC0280BB0000300000000000C05D0100000000000000000000000000000000000000000000007B
:401CC0000000000000000000000000001A1C0000000000000000000000000000000000000000000000000000000000000000000000000000000000000000000000000000AE
:401D0000000000000000000000000000240100200000000000000000000000000000000000000000000000000000000000000000000000000000000000000000000000005E
:401D40000000000000000000000000000000000000000000000000000000000000000000000000000000000000000000000000000000000000000000000000000000000063
:401D80000000000000000000000000000000000000000000000000000000000000000000000000000000000000000000000000000000000000000000000000000000000023
:401DC00000000000000000000000000000000000000000000000000000000000000000000000000000000000000000000000000000000000000000000000000000000000E3
:401E000000000000000000000000000000000000000000000000000000000000000000000000000000000000000000000000000000000000000000000000000000000000A2
:020000040003F7
:0200000490303A
:02000000738407
:0200000490402A
:4000000000000000000000000000000000000000000000000000000000000000000000000000000000000000000000000000000000000000000000000000000000000000C0
:400040000000000000000000000000000000000000000000000000000000000000000000000000000000000000000000000000000000000000000000000000000000000080
:0200000490501A
:0C00000000021A1711AA00011A20852E18
:0200000490600A
:0100000001FE
:00000001FF