:400000000010002011000000C5060000C506000080B500AF00F05AFB80B584B000AF021CFB1D1A70204A3B1C0B3312781A701F4A3B1C0A3312781A700423013BFB6018E00E
:400040001B4B1868391C0B31FA68131C5B009B18C3185B780B70164B1868391C0A31FA68131C5B009B18C3189B780B70FB68013BFB60FB68002B0ADB0D4B1968FA68131CF1
:400080005B009B185B5CFA1D12789A42D8D9094B3A1C0B3212781A60074B3A1C0A3212781A60BD4604B080BDCCF1FF0FCDF1FF0FCC0000201CFF0B4020FF0B4080B500AF4F
:4000C0001D4B1D4A12688021C9020A431A601820FFF7A2FF194B19221A60052001F048F8174B184A1278D2B21A60052001F012F9114B114A1168144A0A401A60134B144ACB
:400100001A60144B10221A60134B21221A60134B20221A60124B802212061A60114B124A1A60124B124A1A60124B134A1A60134B134A1A60BD4680BD00010B402CFF0B40A4
:4001400028FF0B40E5F1FF0FFFFFFBFF04010B400600008034020240380202403C02024008010B40000002403300008040000240BF5D00800400024087130080440002409A
:40018000BF1200C080B582B000AF72B65A4B01221A70FB1D00221A7023E0FB1D1A78131C5B009B185B00554A9B183B603B681A78597809020A43997809040A43DB781B06EB
:4001C00013431A1C3B6819795B791B020B439BB2101C191C00F0F8FAFB1D1A78FB1D01321A70FB1D1B78012BD7D9454A454B101C191C00F0F9FA444BE02212011A80434B3A
:4002000001221A70424B434A1A60434B434A1A60434B444A1A60444BEE2212021A60434B47221A60424B434A1A60434B07221A60424B92221A60424B38221A60414B922293
:4002400052021A60404BD82212011A603F4B404A1A60404BA02212031A603F4B3F4A1A603F4B03221A603F4B394A1A603E4BA82292031A603D4B0B221A603D4B344A1A60E6
:400280003C4BA82212051A603B4BB022D2041A603A4B8C2212011A60394B992212041A60384B0D221A60384B0E221A60374B374A1278D2B202210A43D2B21A70344B344A40
:4002C0001278D2B23C218A43D2B214210A43D2B21A702E4B2D4A1278D2B216210A43D2B21A702C4B84221A70FFF7E8FE00F0BCFABD4602B080BDC0461C700F4034170000DB
:40030000401700006817000000600F4002600F400000014022030003040001402202000008000140002022000C000140000004400800044092011800000104400801044010
:4003400000020440080204400803044000500F400400990004500F4008500F40000030100C500F4010500F4014500F401C500F4020500F4024500F4028500F402C500F40F8
:4003800030500F402000004000800F4000700F4001700F405B300F4010B5064C2378002B07D1054B002B02D0044800E000BF0123237010BD28010020000000000017000015
:4003C00008B5084B002B03D00748084900E000BF07480368002B03D0064B002B00D0984708BDC04600000000001700002C010020C80000200000000080B500AF024B012262
:400400001A70BD4680BDC0464401002080B500AF62B600F093FF642000F058FF202001F073F8064B181C01F045F800F0EDFC044B181C00F001FDBD4680BDC0460417000044
:40044000F903000080B500AFFFF7E0FF0B4B01221A700A4B1B78DBB2002B04D0074B00221A7000F0CDFA064B1B78DBB2002B04D000F0EAFA00F006F8EBE7EAE74401002061
:400480007401002080B596B000AF3B1C08331A1C5023101C00211A1C01F015F9864B1B685A1C854B1A60844B1B681A1C3B1C101C191C00F0D1FB031C3A1C0832101C191CA0
:4004C00001F009F93B1C0833181C01F011F9031C3A1C0832D218794B111C1A1C0223081C111C1A1C01F0E6F8002000F00BFC031C3A1C0832101C191C01F0EDF83B1C08337E
:40050000181C01F0F5F8031C3A1C0832D2186B4B111C1A1C0223081C111C1A1C01F0CAF8012000F0EFFB031C3A1C0832101C191C01F0D1F83B1C0833181C01F0D9F8031C2C
:400540003A1C0832D2185D4B111C1A1C0223081C111C1A1C01F0AEF8022000F0D3FB031C3A1C0832101C191C01F0B5F83B1C0833181C01F0BDF8031C3A1C0832D2184F4B86
:40058000111C1A1C0223081C111C1A1C01F092F8032000F0B7FB031C3A1C0832101C191C01F099F83B1C0833181C01F0A1F8031C3A1C0832D218414B111C1A1C0223081C39
:4005C000111C1A1C01F076F8042000F09BFB031C3A1C0832101C191C01F07DF83B1C0833181C01F085F8031C3A1C0832D218334B111C1A1C0223081C111C1A1C01F05AF87C
:40060000052000F07FFB031C3A1C0832101C191C01F061F83B1C0833181C01F069F8031C3A1C0832D218254B111C1A1C0223081C111C1A1C01F03EF8062000F063FB031CE7
:400640003A1C0832101C191C01F045F83B1C0833181C01F04DF8031C3A1C0832D218174B111C1A1C0223081C111C1A1C01F022F8072000F047FB031C3A1C0832101C191CE1
:4006800001F029F83B1C0833181C01F031F8031C3A1C0832D2180A4B111C1A1C0323081C111C1A1C01F006F83B1C0833181C00F001FFBD4616B080BD4801002028170000F7
:4006C0002C17000080B500AFFEE7C04680B586B000AF224B7B61224B3B61204B7B6135E03B691B68FB603B695B68BB603B699B683B6000237B600CE0FB681A68BB681A606E
:40070000BB680433BB60FB680433FB607B6804337B607A683B689A42EED13B69DB683B6000237B6008E0BB6800221A60BB680433BB607B6804337B607A683B689A42F2D185
:400740003B6910333B617B69013B7B617B69002BC6D100F089FFFFF775FEFEE701000000381B000080B582B000AF00237B600FE07B68032B04D8104B7A689200D35800E070
:400780000E4B0F4A796889008B507B6801337B607B682F2BECD9FFF7F5FC0A4B00221A608023DB058022D205126801210A431A60BD4602B080BDC04600000000C506000054
:4007C00000000020C000002080B582B000AF786039607A683B68101C00211A1C00F073FFBD4602B080BDC04680B586B000AF7860396000233B6100237B612EE07B699B003A
:400800007A68D3181B68BB603B1C0F33BA681A70BB68FF229343BB6017E03B695B003A68D3181B781A1CBB68D3183A69520039688A1852781A703B6901333B613B1C0F33E0
:400840001A783B1C0F33013A1A703B1C0F331B78002BE2D17B6901337B617B69092BCDD9BD4606B080BDC04680B500AFBD4680BD80B500AF024B01221A70BD4680BDC04688
:400880007401002090B583B000AF142000F042FDFF2000F0F1FB002000F026FB0A2000F039FD012000F020FB052000F033FD002000F0E2FB002000F017FBFC1D00F024FBF5
:4008C000031C2370FB1D1B78181CBD4603B090BD80B582B000AF021CFB1D1A70142000F019FD002000F000FBFB1D1B78002B03D1322000F00FFD02E00A2000F00BFD01202C
:4009000000F0F2FABD4602B080BDC04680B584B000AF021CFB1D1A70FF2000F0ADFB3B1C0F3300221A701AE0FB1D1A783B1C0F331B78111C19410B1CD9B23B1C0E3301224B
:400940000A401A703B1C0E331B78181CFFF7C0FF3B1C0F331A783B1C0F3301321A703B1C0F331B78072BDFD9BD4604B080BDC04690B583B000AFFB1D00221A700BE0FB1D10
:400980001B781D4A99001D4B1B688B50FB1D1A78FB1D01321A70FB1D1B78072BEFD9BB1D00221A70002000F09FFAFF2000F064FBF0235B00181C00F0ADFC012000F094FA45
:4009C000052000F0A7FC002000F056FB002000F08BFA372000F09EFCBC1D00F095FA031C2370C82000F096FCBB1D1B78DB43DBB2181CBD4603B090BD54010020D000002042
:400A000080B500AFFFF7B4FF031C1A1C0C4B1A700B4B1B78002B04D10A4B01221A7000230AE0CC20FFF772FF4420FFF76FFF012000F032FB024B1B78181CBD4680BDC04648
:400A4000750100207401002090B58BB000AF3B1D00221A6000225A6000229A600022DA6000221A6100225A6100229A610022DA61744B1B78DBB2002B01D10023DEE0714B67
:400A800000221A70704B1B78002B01D10023D5E0FFF76EFF031C1A1C6B4B1A706A4B1B78002B01D10023C9E03B1C2533664A12781A703B1C273300221A701AE03B1C2733E3
:400AC0001B783A1C253211783A1C27321278081C1041021CD1B201220A40D2B2391D9B00CB189A703B1C27331A783B1C273301321A703B1C27331B78072BDFD9CC20FFF74E
:400B000005FFBE20FFF702FF3B1C263300221A7046E03C1C2434FFF7B5FE031C23703B1C273300221A702FE03B1C27331B783A1D9B00D3189B78002B1FD03B1C27331A7852
:400B40003B1C273319783B1D8900CB5A99B23B1C243318783B1C27331B781841012318403B1C26331B78041C9C40231C9BB20B439BB299B23B1D9200D1523B1C27331A788A
:400B80003B1C273301321A703B1C27331B78072BCAD93B1C26331A783B1C263301321A703B1C26331B780B2BB3D93B1C273300221A703BE03B1C27331B783A1D9B00D31861
:400BC0009B78002B18D03B1C27331A783B1D9200D25A1E4B9A4216D93B1C27331A783B1C273319783B1D8900CB5A19481B1899B23B1D9200D15206E03B1C27331A783B1D4A
:400C000092001349D1523B1C27331A783B1C27331878104B9200391D80004158D1503B1C27331A783B1C273301321A703B1C27331B78072BBED93B1C25331B78181CBD466B
:400C40000BB090BD7401002075010020FF07000000F0FFFF5401002080B588B000AF786039603B1C17330A221A703B68FB613B68BB617B683B613B1C17331B787868191C6E
:400C800000F090FC031C7B60FB695A1CFA613A69111C09313A1C17321278786842438A1A17498A5C1A707B68002BE2D13B69002B04DAFB695A1CFA612D221A70FB695A1E25
:400CC000FA6100221A7011E03B1C0F33FA6912781A70FB695A1EFA61BA6912781A70BB695A1CBA613A1C0F3212781A70BA69FB699A42E9D33B68181CBD4608B080BDC0462A
:400D0000BC1A000080B58CB000AF021CFB1D1A703B1C143300221A6000225A6000229A6000221A733B1C1433BB62FB1D1B78334A9B00D3189B78002B01D1314B5AE0FB1DD5
:400D40001A782E4B9200D25A3B1C26331A803B1C26331B88DB0BDAB23B1C25331A703B1C25331B78002B06D03B1C263300229B5E5B42FB6204E03B1C263300229B5EFB624E
:400D8000FB6AD9B23B1C24330F220A401A70FB6A1B11FB623B1C25331B78002B0FD0FB6A5A423B1C0C33101C191CFFF755FF031C3A1C1432101C191C00F08DFC0DE0FA6A2E
:400DC0003B1C0C33101C191CFFF746FF031C3A1C1432101C191C00F07EFC3B1C24331A78084B9200D3583A1C1432101C191C00F072FCBB6A181CBD460CB080BD54010020C6
:400E0000D01A0000D400002080B500AF074B181C00F052F9064B181C00F002F900F0BAF8044B00221A70BD4680BDC04671080000EE0200007401002080B582B000AF7860F0
:400E400000F048F87B68181C00F008F8032000F011F800F035F8BD4602B080BD80B582B000AF7860024B7A68DA64BD4602B080BD0000002090B585B000AF021CFB1D1A70BA
:400E80001E23FB603C1C0B3400F07CF9031C23700A4B0A4A126892009108FA1D1078FA68041C9440221C0A431A603B1C0B331B78181C00F06BF9BD4605B090BD00E400E027
:400EC00080B500AF024B08221A60BD4680BDC04600E100E080B500AF024B08221A60BD4680BDC04680E100E080B582B000AF021CFB1D1A70034BFA1D12781A70BD4602B0B6
:400F000080BDC04673000F4080B500AF024B1B78DBB2181CBD4680BD61000F4090B583B000AF124B181C00F061F8104B181C00F077F8FC1D00F026F9031C23700C4B0C4AC1
:400F40001278D2B210210A43D2B21A70FB1D1B78181C00F01BF900F073F800F07FF8002000F02AF8BD4603B090BDC046ED02000090000F4080B500AF054B054A1278D2B298
:400F8000802149420A43D2B21A70BD4680BDC04670000F4080B500AF064B1B78002B04D1FFF7BCFF034B01221A70FFF7E3FFBD4680BDC0464C01002080B582B000AF021C72
:400FC000FB1D1A70034BFA1D12781A70BD4602B080BDC04680000F4080B500AF024B1B78DBB2181CBD4680BD60000F4080B582B000AF021CBB1D1A80034BBA1D12881A809C
:40100000BD4602B080BDC04640100F4080B500AF024B1B889BB2181CBD4680BD80100F4080B582B000AF021CBB1D1A80034BBA1D12881A80BD4602B080BDC04600100F404F
:4010400080B500AF044B044A1278D2B210210A43D2B21A70BD4680BD70000F4080B500AF01E0FFF7D3FFFFF7B7FF031C1A1C08231340F6D1BD4680BD80B582B000AF021C0F
:40108000FB1D1A70034BFA1D12781A70BD4602B080BDC04672000F4080B582B000AF021CFB1D1A70034BFA1D12781A70BD4602B080BDC04671000F4080B582B000AF786067
:4010C00000F04AF87B68181C00F008F8032000F011F800F037F8BD4602B080BD80B582B000AF7860024B7A681A64BD4602B080BD0000002090B585B000AF021CFB1D1A70F4
:401100000623FB603C1C0B3400F03CF8031C23700B4B0B4A1268C021101C8843011CFA1D1078FA68041C9440221C0A431A603B1C0B331B78181C00F029F8BD4605B090BD38
:4011400000E400E080B500AF024B01221A60BD4680BDC04600E100E080B500AF024B01221A60BD4680BDC04680E100E0000000000230800804D0C0460138FDD1C046C046DA
:40118000C0467047EFF3108072B6704780F310887047C046C046C04680B584B000AF021C3960FB1D1A7080239B05FB60FB1D1B781F2B02D9002000F07FF8FB1D1B781033F9
:4011C0009B00FA68D3181B68BB60FB1D1B7810339B00FA68D3183A681A60BB68181CBD4604B080BD90B587B000AF0A1CFB1D011C1970BB1D1A70BB1D1B78032B02D9002027
:4012000000F05AF8FB1D1B781F2B02D9002000F053F8FB1D1A7803231340DB0006337B613C1C1334FFF7AEFF031C2370FB1D1B789B08DBB29B0014495B181B68FB607B6932
:401240000322111C99400B1CDA43FB681340FB60BB1D1A787B69111C99400B1CFA681343FB60FB1D1B789B08DBB29B00064A9B18FA681A603B1C13331B78181CFFF786FF2C
:40128000BD4607B090BDC04600E400E080B582B000AF021CFB1D1A70064BFA1D11781F220A400121081C9040021C1A60BD4602B080BDC04600E100E080B582B000AF021C70
:4012C000FB1D1A7001BEBD4602B080BD80B582B000AF786008E00C4B1B68181CFFF748FF7B680A4A9B187B607A6880231B029A42F1D8074B1B687A685343181CFFF738FFC0
:40130000BD4602B080BDC046200100200080FFFF1801002080B582B000AF021CBB1D1A80BB1D1B88044A12785343181CFFF720FFBD4602B080BDC0461C01002080B500AFCC
:40134000064B1B78002B04D100F00AF8034B01221A7000F023F8BD4680BDC0464D01002080B500AF094B0220191CFFF715FF02200321FFF737FF064B07221A70054B482214
:401380001A70054B02221A70BD4680BD3D15000023000F4033000F4082000F4090B583B000AFFC1DFFF7EEFE031C2370094B094A1278D2B210210A43D2B21A700220FFF721
:4013C00065FFFB1D1B78181CFFF7E0FEBD4603B090BDC04692000F4080B584B000AF021CFB1D1A703B1C0F332D4A12781A703B1C0E332C4A12781A703A1C0F323B1C0E339F
:4014000012781B789A420BD23B1C0F331A783B1C0E331B78013BD31A5A425341DBB20AE03B1C0F331A783B1C0E331B78D31A273B5A425341DBB2002BD4D13A1C0E323B1C91
:401440000F3312781B789A420BD1174B1B78DBB21A1C0423134004D1144BFA1D12781A701BE03B1C0F331B78272B03D93B1C0F3300221A703B1C0F331B780D4AF91D097810
:40148000D1543B1C0F331A783B1C0F3301321A70034B3A1C0F3212781A70BD4604B080BD4F0100204E01002062000F4042000F407801002080B584B000AF78603B1C0E3357
:4014C00000221A800F4B1B78002B18D00FE03B1C0E331B887A68D3181B78181CFFF77CFF3B1C0E331A883B1C0E3301321A803B1C0E331B887A68D3181B78002BE7D1BD46E1
:4015000004B080BD4D01002080B582B000AF021CFB1D1A70084B1B78002B0AD0FB1D1B78181CFFF759FF0D20FFF756FF0A20FFF753FFBD4602B080BD4D01002080B500AF30
:4015400016E0134B1B78DBB2272B02D9104B00221A70104B0E4A1278D2B20F498A5CD2B21A700B4B1B78DBB20133DAB2084B1A70074B1B78DAB2094B1B789A4206D0084B46
:401580001B78DBB21A1C04231340DAD0BD4680BD4E01002042000F40780100204F01002062000F40002941D010B4041C4C40A44601230022002900D54942002800D54042D5
:4015C00088422CD301242407A14204D2814202D209011B01F8E7E400A14204D2814202D249005B00F8E7884201D3401A1A434C08A04202D3001B5C0822438C08A04202D337
:40160000001B9C082243CC08A04202D3001BDC082243002803D01B0901D00909E3E7101C6446002C00D5404210BC7047002806D003DB0020C043400801E08020000607B466
:40164000024802A14018029003BDC046190000000029EBD003B5FFF7A7FF0EBC4243891A1847C0467047C04670B50E4B0E4D0024ED1AAD101E1CAC4204D0A300F3589847DE
:401680000134F8E700F046FA084B094D0024ED1AAD101E1CAC4204D0A300F35898470134F8E770BD201B0000201B0000201B0000281B000010B50023934203D0CC5CC45487
:4016C0000133F9E710BD031C8218934202D019700133FAE7704710B5021C1378002B01D00132FAE7CC5CD4540133002CFAD110BD0023C25C0133002AFBD1581E70470000F6
:401700000000000054656D70657261747572652073656E736F72204D6178696D20445331384232303A0D0A00090000000D0A00000400000000300F40000400400F400004F6
:4017400004000F405F300F4044310F4064320F4051330F4017400F401B410F400F420F400A430F4002600F40720F7301800D820F030E040E06200A9F0B010E4010021211EA
:4017800013081440170418FE190C1EDF1F01200421042210240826102B012ECE2F0D300E310C32C0330134303501360137023E403F044013410649FF4AFF4BFF4F0150186D
:4017C00052905401580459045A045B045C335D335F056040624064406540668068806A806C806E8080048E029801B004B202B401BE11C053C102C5ECC620C80BC9FFCAFF32
:40180000CBFFCD83CE03CF01D018D201D301D610D804DA04DB04DC03DD33DF01E040E240E440E540E680E880EA80EC80EE80001403010601074109200A510D201290134066
:4018400018151A401B441E101F2A2008212822E129402A012B0431203241330838023A20400142204520462048044D0A4F805630590A5B805C485F216414650167026F01C2
:4018800070017140720173407A208301850886208782880189108D018F01C097C24FC40DCA0DCC0FCE05D06AD214D6FBD8F0DE02E210E410E620002402010310040D050CA7
:4018C000061007110A390C0D0D1C0E300F021110130C180C19091A111B101F032120280229143001311F320233203402363C3A803E053F044053410645EC470B481349FF50
:401900004AFF4BFF4EF04F44500C54015604580459045A045B045C115D115F0166C06A406B02841985018606870689018C2C8D028E019A379C199E229F0FAC04B007B1049E
:40194000B308B426B503B618B880B9A0BA22BB0ABE40C001C751C830C9FFCA07CBFFCC40CD20CEF0CF05D008D804D904DA04DB04DC21DD01DF01E040E1A8E240E320004442
:401980000404055209A00A020F0812011607184519021A081DF81E42211422402340260427402D012F08324035103601374039283B403C443E02400145084D014E054F0846
:4019C000520557085C205D015E48678069406C066D0674817508770478207B048006814085088740888089048C0895209C089F44A401A501AB20B014B320B440B501B70426
:401A0000C0F5C243C441CAA0CCB8CEDED048D230D6F0D880E040E220E40CE680E840EA80010807803220370852805E216E80712074208108864188208E208F80C030CC9085
:401A4000D420D6A0DA80DC60E210E420E640014003800401310433103702528081048280831085208B0A8F80940195409F08A520A680A801B210B540C070CCD0D420E2306D
:401A8000E6A0E88004200B200C02300832803408530167028808C001C20CCC0BD401D601E001830186809702A680B002B310B418EA04EC08EE03100E11010000393837360A
:401AC000353433323130313233343536373839002D0000002E3030002E3036002E3133002E3139002E3235002E3331002E3338002E3434002E3530002E3536002E36330048
:401B00002E3639002E3735002E3831002E3838002E393400F8B5C046F8BC08BC9E467047C103000065070000F8B5C046F8BC08BC9E46704799030000481B0000C8000020FB
:401B4000600000007800000000000000C0F1FF0F00F00000D41A0000D81A0000DC1A0000E01A0000E41A0000E81A0000EC1A0000F01A0000F41A0000F81A0000FC1A0000C8
:401B8000001B0000041B0000081B00000C1B0000101B000000366E01C05D0000180000000000E02E000000000000000000000000000000000000000000000000000000008E
:401BC00000000000000000000000000000000000000000000000000000000000000000000000000000000000000000000000000000000000000000000000000000000000E5
:401C000000000000000000000000000000000000000000000000000000000000000000000000000000000000000000000000000000000000000000000000000000000000A4
:401C40000000000000000000000000000000000000000000000000000000000000000000000000000000000000000000000000000000000000000000000000000000000064
:401C80000000000000000000000000000000000000000000000000000000000000000000000000000000000000000000000000000000000000000000000000000000000024
:0200000490303A
:02000000EA17FD
:0200000490402A
:200000000000000000000000000000000000000000000000000000000000000000000000E0
:0200000490501A
:0C000000000204C81193110104D0FBAAF7
:0200000490600A
:0100000001FE
:00000001FF