:400000000080002011000000250E0000250E000080B500AF00F03AFF80B500AF2D4B12221A6001F05DFD2C4B180005F005F9012001F066FD302001F085FB284B284A1A6030
:40004000284B8022D2051A60274B274A126802210A431A60254B264A1A60264B00221A60254B254A126808218A431A60FA23DB00180001F059FC214B180001F0D1FC204BA0
:40008000204A1A60204B214A1A60214B1D4A1A601D4B204A1A60204B8822D2011A601A4B1E4A1A601E4B802212061A601D4B8022D2021A601C4B42221A601C4B40221A604D
:4000C0001B4B41221A60074B8022D2051A60C046BD4680BD30001040001BB70004010B40060000800C020B4078002E407C002E402D3E000064F02E406CF02E40DC05000009
:4001000008030140007FBB000000014042FF00800003014040FF00800403014041FF008008010B4000010B4038010140300101400401014080B582B000AF72B64D4B002262
:400140001A604D4B01221A70FB1D00221A7022E0FB1D1A7813005B009B185B00474A9B183B603B681A78597809020A43997809040A43DB781B06134318003B681A795B7940
:400180001B0213439BB2190000F0E6FDFB1D1A78FB1D01321A70FB1D1B78012BD8D9384A384B1100180000F0E7FD374BA02212011A80364B01221A70354B364A1A60364B70
:4001C000992212041A60354B802292021A60344B992212041A60334B802212041A60324B992212041A60314B314A1A60314B802292041A60304B802292041A602F4B80225A
:4002000092001A602E4B06221A602E4B06221A602D4A2D4B1B78DBB23C218B43DBB214210B43DBB21370294A284B1B78DBB216210B43DBB21370264B08221A60254B264A92
:400240001A60264B20221A60254BC42292021A60244B20221A60244B10221A60234BC12252031A60FFF7D8FE00F0C8FDC046BD4602B080BD6CF02E401C700F40D4AE01006C
:4002800004AF0100E0AE010000600F4002600F4000000240003000EE000102400003024000500F4008500F4010500F4030500F400400990034500F4038500F403C500F40CD
:4002C0002000104000800F4001700F4000700F400000044008000440000CD800000104400801044018010440000304400803044010B5064C2378002B07D1054B002B02D045
:40030000044800E000BF0123237010BD801100200000000070AD0100084B10B5002B03D00749084800E000BF07480368002B00D110BD064B002BFBD09847F9E700000000A1
:400340008411002070AD0100A80B00200000000080B584B000AF00F017F8094B01221A70012004F03FFF074B3A005A6007F03CF800F0D6FB00F050FC00F072FCF6E7C046BD
:40038000AC0B0020E023002080B500AF62B6094B180001F0D9FD084B180000F09DFC01F011F8064B180001F025F804F051FEC046BD4680BDE1060000CC0C00001105000051
:4003C00080B586B000AF7860396000237B613B68013B3B6118E07B697A68D3181B78FB607B697A68D3183A6979688A1812781A703B697A68D318FA68D2B21A707B6901337D
:400400007B613B69013B3B617A693B699A42E2DBC046BD4606B080BD90B587B000AFF860B9607A6000237B6116E07B695A1C7A611A00BB689C18FB680A21180005F0C2FA60
:400440000B00DBB23033DBB22370FB680A21180005F0D2F90300FB60FB68002BE5D107E07B695A1C7A611A00BB689B1830221A707A697B689A42F3DB7A69BB6811001800D2
:40048000FFF79EFF7B69BA68D31800221A707B691800BD4607B090BD80B588B000AFF860B9607A60F86805F02FFE0300FB61F86905F04CFE031C191CF86805F09FFC031CBE
:4004C000BB61B968FB6900221800FFF7A5FF03007B617B68002B15D07B69BA68D3182E221A700A49B86905F075FB031CBB61B86905F00AFE7B690133BA68D3187A68190098
:40050000FFF78AFFC046BD4608B080BD0000C84280B500AF024B01221A70C046BD4680BDAD0B002080B584B000AF0200FB1D1A700023FB6011E0FB1D1B78180000F016F84C
:40054000031CBB600021B86805F04EFA031E01D1BB6806E0FB680133FB60FB68312BEADD0023181CBD4604B080BDC04680B584B000AF0200FB1D1A700023FB60FB1D1B7819
:40058000002B09D0FB1D00221A70C8235B00180001F020FA00F0CAFD074B1B78DBB2002B05D000F0E7FD00F009F8031CFB60FB68181CBD4604B080BD1224002080B582B05A
:4005C00000AF002000F0DCFE031C7B607B68181CBD4602B080BDC04680B598B000AF78600021786805F000FA031E07D10823F9187B680222181CFFF74FFF03E00823FB1890
:4006000030221A700823FB180A4A10217818502106F082FA202004F0D3FD1023FB18180004F0B2FD202004F0CBFDC046BD4618B080BDC04674AD010080B59CB002AF786067
:40064000202004F0BDFD244B180004F09DFD202004F0B6FD00237B6634E05C23FB1800221A707B6E9B007A68D3181B680021181C05F0BAF9031E0BD17B6E9B007A68D3181B
:400680001B685C22B9180222181CFFF705FF03E05C23FB1830221A70796E104A0C23F8185C23FB1800930B00502106F035FA0C23FB18180004F068FD202004F081FD7B6E31
:4006C00001337B667B6E032BC7DD202004F078FDC046BD461AB080BD84AD0100A4AD010090B597B000AF786039607B682B2B49D00FD8262B24D005D8012B1DD0202B00D1B1
:40070000D0E008E2272B00D11FE1282B00D1A1E101E24C2B4ED004D8412B3BD0422B41D0F9E14E2B00D190E000D286E189225200934200D1B2E1EEE1002001F0A1FCEAE1C2
:40074000DC4B180004F020FD202004F039FDDA4B1B78062B00D0A3E1D84B1B78002B00D09EE1002001F08CFC5623FB181B88002B00D095E1D24B180004F006FD202004F0B9
:400780001FFD8DE1CF4B180004F0FEFC202004F017FDC0E1CC4B180004F0F6FC202004F00FFDB8E1C94B180004F0EEFC202004F007FDB0E14423FB183A6813CA13C312689C
:4007C0001A60C34B180004F0DFFC202004F0F8FCC04B5A6800239B00D418BF4B1B78DBB21800FFF79FFE031C2360002004F0FAFCB84B5A6800239B00D3181B68181CFFF74F
:40080000EBFEB64AB6480023002115F084FCB14B5B681800FFF710FFA84B01221A70B14B180004F0B1FC202004F0CAFCAB4B1A785B781B021A4300231204120C1B0C1B046B
:400840001343180014F018FA65E11423FB183A6813CA13C312681A601423FB189B89122B00D01FE11423FB181B89012B00D019E11423FB185B681B68181C05F0E3F8030025
:40088000DAB2994B1A70984B1B78013BDAB2964B1A70924A1423FB18181D0023002115F03AFCFFE0844B1B78022B00D1FCE02423FB183A6813CA13C303CA03C38B4B180070
:4008C00004F062FC202004F07BFC2423FB1804221A702423FB181B78042B00D0E4E0844B180004F051FC202004F06AFC01F0C8FC2423FB185A787F4B9A712423FB185B68AC
:400900001A787C4B1A702423FB185B685A78794B5A702423FB185B689A78764B9A702423FB185B68DA78734BDA702423FB185B681A79704B1A712423FB185B685A796D4B48
:400940005A716D4B01221A70AEE06C4B1B78022B00D0ABE06A4B01221A705D4B180004F013FC202004F02CFC5A4B5B681C1D5A4B1B78DBB21800FFF7D5FD031C181C05F0D8
:4009800081FF604A604B05F029FC02000B001000190005F0CBFF031C23604E4B5A6800239B00D3181B68181CFFF716FE3823FB184D4A1A603823FB1801229A803823F91856
:4009C000464B1A785B781B021A4300231204120C1B0C1B041343180013F014FE4423FB189A890823FB181A813A4B5A680823FB181A600823FB1804229A800823F918374BB6
:400A00001A785B781B021A4300231204120C1B0C1B041343180013F0EBFD002004F0E2FB3A4B180004F0B0FB202004F0C9FB294B5B681800FFF700FE38E0284B1B78002B30
:400A400036D0264B1B78180012F036FB304B01221A702DE02A4B00221A70284B1B78012B0BD1164B1B78012B07D0134B1B78062B13D1002001F004FB0FE0204B1B78022B96
:400A800048D10E4B1B78012B44D00B4B1B78062B40D1002001F0A2FB3CE03BE0C0463AE0C04638E0C04636E0C04634E0C04632E0C04630E0B0AD01004C2400209C11002084
:400AC000D8AD0100F4AD010014AE01002CAE010048AE0100E0230020B00B002060240020E423002064AE0100B10B002080AE01009CAE0100142400209D110020C80B0020EE
:400B00009E110020B81E85EB51B8BE3FC0AE01009F110020C046C046BD4617B090BDC04690B583B000AF354B1B78012B61D106F05BFC334B1B78002B06D0314B1B78180014
:400B400012F0BAFA06F050FC2E4B1B78012B02D0022B28D04DE02C4B1B78032B03D101F0F9FA06F041FC284B1B78062B18D1BC1D002001F033FB03002380BB1D1B88002B7A
:400B80000BD1224B1B889AB2214B1A801D4B02221A701A4B00221A7002E01A4B01221A7006F022FC25E0184B1B78042B03D101F067FB06F019FC144B1B78062B16D1BC1D89
:400BC000002001F05DFA03002380BB1D1B88002B09D10C4B01221A700E4B00221A70074B00221A7002E0074B02221A7006F0FCFBC046C046BD4603B090BDC0469C110020AF
:400C000060240020C80B00204C24002010240020A01100209D11002090B583B000AF0D4B1B78002B11D006F0DFFB0B4B1B78062B0BD1084B00221A70BC1D084B180001F082
:400C400031FB0300238006F0CFFBC046BD4603B090BDC0469D1100204C2400201424002080B500AF164B1B78022B15D1154B1B889BB21A00144B1B889BB2D31A2D2B0BDD4C
:400C8000124B1B78062B03D0104B1B78042B03D10F4B01221A7011E00E4B1B78002B0DD006F0A2FB094B1B78062B07D1094B00221A70002001F092FA06F096FBBD4680BD7C
:400CC000C80B002010240020A01100204C2400209C1100209F11002080B582B000AF786000F058FF0121002000F096FF0121002000F0C0FF7B681900002001F021F85A2022
:400D000000F08EFE012000F0EBFF00F019FF044B180004F015F9C046BD4602B080BDC046250D000080B500AF04F06CF901F050F802000423134009D0042001F057F8054B1C
:400D40001B889BB201339AB2024B1A80C046BD4680BDC0461024002080B582B000AF786039603A687B680021180005F0CDFEC046BD4602B080BDC04680B586B000AF786087
:400D8000396000233B6100237B612FE07B699B007A68D3181B68BB600F23FB18BA681A70BB68FF229343BB6018E03B695B003A68D3181B781A00BB68D31819003B695B0066
:400DC0003A68D3185B780B703B6901333B610F23FB181A780F23FB18013A1A700F23FB181B78002BE1D17B6901337B617B69082BCCD9C046BD4606B080BDC04680B500AF78
:400E0000054B03221A60054B03221A60044B00221A60C046BD4680BD3000304030003140000E3F4080B500AF05F02AFE03001B680C2B00D1FEE7FEE780B584B000AF78608C
:400E4000104B1A687B68D3181A000F4BD21A80235B019A4209DC0B4B1B68FB60094B1A687B68D218074B1A6007E005F009FE03000C221A6001235B42FB60FB681800BD46DC
:400E800004B080BDCC0B0020A824002080B586B000AF224B7B61224B3B61204B7B6135E03B691B68FB603B695B68BB603B699B683B6000237B600CE0FB681A68BB681A60E4
:400EC000BB680433BB60FB680433FB607B6804337B607A683B689A42EED13B69DB683B6000237B6008E0BB6800221A60BB680433BB607B6804337B607A683B689A42F2D1BE
:400F00003B6910333B617B69013B7B617B69002BC6D105F0BBFDFFF71BFAFEE701000000B8B9010080B582B000AF154B144A126801218A431A6000237B600FE07B68032BC7
:400F400004D8104B7A689200D35800E00E4B0F4A796889008B507B6801337B607B682F2BECD9FFF7E7F80A4B00221A60044B044A126801210A431A60C046BD4602B080BD12
:400F80000000104000000000250E000000000020C000002080B500AF024B01221A70C046BD4680BD1224002090B583B000AF142000F036FDFF2000F047FB002000F078FAE3
:400FC0000A2000F02DFD012000F072FA052000F027FD002000F038FB002000F069FAFC1D00F076FA03002370FB1D1B781800BD4603B090BD80B582B000AF0200FB1D1A70B2
:40100000142000F00DFD002000F052FAFB1D1B78002B03D1322000F003FD02E00A2000F0FFFC012000F044FAC046BD4602B080BD80B584B000AF0200FB1D1A70FF2000F031
:4010400003FB0F23FB1800221A7019E0FB1D1A780F23FB181B781A411300DAB20E23FB1801210A401A700E23FB181B781800FFF7C1FF0F23FB181A780F23FB1801321A7054
:401080000F23FB181B78072BE0D9C046BD4604B080BDC04690B583B000AFFB1D00221A700EE0FB1D1B781F4A9B001F49D3180422180005F020FDFB1D1A78FB1D01321A70C3
:4010C000FB1D1B78072BECD9BB1D00221A70002000F0EEF9FF2000F0B7FAF0235B00180000F09EFC012000F0E3F9052000F098FC002000F0A9FA002000F0DAF9372000F090
:401100008FFCBC1D00F0E4F903002370C82000F087FCBB1D1B78DB43DBB21800BD4603B090BDC046F0230020D00B002080B500AFFFF7B0FF03001A000C4B1A700B4B1B78B8
:40114000002B04D10A4B01221A7000230AE0CC20FFF76EFF4420FFF76BFF012000F084FA024B1B781800BD4680BDC0461B2400201224002090B58BB000AF3B1D18002023E9
:401180001A00002105F0C0FC784B1B78DBB2002B01D10023E6E0754B00221A70744B1B78002B01D10023DDE0FFF774FF03001A006F4B1A706E4B1B78002B01D10023D1E0F8
:4011C0002523FB186A4A12781A702723FB1800221A701BE02723FB181B782522BA1811782722BA18127811410A00D2B201210A40D1B23A1D9B00D31802330A1C1A702723B6
:40120000FB181A782723FB1801321A702723FB181B78002BDED0CC20FFF70AFFBE20FFF707FF2623FB1800221A7047E02423FC18FFF7BAFE030023702723FB1800221A708A
:4012400030E02723FB181B783A1D9B00D31802331B78002B1FD02723FB181A782723FB1819783B1D8900CB5A19B22423FB1818782723FB181B781841030001201840262309
:40128000FB181B78984003001BB20B431BB299B23B1D9200D1522723FB181A782723FB1801321A702723FB181B78002BC9D02623FB181A782623FB1801321A702623FB184D
:4012C0001B780B2BB2D92723FB1800221A7041E02723FB181B783A1D9B00D31802331B78002B19D02723FB181A783B1D9200D35A204A934217D92723FB181A782723FB1846
:4013000019783B1D8900CB5A1B498C46634499B23B1D9200D15206E02723FB181A783B1D92001549D1522723FB181A782723FB181B78124891003A1D9B004018D31804227C
:40134000190005F0D8FB2723FB181A782723FB1801321A702723FB181B78072BB8D92523FB181B781800BD460BB090BD122400201B240020FF07000000F0FFFFF0230020E3
:4013800080B584B000AF0200FB1D1A70FB1D1A780B4B9200D25A0E23FB181A800E23FB1800229B5E180004F0D1FE031CF6218905181C04F00FFC031C181CBD4604B080BD5D
:4013C000F023002080B500AF074B180000F05CF9064B180000F008F900F0C0F8044B00221A70C046BD4680BD950F0000EE0200001224002080B582B000AF786000F04EF8D6
:401400007B68180000F00AF8032000F015F800F03BF8C046BD4602B080BDC04680B582B000AF7860034B7A689A64C046BD4602B080BDC0460000002090B585B000AF020019
:40144000FB1D1A701623FB600B23FC1803F0FDFE030023700A4B0A4A12680A491140FA1D1078FA68904002000A431A600B23FB181B78180003F0EDFEC046BD4605B090BD3A
:4014800000E400E0FFFF3FFF80B500AF024B04221A60C046BD4680BD00E100E080B500AF024B04221A60C046BD4680BD80E100E080B582B000AF0200FB1D1A70034AFB1DDD
:4014C0001B781370C046BD4602B080BD72000F4080B500AF024B1B78DBB21800BD4680BD63000F4090B583B000AF124B180000F061F8104B180000F077F8FC1D03F0A5FE5C
:40150000030023700C4A0C4B1B78DBB210210B43DBB21370FB1D1B78180003F09AFE00F073F800F081F8002000F02AF8C046BD4603B090BDED02000091000F4080B500AFB9
:401540000549054B1B78DBB2802252421343DBB20B70C046BD4680BD71000F4080B500AF064B1B78002B04D1FFF7BCFF034B01221A70FFF7E3FFC046BD4680BDA2110020AE
:4015800080B582B000AF0200FB1D1A70034AFB1D1B781370C046BD4602B080BD81000F4080B500AF024B1B78DBB21800BD4680BD61000F4080B582B000AF0200BB1D1A804B
:4015C000034ABB1D1B881380C046BD4602B080BD40100F4080B500AF024B1B889BB21800BD4680BD80100F4080B582B000AF0200BB1D1A80034ABB1D1B881380C046BD46B3
:4016000002B080BD00100F4080B500AF054A054B1B78DBB210210B43DBB21370C046BD4680BDC04671000F4080B500AF01E0FFF7D1FFFFF7B5FF03001A0008231340F6D187
:40164000C046BD4680BDC04680B582B000AF0200FB1D1A70034AFB1D1B781370C046BD4602B080BD73000F4080B582B000AF0200FB1D1A70034AFB1D1B781370C046BD46F1
:4016800002B080BD70000F4080B582B000AF786000F04EF87B68180000F00AF8032000F015F800F03BF8C046BD4602B080BDC04680B582B000AF7860034B7A685A64C04648
:4016C000BD4602B080BDC0460000002090B585B000AF0200FB1D1A700E23FB600B23FC1803F0B3FD030023700A4B0A4A12680A491140FA1D1078FA68904002000A431A609D
:401700000B23FB181B78180003F0A3FDC046BD4605B090BD00E400E0FF3FFFFF80B500AF024B02221A60C046BD4680BD00E100E080B500AF024B02221A60C046BD4680BD34
:4017400080E100E090B585B000AF78600C23FC1803F07BFD030023707B68022B00D8AFE07B68302B00D9ABE05C4B1B78DBB21A007B689A420AD35A4A0F23FB1812781A7050
:40178000584A0E23FB1812781A703FE0564B1B78DBB21A007B689A420AD3544A0F23FB1812781A70524A0E23FB1812781A702DE0504B1B78DBB21A007B689A420AD34E4A98
:4017C0000F23FB1812781A704C4A0E23FB1812781A701BE04A4B1B78DBB21A007B689A420AD3484A0F23FB1812781A70464A0E23FB1812781A7009E0444A0F23FB18127823
:401800001A70434A0E23FB1812781A707B68DA1E0B23FB183F498A5C1A700B23FB181B782F2B0DD97B682A2B0AD93B4B19221A60052003F001FD0D23FB1819221A7007E0B6
:40184000354B1B68DAB20D23FB183F210A401A700B23FA180D23FB1812781B789A4208D22D4B7A68033A2B498A5C1A60052003F0E3FC2A4B7A6826498C4662441278D2B25E
:401880001A60274B0F22BA1812781A60254B0E22BA1812781A60052000F0C2F80B23FA180D23FB1812781B789A420CD91A4B7A68033A18498A5C1A60052003F0BDFC02E097
:4018C000002000F07BF80C23FB181B78180003F0C0FCC046BD4605B090BDC04640F3FF0F41F3FF0F42F3FF0F43F3FF0F44F3FF0F45F3FF0F46F3FF0F47F3FF0F48F3FF0F4B
:4019000049F3FF0F4AF3FF0F4BF3FF0F4CF3FF0F4DF3FF0FDCB101002CFF0B4028FF0B401CFF0B4020FF0B4080B584B000AF78600023FB60154B154A126801210A431A6055
:40194000134B144A1A60144B134A1268802109020A431A607B68002B12D01023FB600CE0012000F05DF800F019F8031E02D00023FB6005E07B68013B7B607B68002BEFD199
:40198000FB681800BD4604B080BDC04660F02E4078002E400220000010002E4080B582B000AF054B1B68012213407B607B681800BD4602B080BDC0460C002E4080B582B060
:4019C00000AF0200FB1D1A7001BEC046BD4602B080BDC04680B582B000AF786009E00D4B1B68180003F028FC7B680B4A944663447B607A6880231B029A42F0D8074B1B6847
:401A00007A685343180003F017FCC046BD4602B080BDC046200C00200080FFFF180C002080B582B000AF0200BB1D1A80BB1D1B88044A12785343180003F0FEFBC046BD4684
:401A400002B080BD1C0C002080B500AF0F4B0F4A126801218A431A600C4B0C4A126802218A431A600A4B0A4A126830218A4310210A431A60064B064A126807218A430121B9
:401A80000A431A60C046BD4680BDC04600F02E4000FF2E4080B500AF0F4B0F4A126802218A431A600D4B0D4A126807218A4302210A431A60094B094A126830218A43202145
:401AC0000A431A60044B044A126801210A431A60C046BD4680BDC04600F02E4000FF2E4080B500AFFFF7B0FF044B044A1268802109060A431A60C046BD4680BD00F02E404D
:401B000080B584B000AF78600C4B1B6801221340FB607B68002B02D0012B03D005E0FFF793FF06E0FFF7B6FF03E00020FFF746FFC046FB681800BD4604B080BD00F02E401C
:401B400090B583B000AFFC1D03F07FFB03002370074B074A1268C02109020A431A60FB1D1B78180003F075FBC046BD4603B090BD00010B4080B500AF054B1A68C0231B0221
:401B8000134001D0012300E000231800BD4680BD00010B4090B583B000AFFC1D03F055FB030023700D4B0D4A12680D490A408021C9010A431A60094B084A126808490A4067
:401BC000802109020A431A60FB1D1B78180003F040FBC046BD4603B090BDC04600010B40FF3FFFFF80B582B000AF78607B68022B02D90020FFF7E2FE064B1A687B68DB008A
:401C00000133DA401300012213401800BD4602B080BDC04610020B4080B584B000AF786039607B68022B02D90020FFF7C7FE7B681800FFF7D7FF031E16D10D4B1B687A6885
:401C4000D200032191400A00D2431340FB603B6803221A407B68DB009A401300FA681343FB60034BFA681A60C046BD4604B080BD0C020B4080B584B000AF786039607B6807
:401C8000002B02D07B68012B01D1012300E00023002B02D10020FFF791FE7B681800FFF7A1FF031E16D10D4B1B687A68D2000232012191400A00D2431340FB607B68DB00A2
:401CC00002333A689A401300FA681343FB60034BFA681A60C046BD4604B080BD0C020B4080B582B000AF7860144B144A11687A680A431A607B680122134005D0C04600206F
:401D0000FFF770FF031EFAD07A6880235B00134005D0C0460120FFF765FF031EFAD07A6880235B02134005D0C0460220FFF75AFF031EFAD0C046BD4602B080BD10020B401E
:401D400080B584B000AF786039607B68002B02D07B68012B01D1012300E00023002B02D10020FFF72BFE174B1B689B0F9B0701D1C92300E05D231800FFF752FE124B1B6828
:401D8000FB607B681B01114A9A401300DA43FB681340FB600C4B7A68120139689140FA680A431A60074B1B689B0F9B0701D1432300E01F231800FFF733FEC046BD4604B0F5
:401DC00080BDC0460C020B4008020B40FFFF000080B500AF034B1B68034A13401800BD4680BDC04610020B400404040090B585B000AF78600B23FC1803F027FA03002370EB
:401E0000FFF7B8FE031E04D00123FB60FFF7C2FE01E00023FB607B680D4A13407B600D4B0C4A12680C4911407A680A431A60094B1B68FB68012B01D1FFF782FE0B23FB189F
:401E40001B78180003F005FAC046BD4605B090BD0404040010020B40FBFBFBFF80B500AF1E4B00221A701E4B00221A701D4B00221A701D4B00221A701C4B5A881C4B1A80E1
:401E80001A4B9A881A4B5A80184B9A79184B1A73164BDA79164B1A71154B0622DA81144B28221A82124B00225A82114BFA2292009A820F4B0022DA820D4B012252421A8329
:401EC0000C4B1E221A8000F01BF80B4B00221A700A4B00221A70C046BD4680BD752400205C24002073240020722400206C0C002028240020422400201C240020242400204D
:401F000080B500AF0D4B1B88002B05D10C4B0E220021180004F0F8FD084BDB88002B05D1084B06220021180004F0EEFD02F07EFC01F010FFC046BD4680BDC0465C0D00208D
:401F40006424002054240020B0B594B004AF78603E23FB1800221A802823FA183E4B1000190014231A0004F0C6FD3C4B1B78002B04D1FFF773FF394B01221A707B68002BE5
:401F80005FD0374B7A681A603E23FB181B88002B29D11023FB181C22BA185A601023FB182022BA181A601023FB1800221A812023FB181B221A802023FB181B225A80202314
:401FC000FB1804221A711C23FB1808221A703E23FC180E23FA181023FB181100180005F0DFFA030023803E23FB181B88002B2CD13E23FC182823FD18AE231A0119491A48B8
:402000001A4B02931A4B0193052300932B0005F01DFA030023803E23FB181B88002B14D1144B01221A70144B08221A703E23FC18124B0D222021180014F024F803002380AF
:4020400003E03E23FB1801221A803E23FB181B881800BD4610B0B0BD0CB20100A411002020240020C80000204D2A00007902000000C301004C2400204D24002048B201003B
:4020800090B585B000AF0200FB1D1A70FB1D1B78022B04D90E23FB1801221A804AE0294B1B78062B41D1284B1B78DBB21A00042313403AD1FB1D1B78002B0BD1234B1E2297
:4020C0001A82224B5B6820221A80204B5B6830225A8010E0FB1D1B78012B0CD11B4B96221A821A4B5B68C822D2001A80174B5B688022D2015A80164BFA1D12781A700E23D1
:40210000FC18124B180011F075FB030023800E23FB181B88002B0DD10B4B1B78DBB204221343DAB2084B1A7004E00E23FB180422FF321A800E23FB181B881800BD4605B0E4
:4021400090BDC0464C24002075240020580C00207324002080B500AF11F0E4FB054B1B78DBB208221343DAB2024B1A70C046BD4680BDC0467524002080B584B000AF78607C
:402180000A00FB1C1A700023BB60BB68002B20D07B689A79BB681A700F23FB1800221A7012E00F23FB181B780133BA68D3180F22BA18127879688A5C1A700F23FB181A78A4
:4021C0000F23FB1801321A700F23FB181B78052BE7D9C046BD4604B080BDC04690B585B000AF0200FB1D1A70FB1D1B78022B04D90E23FB1801221A8035E0FB1D1B78002BA7
:4022000009D11C4B1E221A811A4B30225A80194B30229A800EE0FB1D1B78012B0AD1154B96221A81134B802212015A80114BE122D2009A80104BFA1D12781A700E23FC18CB
:402240000C4B180011F05CFA030023800E23FB181B88002B07D1094B1B78DBB204221343DAB2064B1A700E23FB181B881800BD4605B090BD6C0C00207224002075240020A6
:4022800080B500AF11F066FA054B1B78DBB208221343DAB2024B1A70C046BD4680BDC0467524002090B585B000AF7860294B1B78062B05D00E23FB180422FF321A8041E01D
:4022C0007B68002B04D10E23FB1801221A8039E00D23FB1800221A7012E00D23FB181B780D22BA1812787968895C1B4AD3180A1C5A710D23FB181A780D23FB1801321A70C3
:402300000D23FB181B78052BE7D97B689A79124BDA720E23FC18104B180011F09FF9030023800E23FB181B88002B0BD1094B05221A700A4B1B88002B04D0084B1B88180049
:402340000EF0FAF80E23FB181B881800BD4605B090BDC0464C240020282400204224002090B583B000AF104B1B78052B04D0BB1D0422FF321A8011E0BC1D11F065F90300D3
:4023800023800A4B1B88002B01D00EF0EFF8BB1D1B88002B02D1044B06221A70BB1D1B881800BD4603B090BD4C2400204224002080B582B000AF78607B681B789AB27B68E8
:4023C00001331B789BB21B029BB213439BB21800BD4602B080BDC04690B585B000AF78600F23FB1800221A707B689B890F22934232D17B68181D7A680F23FC1840230021E6
:4024000013F089FE030023700F23FB181B78002B1AD17B685B681800FFF7CAFF03001A00022313409BB2002B07D00F4B1B687968822252001000984706E00B4B1B687968EA
:402440000622FF3210009847084B1B78DBB201229343DAB2054B1A700F23FB181B781800BD4605B090BDC046202400207524002080B582B000AF78607B68DB880D4A9342CA
:4024800014D10D4B5B88002B08D17B689A880A4B5A807B689A78084B1A7007E0074B1B687A68911D8622520010009847C046BD4602B080BD052A000054240020202400209A
:4024C00080B582B000AF78607B689B880B4A934210D10B4B9B88002B04D17B685A88084B9A8007E0074B1B687A68111D8622520010009847C046BD4602B080BD022900005A
:40250000542400202024002080B582B000AF78600C4B5A887B689B899A420ED10A4B1B6879688322520010009847084B1B78DBB201229343DAB2054B1A70C046BD4602B08A
:4025400080BDC04654240020202400207524002090B585B000AF78600F23FC187B681800FFF73AFF030023701F4B1B78DBB21A00012313400CD00F23FB181B78002B07D18A
:402580000F23FC187B68180001F05EFC03002370154B1B78DBB21A00012313401FD10F23FB181B78002B16D00823FB1812229A707B689A890823FB181A800823FB180F2246
:4025C000BA181278DA700823FA187B681100186812F0DAFA03E07B68186812F04DFBC046BD4605B090BDC0467524002080B582B000AF78607B68002B0AD0074B1B78DBB20C
:402600001A000123134003D07B68180001F09CFDC046BD4602B080BD7524002080B582B000AF7860074B1B78DBB21A000123134003D07B68180002F03DF8C046BD4602B05F
:4026400080BDC0467524002080B582B000AF7860074B1B78DBB21A000123134003D07B68180001F0C1FEC046BD4602B080BDC0467524002080B582B000AF7860074B1B7865
:40268000DBB21A000123134003D07B68180001F0FFFEC046BD4602B080BDC0467524002080B588B000AF78603E4B1B78022B6AD13D4B1B88002B66D00823F9183A4B0222A0
:4026C00008009B180422190004F015FA7B6859687B681B891A000823FB180433180004F00AFA0823FB18180002F014F92E4B1B8801339AB20823FB181A802C4B1B78190027
:402700002B4A0B005B005B185B00D31802331A880823FB185A800823FB181A880823FB185B889A4221D80823F918224B1A785B781B021A4300231204120C1B0C1B041343C5
:40274000180011F0D1FE031E12D01B4B1B6884225200002110009847184B1B78DBB202229343DAB2154B1A7002E0012000F00EFD124B1B78DBB201229343DAB20F4B1A70A6
:40278000094B00221A800D4B1B78DBB21A000123134003D07B68180001F0CEFEC046BD4608B080BD4D240020CC110020742400205C0D0020602400202024002075240020E7
:4027C00080B588B000AF7860394B1B78022B6AD1384B1B88002B66D00823F918354B022208009B180422190004F085F97B6859687B681B891A000823FB180433180004F0CD
:402800007AF90823FB18180002F084F8294B1B8801339AB20823FB181A80274B1B781900264A0B005B005B185B00D31802331A880823FB185A800823FB181A880823FB1838
:402840005B889A4221D80823F9181D4B1A785B781B021A4300231204120C1B0C1B041343180011F041FE031E12D0164B1B6884225200002110009847134B1B78DBB2022241
:402880009343DAB2104B1A7002E0012000F07EFC0D4B1B78DBB201229343DAB20A4B1A70044B00221A80C046BD4608B080BDC0464D240020CC110020742400205C0D0020AA
:4028C00060240020202400207524002080B500AF094B00225A70084B00221A70074B1B78052B03D1054B07221A7002E0034B08221A70C046BD4680BD602400204D240020A9
:4029000080B582B000AF78607B681B78032B3ED1264B1B78DBB21A000223134037D0244B1B78022B10D002DC012B05D024E0032B12D0042B18D01FE01E4B1B680822FF326D
:4029400000211000984717E01A4B1B68842252000021100098470FE0164B1B680A22FF3200211000984707E0124B1B6885225200002110009847C0460C4B1B78DBB20222AF
:402980009343DAB2094B1A70094B00221A707B681B78042B05D1084B1B78052B01D1FFF7DFFCC046BD4602B080BDC046752400204D240020202400204C24002080B500AF83
:4029C000C046BD4680BDC04680B584B000AF78600E23FB1800221A707B689B79002B1CD10F23FB1800221A7012E00F23FB181B787A68D35C002B04D00E23FB1801221A70E0
:402A00000BE00F23FB181A780F23FB1801321A700F23FB181B78052BE7D90E23FB181B781800BD4604B080BD80B582B000AF0200BB1D1A80C046BD4602B080BD80B582B03E
:402A400000AF7860C046BD4602B080BD80B588B000AF02003960FB1D1A70D64B1B78DBB201221343DAB2D34B1A70FB1D1B78FA2B00D955E29A00D04BD3181B689F46102375
:402A8000FB1807221A701023FB1800225A701023FB18180006F094FC1023FB1807221A701023FB1801225A701023FB18180006F087FC0B23002B01D004F08EFCBF4B1B6802
:402AC0001800FFF781FF031E11D0BC4B1B68180004F08EFCB94B1B6800211800FFF74CFBB64B1B6801211800FFF746FB36E0B44B1B781A003F231A40B24B1B789901FC236D
:402B00001B010B401A43B04B1B781903F8235B020B401A43AD4B1B785904FE231B040B401343BB61BB69DAB2A94B1A70BB691B0ADAB2A74B5A70BB691B0CDAB2A44B9A7093
:402B4000A34B180004F054FCA14B00211800FFF713FB9F4B01211800FFF70EFB002010F055FC0C23FB183F221A700C23FB1800225A700C23FB18180010F066FC954B06222F
:402B80001A70D8E13B681800FFF7BAFED3E13B681A78914B1A70CEE13B687B617B691B78002B00D0BEE17B695B78002B0BD18B4B0022DA80894B00229A80884B884A1A609C
:402BC0007B69864A5A607B4B1B78DBB201229343DAB2784B1A70A5E1764B1B78DBB21A002023134000D09FE17E4B1B78102B02D17C4B0522DA707C4B1B787A4A110018005F
:402C000010F0BAFD03001A000A23FB181A800A23FB181B88002B06D0744B1B680A22BA18110036209847634B1B78DBB201221343DAB2604B1A706C4B1B786A4A110018004D
:402C400010F086F970E13B685A78694B1A7072E13B681800FFF7F2FE6DE13B681800FFF7EDFE644B1B88002B01D00DF07FFC594B02221A705FE1574B06221A705BE1554B6B
:402C80001B78022B00D151E14A4B1B78DBB21A000123134000D149E1464B1B78DBB21A00042313400BD04B4B03221A70414B1B78DBB204229343DAB23E4B1A7036E13D4BC5
:402CC0001B78DBB21A00082313400BD0414B06221A70384B1B78DBB208229343DAB2354B1A7023E13B4B1B78032B00D01EE1394B06221A70404B1B78002B00D016E1012049
:402D0000FFF7BEF9031E00D010E1324B03221A700CE1304B1B78022B00D109E1254B1B78DBB21A000123134000D101E1214B1B78DBB21A00042313400BD0264B04221A7005
:402D40001C4B1B78DBB204229343DAB2194B1A70EEE0184B1B78DBB21A00082313400BD01C4B06221A70134B1B78DBB208229343DAB2104B1A70DBE0164B1B78042B00D0DC
:402D8000D6E0144B06221A701C4B1B78002B00D0CEE00120FFF722FA031E00D0C8E00D4B04221A70C4E03B681B881800FFF73CFEC1E0C04675240020D4B40100800C00200E
:402DC0007CF2FF0F7DF2FF0F7BF2FF0F78F2FF0F780C00204C2400205C240020E4110020A80B0020740D002060240020202400202424002042240020732400207224002027
:402E00005A4A3B681000190002231A0003F073FE574B00221A70554B1B784F33DA00554BD3180133544A1000190008231A0003F062FE524B00221A70FFF7C0FD7BE0FFF737
:402E400045FD78E03B685B88162B05D81E23FB183A6852881A8003E01E23FB1817221A801E23FB1819883B681A8800231204120C1B0C1B041343180011F090FE5BE03B68EE
:402E80001800FFF765FB56E03B681800FFF7AEFB51E03B68180000F079F84CE03B68180000F0ACFA47E000F0E1FE44E03B68180000F072FD3FE03B68180000F027FF3AE00C
:402EC0003B681800FFF7C0FB35E03B681800FFF71BFB3B681800FFF7CDFB294B1B78DBB21A000123134025D13B68186811F0C2FA20E03B681800FFF7D3FB1CE03B681800E0
:402F0000FFF75EFC17E03B681800FFF787FB12E01C4B1B7801221343DAB21A4B1A700AE0C04608E0C04606E0C04604E0C04602E0C04600E0C046124B1B78DBB21A001123EA
:402F400013400ED00E4B1B78DBB201229343DAB20B4B1A700C4B1B68FA1D1278396810009847C046BD4608B080BDC046602400205C24002000C30100442400204D24002012
:402F8000752400201C2400202024002080B586B000AF78600023FB60774B1B78012B00D0E6E0764B1B78DBB21A000223134000D1DEE00A23FB187A6812891A800A23FB1874
:402FC0001B88062B05D00A23FB181B88142B00D0C7E00823FB187A6852891A801423FB1800221A80ABE07B685A681423FB181B88D318FB601323FB1800221A70FB681A8897
:403000005F4B1B889A4200D27CE0FB681A885C4B5B889A4200D975E00A23FB181B88062B00D068E0FB6801221A751623FB1800221A8055E01623FB181A88524913005B002B
:403040009B185B00CB1804331A88FB689B889A423FD11623FB181A884A4913005B009B185B005B5A002B13D11623FB181A88454913005B009B185B00FA68CB1811000422DF
:40308000180003F038FD1323FB1801221A7020E01623FB181B88022B0FD81623FB181B885A1C384913005B009B185B00CB1804331A88FB689B889A420BD0334B1B68FA6819
:4030C000111D0C22FF32100098471323FB1801221A701623FB181A881623FB1801321A801623FB181B88032B0CD81323FB181B78002B9FD006E0FB6802221A75FB68180069
:4031000001F008FC1323FB181B78002B0DD11B4B1B78DBB21A000123134006D01A4B1B68F9681222FF32100098471423FB181422B9180A22BA18098812888A181A8014233E
:40314000FA180823FB1812881B889A4200D24AE70A4B1B78DBB201229343DAB2074B1A7006E0094B1B680822FF32002110009847C046BD4606B080BD4D240020752400209F
:40318000502400205C0D00202024002080B582B000AF0200FB1D1A70FB1D1B78002B06D0344B1B780133DAB2324B1A700CE0314B00221A70304B00221A8005E02D4B1B7814
:4031C0000133DAB22B4B1A702A4B1B78032B19D8284B1B781900294A0B005B005B185B009A5A274B1B889A42E8D3224B1B781900224A0B005B005B185B009A5A204B5B8887
:403200009A42DBD81B4B1B78032B28D8194B1B781A0013005B009B185B00184A9918194B1A785B781B021A4300231204120C1B0C1B041343180011F057F9031E15D0124B36
:403240001B68842252000021100098470F4B1B78DBB202229343DAB20C4B1A7005E00C4B03221A70002000F0BBFAC046BD4602B080BDC04674240020CC1100205C0D0020F6
:40328000502400206024002020240020752400204D24002080B582B000AF78607B68DB884F4A934200D184E04D4A93420BDC4D4A934224D04B4A934200DD68E0A8229201B2
:4032C00093420AD087E0484A93423CD0474A93424BD0474A934224D07DE0464B1B88002B04D17B689A88434B1A8074E0424B1B687A68911D86225200100098476BE03D4BFC
:403300005B88002B04D17B689A883A4B5A8062E0394B1B687A68911D862252001000984759E0344B1B89002B04D17B689A88314B1A8150E0304B1B687A68911D8622520054
:403340001000984747E02B4B5B89002B04D17B689A88284B5A813EE0274B1B687A68911D862252001000984735E0224B9B89002B04D17B689A881F4B9A812CE01E4B1B68D6
:403380007A68911D862252001000984723E0194B9B88002B04D17B689A88164B9A801AE0154B1B687A68911D862252001000984711E0104BDB88002B04D17B689A880D4B28
:4033C000DA8007E00C4B1B687A68911D8622520010009847C046C046BD4602B080BDC046032A0000012A0000A62A0000C92A0000042A0000642400202024002090B593B058
:4034000000AF7860CA4B1B78DBB21A000223134000D1D9E13E23FB187A6812891A803C23FB187A6852891A807B685B683B64C14B1B78032B00D0CFE04623FB1800221A8096
:40344000C0E03B6C1800FEF7B3FF03001A002423FB181A803B6C02333B643B6C1A782423FB189A703B6C01333B643B6C1800FEF79FFF03001A002423FB189A803B6C0233E4
:403480003B643E23FB181B88152B33D12423FB1802229A752423FB180622396C9B181022180003F028FB3B6C10333B64A24B1B781900A24A0B005B005B185B00D3180433E7
:4034C0001B881A009E4B9A4265D09B4B1B78012B63D9994B1B78022B5FD8974B1B789BB2023B9BB22422BA181100180001F07AFAC04652E03E23FB181B88072B50D124237E
:40350000FB1801229A753B6C1800FEF751FF03001A002423FB18DA803B6C02333B64864B1B781900854A0B005B005B185B00D31804331B88834A93420CD0834A93420FD0B2
:40354000C0225201934211D12423FB181800FFF7A1FE25E02423FB181800FEF789FF1FE02423FB18180000F05BFE19E0724B1B78012B14D9704B1B78022B10D86E4B1B7899
:403580009BB2023B9BB22422BA181100180001F029FAC04603E0C04602E0C04600E0C046634B1B78DBB201229343DAB2604B1A704623FB184622B9183E22BA180988128888
:4035C0008A181A804623FA183C23FB1812881B889A4200D235E7F7E0564B1B78022B00D0F2E04623FB1800221A80E4E03B6C1800FEF7DEFE03001A000C23FB181A803B6C95
:4036000002333B643B6C1800FEF7D2FE03001A000C23FB185A803B6C02333B643B6C1800FEF7C6FE03001A000C23FB189A803B6C02333B643E23FB181B88062B30D10C239A
:40364000FB1802229A7510F0CDFF0C23FB1859883E4B1A785B781B021A4300231204120C1B0C1B041343180010F05CFF031E07D1374B0C22BA1813CA13C313CA13C388E0FE
:40368000344B1B6884225200002110009847284B1B78DBB202229343DAB2254B1A7078E03E23FB181B88082B00D072E00C23FB1801229A753B6C1800FEF77AFE03001A006C
:4036C0000C23FB18DA803B6C02333B644423FB1800221A8047E04423FB181A88174913005B009B185B00CB1804331A880C23FB18DB889A4230D14423FB181A880F49130099
:403700005B009B185B005B5A002B25D14423FB181A880A4913005B009B185B000C22BA180220CB1811180422180003F0E4F91FE0752400204D240020742400205C0D002099
:40374000FEFF0000011800000918000060240020CC110020202400204423FB181A884423FB1801321A804423FB181B88032BB2D9174B1B781900174A0B005B005B185B0031
:40378000D31804331B881A00134B9A4200D000E0C046124B1B78DBB201229343DAB20F4B1A704623FB184622B9183E22BA18098812888A181A804623FA183C23FB1812887F
:4037C0001B889A4200D211E7C046BD4613B090BD742400205C0D0020121800007524002080B582B000AF0200FB1D1A70FB1D1B78002B06D0354B1B780133DAB2334B1A7002
:4038000009E0324B00221A7005E0304B1B780133DAB22E4B1A702D4B1B78032B19D82B4B1B7819002A4A0B005B005B185B009A5A284B1B889A42E8D3244B1B781900244AA2
:403840000B005B005B185B009A5A224B5B889A42DBD81E4B1B78032B2DD81C4B1B781A001B4913005B009B185B001B4A585ACB185B881B04034319001378527812021A43FD
:4038800000231204120C1B0C1B041343180010F00FFE031E15D0114B1B680A22FF320021100098470E4B1B78DBB202229343DAB20B4B1A7005E00B4B04221A70002000F0C4
:4038C00025F9C046BD4602B080BDC046742400205C0D0020502400206024002020240020752400204D24002080B582B000AF3B0000221A803B0000225A80234B1B78002B15
:4039000009D1224B5B8801339AB23B001A80204B1A893B005A801C4B1B78012B1FD91A4B1B78052B1BD8184B1B789A1E194913009B009B185B00CB1804331B8801339AB2A3
:403940003B001A80104B1B789A1E124913009B009B185B00CB1806331A883B005A803B1D3A0012681A603A1D002311880904090C1B0C1B040B43528812041B041B0C134307
:403980001800BD4602B080BD74240020542400205C0D00207824002080B58CB000AF78600C23FB1800225A80554B1B78042B00D0A2E0544B1B78DBB21A000223134000D15C
:4039C0009AE02623FB187A6812891A807B681A7B0C23FB181A750C23FB187A6812881A800C23FB181B7D012B04D12E23FB1804221A8003E02E23FB1812221A807B685B687F
:403A0000BB622C23FB1800221A8065E0BB6A1800FEF7CEFC03001A000C23FB185A80BB6A0233BB620C23FB181B7D022B15D10C23FB18BA6A043311001022180003F05BF82F
:403A4000BB6A1033BB62304B1B78012B3AD10C23FB18180001F08CF934E0BB6A1800FEF7A7FC03001A000C23FB189A80BB6A0233BB62254B1B78002B04D10C23FB18180076
:403A8000FEF71EFD204B1B78012B04D10C23FB18180001F06DF91C4B1B78012B12D91A4B1B78052B0ED8184B1A782523FB18023A1A700C23FA182523FB181B7811001800B9
:403AC00000F03CFC2C23FB182C22B9182E22BA18098812888A181A802C23FA182623FB1812881B889A4291D3064B1B78DBB201229343DAB2034B1A70C046BD460CB080BD8A
:403B00004D240020752400207424002080B584B000AF0200FB1D1A700C23FB1800221A800C23FB1800225A804A4B1B78012B17D0FB1D1B78002B0DD0464B1B780133DAB2B9
:403B4000444B1A70434B1B78012B09D1FB1D00221A7005E03F4B00221A70FB1D01221A703C4B1B78012B0CD1FB1D1B78180001F03DF803001A000C23FB181A60FB1D012241
:403B80001A70344B1B78012B06D0FFF7ADFE03001A000C23FB181A600C23FB181A882E4B1B889A4215D90C23FB181A882A4B5B889A420ED80C23FB185A88274B1B889A4210
:403BC00007D30C23FB181A880C23FB185B889A4203D9204B1B78052BA6D91E4B1B78052B21D80C23F9181D4B1A785B781B021A4300231204120C1B0C1B041343180010F0C6
:403C000041FC031E21D0164B1B6885225200002110009847134B1B78DBB202229343DAB2104B1A7011E0104B05221A700C4B1B68892252000021100098470A4B1B78DBB206
:403C400002229343DAB2074B1A70C046BD4604B080BDC04674240020502400206024002020240020752400204D24002080B500AF244B1B78DBB21A00022313403FD0224BC3
:403C80001B78022B17D002DC012B05D037E0032B1DD0042B27D032E01B4B02221A700020FFF774FA174B1B78DBB201229343DAB2144B1A7023E00120FFF768FA114B1B7821
:403CC000DBB201229343DAB20E4B1A7017E00120FFF786FD0B4B1B78DBB201229343DAB2084B1A700BE00120FFF710FF054B1B78DBB201229343DAB2024B1A70C046C0467D
:403D0000BD4680BD752400204D24002080B582B000AF78600E4B1B78DBB21A000223134006D07B689B790A2B02D1FFF79FFF0AE0074B1B78DBB21A000123134003D07B68F4
:403D4000180000F05DFDC046BD4602B080BDC0467524002080B500AF094B00221A80094B5B8A002B05D1084B28220021180002F0CBFE064B00221A80C046BD4680BDC04612
:403D8000F01100205C0D002078240020F211002090B587B000AF0400080011003B60FB1D221C1A70BB1D021C1A707B1D0A1C1A701623FB1800221A80FB1D1B78032B03D833
:403DC000BB1D1B78012B04D91623FB1801221A8030E0FB1D1A78BB1D18781A4913005B009B181B185B00CB1804331A880823FB181A810823FB181B89002B17D07B1D1B785E
:403E00009AB20823FB189A800823FB183A681A600823FB1800220021180012F04BF9031E08D01623FB1801221A8003E01623FB1801221A801623FB181B881800BD4607B0F6
:403E400090BDC046C0B8010090B589B000AF78601E23FB1800221A701D23FB1800221A70B34B1B68002B00D15BE11F23FB1800221A704BE17B6899891F23FB181A78AD48AB
:403E800013005B009B185B00C31804331B8899420FD07B6899891F23FB181A78A54813005B009B185B00C31802331B88994200D025E10C23FB187A6812881A800C23FB18C4
:403EC0001F22BA1812789A707B681A1D0C23FB185A607B6899891F23FB181A78954813005B009B185B00C31802331B88994200D073E01F23FB181B78032B4ED17B685B6834
:403F00001A22BC181800FEF753FA030023801A23FB181B88002B40D00823FA181F23FB181878130004220121FFF732FF031E34D11823FC180823FB181800FEF739FA0300A9
:403F400023800823FB1802331622BC181800FEF72FFA030023807B685B681A22BC181800FEF726FA030023801A23FB181B88002B13D01A23FA181823FB1812881B889A4203
:403F800007D31A23FA181623FB1812881B889A4203D91E23FB1880221A701E23FB181B78002B00D09FE07B68181D7A681E23FC184023002112F0AFF8030023701E23FB1850
:403FC0001B78002B00D08EE0594B1B680C22B918DB2252001000984785E07B68181D7A681E23FC184023002112F095F8030023701E23FB181B78002B00D074E01F23FB1879
:404000001A784C4913005B009B185B00CB1802331B885A1E484913009B009B189B00CB1804331A6880235B0313401CD07B685B681800FEF7BDF903001A00012313409BB2F7
:40404000002B08D03A4B1B680C22B918B222FF321000984707E0364B1B680C22B918D9225200100098471F23FB181A78314913005B009B185B00CB1802331B885A1E2E4995
:4040800013009B009B189B00CB1804331A6880239B0313401CD07B685B681800FEF788F903001A00022313409BB2002B08D0204B1B680C22B918B422FF321000984707E005
:4040C0001B4B1B680C22B918DA225200100098471A4B1B78012B06D1194B1B7802221343DAB2174B1A70174B1B78DBB201229343DAB2144B1A701D23FB1801221A701F2385
:40410000FB181A781F23FB1801321A701F23FB181B78032B05D81D23FB181B78002B00D1A8E61E23FB181B781800BD4609B090BDEC110020C0B8010048B201002424002064
:404140001C2400207524002080B586B000AF78601623FB1800221A702D4B1B68002B52D02C4B1B88002B4ED01723FB1800221A703FE01723FB181A78274913005B009B1809
:404180005B00CB1802331A88224B1B889A4229D10C23FA187B681000190002231A0002F0AAFC0C23FB181722BA1812789A700C23FB1800225A60194B1B78DBB20122934364
:4041C000DAB2164B1A70134B00221A80104B1B680C22B918B622FF32100098471623FB1801221A701723FB181A781723FB1801321A701723FB181B78032B04D81623FB1841
:404200001B78002BB5D0C046BD4606B080BDC046EC110020F0110020C0B801007524002080B584B000AF78603E4B1B68002B09D03C4B1B687A681288013A92B21A80394BA6
:4042400000221A600F23FB1800221A704FE00F23FB181A78344B5200D25A7B68DB889A423ED10F23FB181A78304913009B009B185B00CB1804331B88002B1CD10F23FB1857
:404280001A787B689888294913009B009B185B00CB180433021C1A800F23FB181A787B689878224913009B009B185B00CB180833021C1A7007E01E4B1B687A68911D8622A7
:4042C0005200100098470F23FB181A7813009B009B185B00154A9B189A1D124B1A600BE00F23FB181A780F23FB1801321A700F23FB181B78032BAAD90A4B1B68002B0DD01D
:40430000084B1A680B4B1B7818000B4903005B001B185B00CB1802331B881380C046BD4604B080BDF4110020DCB801007824002020240020742400205C0D002090B585B08A
:4043400000AF02003960FB1D1A703B689B88224A934204D10F23FB1800221A700DE03B689B881E4A934204D10F23FB1801221A7003E00F23FB1802221A700F23FB181B781F
:40438000012B25D8FB1D1A780F23FB181878144913009B009B181B185B005B5A002B0FD1FB1D1A780F23FB1818783B685C880C4913009B009B181B185B00221C5A5207E02E
:4043C000084B1B683A68111D0E22FF3210009847C046BD4605B090BD0229000006290000782400202024002080B586B000AF7860244B1B68002B41D01723FB1800221A7029
:4044000037E01723FB181A781F4913009B009B185B00CB1804331A887B689B899A4221D10C23FB187A6812881A800C23FB181722BA1812789A707B681A1D0C23FB185A6082
:40444000104B1B680C22B918B822FF32100098470E4B1B78DBB201229343DAB20B4B1A70C0460BE01723FB181A781723FB1801321A701723FB181B78032BC2D9C046BD46FB
:4044800006B080BDEC110020782400207524002080B586B000AF7860244B1B68002B41D01723FB1800221A7037E01723FB181A781F4913009B009B185B00CB1804331A8888
:4044C0007B689B899A4221D10C23FB187A6812881A800C23FB181722BA1812789A707B681A1D0C23FB185A60104B1B680C22B918DC225200100098470E4B1B78DBB20122E0
:404500009343DAB20B4B1A70C0460BE01723FB181A781723FB1801321A701723FB181B78032BC2D9C046BD4606B080BDEC110020782400207524002080B588B000AF786034
:404540001F23FB1800221A70564B1B68002B00D1A3E0554B1B88002B00D19EE01E23FB1800221A7081E01E23FB181A784F4913009B009B185B00CB1804331A884A4B1B884B
:404580009A421FD11423FB187A6812881A801423FB181E22BA1812789A707B681A1D1423FB185A60404B00221A803E4B1B681422B918BA22FF32100098471F23FB180122F3
:4045C0001A704BE01D23FB1800221A703CE01E23FB181A781D23FB181878344913009B009B181B185B005A5A2F4B1B889A4224D10C23FB187A6812881A800C23FB181E223A
:40460000BA1812789A700C23FB181D22BA181278DA707B681A1D0C23FB185A60224B00221A80204B1B680C22B918BC22FF32100098471F23FB1801221A701D23FB181A78DC
:404640001D23FB1801321A701D23FB181B78012B04D81F23FB181B78002BB8D01E23FB181A781E23FB1801321A701E23FB181B78032B05D81F23FB181B78002B00D172E77B
:404680001F23FB181B78002B07D0094B1B78DBB201229343DAB2064B1A70C046BD4608B080BDC046EC110020F2110020782400207524002080B588B000AF78601F23FB183A
:4046C00000221A704A4B1B68002B00D18CE0494B1B88002B00D187E01E23FB1800221A706BE01E23FB181A78434913009B009B185B00CB1804331A883E4B1B889A4222D1C4
:404700001423FA187B681000190002231A0002F0F2F91423FB181E22BA1812789A701423FB1800225A60334B00221A80304B1B681422B918DD225200100098471F23FB181E
:4047400001221A7032E01E23FB181A782A4913009B009B185B005A5A264B1B889A4225D10C23FA187B681000190002231A0002F0C2F90C23FB181E22BA1812789A700C237B
:40478000FB180022DA700C23FB1800225A60194B00221A80164B1B680C22B918DE225200100098471F23FB1801221A701E23FB181A781E23FB1801321A701E23FB181B7838
:4047C000032B04D81F23FB181B78002B89D01F23FB181B78002B07D0084B1B78DBB201229343DAB2054B1A70C046BD4608B080BDEC110020F21100207824002075240020D4
:4048000080B582B000AF78607B68002B08D07B689A88054B1B889A4202D1034B00221A80C046BD4602B080BDF211002080B582B000AFBB1D00221A8060E0BB1D1B889A1CBD
:40484000324913005B009B185B005B5A002B50D13B1D00221A8040E0BB1D1B882C4A1B01D3180C331A683B1D1B881B01D31800221A80BB1C00221A8019E0BB1D1B88244A20
:404880001B01D3180C331A683B1D1B881B01D318D968BB1C1A8813005B009B189B00CB1800221A80BB1C1A88BB1C01321A80BB1D1B88174A1B01D3180C331A683B1D1B885D
:4048C0001B01D3189B7A9BB2BA1C12889A42D4D33B1D1A883B1D01321A80BB1D1B880C4A1B01D31809331B789BB23A1D12889A42B2D3BB1D1A88BB1D01321A80BB1D1B885D
:40490000002B9AD0C046BD4602B080BD5C0D0020980D002080B584B000AF78600D23FB1800221A700E23FB1800221A8046E00E23FB181B88284A1B01D31808331B78022B3C
:4049400035D10E23FB181B88234A1B01D318043318687B6804331022190002F0BDF8031E25D10E23FB181B889A1C1C4913005B009B185B005B5A002B19D10E23FB181B88CD
:404980009A1C164913005B009B185B007A68CB1811000422180002F0AEF8114B1B780133DAB20F4B1A700D23FB1801221A700E23FB181A880E23FB1801321A800E23FB18FC
:4049C0001B88002B04D10D23FB181B78002BAED0C046BD4604B080BD980D00205C0D00207424002080B584B000AF02003960BB1D1A800D23FB1800221A70774B1B68002B11
:404A00000FD0764B1B88BA1D12889A4206D1724B1B683A681288013A92B21A806E4B00221A600E23FB1800221A80ABE00C23FB1800221A703B689B7D022B27D1BB1D1B8851
:404A4000674A1B01D3180C331A680E23FB181B881B01D3181B7A022B18D1BB1D1B88604A1B01D3180C331A680E23FB181B881B01D31858683B6806331022190002F02CF84C
:404A8000031E03D10C23FB1801221A703B689B7D012B27D1BB1D1B88514A1B01D3180C331A680E23FB181B881B01D3181B7A012B18D1BB1D1B884A4A1B01D3180C331A68E6
:404AC0000E23FB181B881B01D31858683B6806330222190002F000F8031E03D10C23FB1801221A700C23FB181B78012B43D1BB1D1B883B4A1B01D3180C331A680E23FB1800
:404B00001B881B01D3181B88002B34D1BB1D1B88334A1B01D3180C331A680E23FB181B881B01D3183A6892881A80BB1D1B882C4A1B01D3180C331A680E23FB181B881B0138
:404B4000D3183A6892785A72BB1D1B88244A1B01D3180C331A680E23FB181B881B01D3189A1C1D4B1A601D4BBA1D12881A800D23FB1801221A700E23FB181A880E23FB180E
:404B800001321A80BB1D1B88154A1B01D31809331B789BB20E22BA1812889A4205D20D23FB181B78002B00D140E70B4B1B68002B0DD0094B1A680B4B1B7818000A490300D5
:404BC0005B001B185B00CB1802331B881380C046BD4604B080BDC046FC11002000120020980D0020742400205C0D002080B584B000AF0200FB1D1A700823FB1800221A8063
:404C00000823FB1800225A80FB1D1B78002B2DD0524B1B880133524A1288524912018A1809321278934206D24C4B1B8801339AB24A4B1A8023E04A4B1B88013309D1484B36
:404C40001B8801339AB2464B1A80444B00221A8015E0454B1B780133DAB2434B1A703F4B1B8801339AB23D4B1A8008E03C4B00221A803A4B00221A80FB1D01221A70384B28
:404C80001B88384A1B01D31809331B789AB2334B1B889A421FD9324B1B88324A1B01D3180C331A682D4B1B881B01D3181B8801339AB20823FB181A80294B1B88294A1B0191
:404CC000D3180C331A68254B1B881B01D3185A880823FB185A800823FB181A88234B1B889A4215D90823FB181A88204B5B889A420ED80823FB185A881C4B1B889A4207D369
:404D00000823FB181A880823FB185B889A420CD9134B1B88134A1B01D31809331B789AB20E4B1B889A4200D96EE70C23FB180822BA1812681A600C23FA18002311880904EF
:404D4000090C1B0C1B040B43528812041B041B0C13431800BD4604B080BDC046FA110020F8110020980D0020742400205024002080B584B000AF78600E23FB1800221A70A7
:404D80000F23FB1800221A70B9E00D23FB1800221A707B681B7D022B37D1664B1B88664A1B01D3180C331A68644B1B881B01D318D9680F23FB181A7813005B009B189B00D1
:404DC000CB181B7A022B20D15A4B1B885A4A1B01D3180C331A68594B1B881B01D318D9680F23FB181A7813005B009B189B00CB1858687B6804331022190001F06DFE031EC2
:404E000003D10D23FB1801221A707B681B7D012B37D1484B1B88484A1B01D3180C331A68464B1B881B01D318D9680F23FB181A7813005B009B189B00CB181B7A012B20D1CB
:404E40003C4B1B883C4A1B01D3180C331A683B4B1B881B01D318D9680F23FB181A7813005B009B189B00CB1858687B6804330222190001F031FE031E03D10D23FB18012241
:404E80001A700D23FB181B78012B31D1294B1B88294A1B01D3180C331A68284B1B881B01D318D9680F23FB181A7813005B009B189B00CB181B88002B1AD11E4B1B881E4A11
:404EC0001B01D3180C331A681C4B1B881B01D318D9680F23FB181A7813005B009B189B00CB187A6852881A800E23FB1801221A700F23FB181A780F23FB1801321A700D4BAA
:404F00001B880D4A1B01D3180C331A680B4B1B881B01D3189B7A0F22BA1812789A4205D20E23FB181B78002B00D12EE7C046BD4604B080BDF8110020980D0020FA1100205F
:404F400080B582B000AF786000F050F87B68180000F00AF8032000F015F800F03BF8C046BD4602B080BDC04680B582B000AF7860034B7A681A66C046BD4602B080BDC04641
:404F80000000002090B585B000AF0200FB1D1A700623FB600B23FC1800F057F9030023700B4B0B4A1268C0218A431100FA1D1078FA68904002000A431A600B23FB181B7816
:404FC000180000F046F9C046BD4605B090BDC04608E400E080B500AF034B802252001A60C046BD4680BDC04600E100E080B500AF034B802252001A60C046BD4680BDC046F4
:4050000080E100E080B500AF034B802252001A60C046BD4680BDC04680E200E080B500AF00F036F8C046BD4680BDC04680B500AF064B064A1268802109060A431A6000F04D
:4050400019F800F01DF8C046BD4680BD0000244080B500AF064B1B78002B04D1FFF7DEFF034B01221A70FFF7E1FFC046BD4680BD0212002080B500AFC046BD4680BDC0465A
:4050800080B500AF00F066F8C046BD4680BDC04680B500AF1B4B1C4A1A601C4B00221A601B4B1C4A1A601C4B1C4A1A601C4B07221A601C4B00221A601B4B01221A601B4B42
:4050C000164A1A601A4B00221A601A4B04221A60194B00221A60194B00221A60184B00221A60184B00221A60174B00221A60174B00221A60154B1B689AB2154B1A80C046A7
:40510000BD4680BD000024400B000002400024404800244001000A000003244007000080040324401003244044002440000224400402244050002440880E2440C80E244033
:40514000480F2440080F2440C80F2440880F24400412002080B500AF074B074A126807490A40902109040A431A60054B054A12881A60C046BD4680BD00010240FFFF0FFF25
:40518000880F24400412002080B584B000AF78600023FB6009E07A68FB68D3181B78180000F05AF8FB680133FB607A68FB68D3181B78002BEFD1C046BD4604B080BDC046AA
:4051C00080B582B000AF78607B68180000F044F80D2000F041F80A2000F03EF8C046BD4602B080BD80B584B000AF0200FB1D1A700F4B1B68DAB20F23FB1840218A431A70DA
:40520000FB1D1B789B01DBB240221340D9B20F23FB180F22BA1812780A431A70044B0F22BA1812781A60C046BD4604B080BDC04600030440000000000230800803D001384E
:40524000FDD1C046C046C0467047EFF3108072B6704780F31088704780B582B000AF7860C046064B1B681F221340082BF9D0044B7A681A60C046BD4602B080BD080224401B
:405280004002244090B583B000AFFC1DFFF7DDFF03002370074B074A126804218A431A6030BFFB1D1B781800FFF7D3FFC046BD4603B090BD10ED00E080B582B000AF7860C9
:4052C0000A00BB1C1A80BB1C1A887B681A60C046BD4602B080BDC04680B582B000AF78600A00BB1C1A80BB1C1A887B681A60C046BD4602B080BDC04680B584B000AF494B76
:405300001B78DBB21B02484A1278D2B21343FB60464B1B78DBB21B02454A1278D2B21343BB60BB68434A934207D1FB68072B04D1414BBB600423FB6009E0BA68D4231B01F5
:405340009A4204D1FB68042B01D13B4BBB603B4BBA681A603A4BFA681A603A4B1B78DBB21B02394A1278D2B21343FB60FA6880239B019A4202D0FB68002B01D1334BFB6068
:40538000334BFA681A60334B1B78DBB21B02324A1278D2B21343FB60FB68304A934206D0FB682F4A934202D0FB68052B01D12D4BFB602D4BFA681A602C4B1B681B097B600D
:4053C0002B4B1B68AA2B29D17B68012B26D9214B1B78DBB20E2B21D1264B1B78DBB29BB21B0299B2244B1B78DBB29AB2BB1C0A431A80224BBA1C12881A60214B1B78DBB25E
:405400009BB21B0299B21F4B1B78DBB29AB23B000A431A801C4B3A0012881A60C046BD4604B080BD59F1FF0F58F1FF0F5FF1FF0F5EF1FF0F580B0000580D00006C002E4004
:4054400074002E405BF1FF0F5AF1FF0F0220000078002E405DF1FF0F5CF1FF0F0F0F000005050000050F000080002E40EC0F00F0E00F00F06DF2FF0F6CF2FF0F84002E4019
:405480006FF2FF0F6EF2FF0F94002E4080B582B000AF0200BB1D1A80BB1D1B881800FCF7BFFAC046BD4602B080BDC04680B582B000AF78607B681800FCF78CFAC046BD46DB
:4054C00002B080BD80B500AF00F0ECF8C046BD4680BDC04680B500AF00F0F0F8C046BD4680BDC04680B500AF00F0E8F8044B180000F0A2F8032000F0ADF8C046BD4680BD0E
:40550000D556000080B500AF034B180000F080F8C046BD4680BDC046D556000080B500AF014B1800BD4680BD0202000080B582B000AF78602B231800BD4602B080BDC0463F
:4055400080B582B000AF78602B231800BD4602B080BDC04680B582B000AF78602B231800BD4602B080BDC04680B582B000AF78602B231800BD4602B080BDC04680B582B0E0
:4055800000AF78602B231800BD4602B080BDC04680B582B000AF78602B231800BD4602B080BDC04680B582B000AF78602B231800BD4602B080BDC04680B582B000AF786080
:4055C0002B231800BD4602B080BDC04680B500AF2B231800BD4680BD80B582B000AF0200FB1D1A702B231800BD4602B080BDC04680B582B000AF786039602B231800BD46BB
:4056000002B080BD80B500AFC046BD4680BDC04680B582B000AF786000F050F87B68180000F00AF8032000F015F800F03BF8C046BD4602B080BDC04680B582B000AF786009
:40564000034B7A681A67C046BD4602B080BDC0460000002090B585B000AF0200FB1D1A700623FB600B23FC18FFF7EFFD030023700B4B0B4A1268C0218A431100FA1D1078CD
:40568000FA68904002000A431A600B23FB181B781800FFF7DEFDC046BD4605B090BDC0460CE400E080B500AF034B802252011A60C046BD4680BDC04600E100E080B500AFBF
:4056C000034B802252011A60C046BD4680BDC04680E100E080B500AF15F036FBC046BD4680BDC046002243088B4274D303098B425FD3030A8B4244D3030B8B4228D3030C98
:405700008B420DD3FF22090212BA030C8B4202D31212090265D0030B8B4219D300E0090AC30B8B4201D3CB03C01A5241830B8B4201D38B03C01A5241430B8B4201D34B03E4
:40574000C01A5241030B8B4201D30B03C01A5241C30A8B4201D3CB02C01A5241830A8B4201D38B02C01A5241430A8B4201D34B02C01A5241030A8B4201D30B02C01A5241F2
:40578000CDD2C3098B4201D3CB01C01A524183098B4201D38B01C01A524143098B4201D34B01C01A524103098B4201D30B01C01A5241C3088B4201D3CB00C01A5241830883
:4057C0008B4201D38B00C01A524143088B4201D34B00C01A5241411A00D20146524110467047FFE701B5002000F0F0F802BDC0460029F7D076E7704703460B437FD40022EF
:4058000043088B4274D303098B425FD3030A8B4244D3030B8B4228D3030C8B420DD3FF22090212BA030C8B4202D31212090265D0030B8B4219D300E0090AC30B8B4201D345
:40584000CB03C01A5241830B8B4201D38B03C01A5241430B8B4201D34B03C01A5241030B8B4201D30B03C01A5241C30A8B4201D3CB02C01A5241830A8B4201D38B02C01AB2
:405880005241430A8B4201D34B02C01A5241030A8B4201D30B02C01A5241CDD2C3098B4201D3CB01C01A524183098B4201D38B01C01A524143098B4201D34B01C01A524174
:4058C00003098B4201D30B01C01A5241C3088B4201D3CB00C01A524183088B4201D38B00C01A524143088B4201D34B00C01A5241411A00D201465241104670475DE0CA0FEC
:4059000000D04942031000D34042534000229C4603098B422DD3030A8B4212D3FC22890112BA030A8B420CD3890192118B4208D3890192118B4204D389013AD0921100E08B
:405940008909C3098B4201D3CB01C01A524183098B4201D38B01C01A524143098B4201D34B01C01A524103098B4201D30B01C01A5241C3088B4201D3CB00C01A52418308CE
:405980008B4201D38B00C01A5241D9D243088B4201D34B00C01A5241411A00D20146634652415B10104601D34042002B00D54942704763465B1000D3404201B5002000F0C7
:4059C00005F802BD0029F8D016E770477047C0468446081C6146FFE71FB500F0B7F8002801D40021C8421FBD10B500F043F84042013010BD10B500F0A9F8002801DB0020AD
:405A000010BD012010BDC04610B500F09FF8002801DD002010BD012010BDC04610B500F051F8002801DC002010BD012010BDC04610B500F047F8002801DA002010BD012089
:405A400010BDC0469E2110B5C905041CFFF7F0FF002803D1201C00F057FB10BD9E21201CC90500F0CBF900F04FFB80231B069C466044F2E7430270B542004C005D0AC30FAA
:405A80004802120E460A240EC90FFF2A0FD0FF2C11D00120A24200D070BDB542FCD18B420DD0002AF8D12800431E9841F4E70120002DF1D1EBE70120002EEDD1E9E700208F
:405AC000EAE7C0464302F0B542005D0AC30F4802440A4800120E000EC90FFF2A1FD0FF2822D0002A09D16E426E4100280FD1002C0DD10020002D09D005E0002801D1002CAD
:405B000001D08B4213D0584201231843F0BD002EF7D048424141012049420843F6E7002DDDD002204042F1E7002CDAD0F9E78242E9DC04DBA542E6D80020A542E6D25842D7
:405B4000434101205B421843E0E7C0464302F0B542004C005E0AC30F4802120E450A240EC90FFF2A17D0FF2C19D0002A0BD170427041002C17D0002807D04842414101207A
:405B800049420843F0BD002C13D08B4214D0584201231843F6E70220002EF3D1E3E70220002DEFD1E1E7002DE5D10020002EE9D0EDE7002DE9D1EAE7A242E8DC04DBAE420A
:405BC000E5D80020AE42DDD25842434101205B421843D7E7F0B557464E4645464300E0B446028846760A1F0EC40F002F47D0FF2F25D0002380259A469946F600ED042E431E
:405C00007F3F434642465D02D20F5B006D0A1B0E904640D0FF2B39D080220020ED00D20415437F3BFB1842465746591C62408C4607430F2F5CD86F49BF00C9598F46002E31
:405C400045D108239A46063B9946DAE7424602282DD0032800D1C3E0012800D0A2E0002500260240D4B27602ED05760A2E43E407264330001CBC90469946A246F0BD002E17
:405C80001AD104239A46033B9946BAE72A00511E8A41901CC6E70120002DC3D0280000F0D1FE431F76309D4043420020BAE70124FF2514400026D6E7300000F0C3FE431FC1
:405CC0009E400023763047429A46994699E70C239A46093B994694E780260024F603FF25C1E735004846B2E7350022004846AEE72904090C0800370C3604360C2C0C794326
:405D0000704367437443060C64183619B14203D980214902884647440004000C310409188D01681E8541890E2943350CED19AD010D43290104D5012369081D4063460D43E8
:405D400019007F31002925DD680704D00F202840042800D00435280103D5274980330D401900FE29A3DC0124AD016E0A1440CDB279E78020C003064207D0054205D1284368
:405D80004602760A4446FF256DE706437602760AFF2568E70124611A1B2905DD14400025002660E76346CBE72E002023CE40591A8D406B1E9D412E43730704D00F233340D4
:405DC000042B00D00436730104D5012401251440002648E70124B601760A1440002542E780260124F6032E437602760A1440FF2539E7C0461CB90100FFFFFFF7F8B54A029D
:405E00004E0043024400240EC50F9B09360EC90F9209FF2E00D183E001204140A01BA9425CD0002800DC95E0002E1CD1002A00D081E05A0704D00F221A40042A00D0043371
:405E40005A013BD50134FF2C00D191E001209B015B0AE4B205405B02E4055B0AED0723432B431800F8BDFF2CE3D08021C9040A431B2800DD90E016002021C640081A82406E
:405E8000511E8A4132439B1A5A0115D59B019E09300000F0D7FD0538864084426CDC041B330020200134E340041BA640721E964100243343BDE70D005A07BCD1DF08012357
:405EC0001D40FF2C33D1002F00D190E08022D20313003B435B025B0AFF24BCE700284FDD002E2ED0FF2CA4D08025ED042A431B2800DD97E016002025C640281A8240501E8A
:405F0000824132439B185A01D5D50134FF2C6DD001227B481A405B08034013430D0088E7002A00D07AE777E7031EC5D100257B025B0AE4B28FE701380028A4D0FF2C97D131
:405F400077E7002A00D174E701380028DAD0FF2CCDD16EE7002821D1601CC0B2012858DD80279E1AFF0437402FD0D61A0D008FE701231D4000236EE7624B241A334058E7FD
:405F8000002851D1601CC6B2012E33DDFF282DD09B185B0804004CE7012274E7002C1AD0FF2E1FD08024E404404223431B2800DD96E01D002024C540201A8340581E83419C
:405FC0002B43D31A34000D005EE7002E00D05FE700250024ABE7002B44D0C0430028F0D0FF2EE3D11300FF240D0022E70D00FF24002330E7002C5DD1002B7DD0002A00D113
:4060000017E79B185A0100D456E73E4A040013400FE7002C1ED1002B2FD1002A65D013000D0006E701226DE7002C1FD1002B59D0C04300280BD0FF2E4FD01B285EDC1D00E9
:406040002024C540201A8340581E83412B439B18340058E7002B1CD1002A49D013000D00FF24E6E6130034000D00E2E6FF2E34D08024E40440422343DFE7002A00D1D8E662
:406080008027981AFF04074000D14DE7D31A0D00CFE6FF24002A00D1CBE68020DB08C003034204D0D208024201D113000D00DB00FF24BEE6002B10D0FF24002A00D1B8E6E2
:4060C0008020DB08C003034203D0D208024200D11300DB000D00FF24ABE61300FF24A8E601236EE713003400A3E6002700251EE780270025FF03E9E613009AE60123A6E765
:40610000FFFFFF7DFFFFFFFB4302590A4300C20F1B0E00207E2B0EDD9D2B0DDC802000040143952B0BDC9620C31AD9400B005842002A00D118007047034BD018FBE7963B10
:4061400099400B00F3E7C046FFFFFF7F70B5002830D0C317C5185D40C40F280000F072FC9E231B1A962B0DDC9622D21A95406A02520AD8B25202C005520AE4070243224370
:40618000100070BD992B19DC9922D21A9540124A2A40690704D00F210D40042D00D00432510103D50C4B1A409F231B1A9201520AD8B2DFE7002400200022DBE705222E0021
:4061C000121AB921D6402A00C91A8A40551EAA4135001543DBE7C046FFFFFFFBF0B557464E464546E0B40E001100F20F9246C500420F180337037400400A4E0F7F0A304392
:40620000CF4E17435A00640D520DDB0FC900B24200D1E5E001267340A61AB446534500D1AFE0002E00DC0DE1002A3AD103000B4300D0E4E06B0709D00F232B40042B05D0F6
:406240002B1DAB42AD416D427F191D003B0200D488E0BB4B01349C4200D110E13A00B94B51461A4001235007ED08520264050543120B640D0B400021280012030D0D120B31
:4062800064052D0515436208AF4CDB072C401443640064081C4321001CBC90469946A246F0BDA74B9C42C5D080231B0418436346382B00DDFDE01F2B00DD30E16246202304
:4062C0009B1A02009A40664690460A009940F24046464B1E99413243114363460200DA40691A8D429B410D00BA1A5B42D71A3B0235D57A02530A98464346002B00D1C4E055
:40630000404600F09FFB0300083B1F2B00DDC5E020222900D21A4746D1409F400A009D403A439C4200DDC0E01C1B631C1F2B00DDE4E0202114002800C91AD8408C408D40F6
:406340000443DA40681E854117002543002471E7424663461A4300D14CE2674645466B0700D069E7012351467807ED08FA080B40054373498C4238D012036405120B640DBC
:4063800079E7002E00DC9AE0002A47D06C4A944200D14FE78022120410436246382A00DC08E10143481E81410022C9B24919D219A942BF410D007F42BF183A0200D442E132
:4063C0005F4A0134944200D14EE101205D4A69083A4028400843D507054357089A4629E706000E4300D017E714E72900114300D1F9E1802109030A431203120B3BE7012356
:406400005B429846C4446346002B72D1691A8D429B413F1A5B42FF1A0D0068E702000A4300D107E7012252429046C4446246002A00D0E6E06918A942B6413F187642F7199C
:406440000D00BAE7002E00D080E0621C5205520D012A00DCF9E06A1A91464D45B6413A1A7642921B9046120200D499E04D1BA9428941C71B49427A1A90469A463CE7524699
:406480000123002513400022F5E6280000F0DAFA20300300083B1F2B00DC39E72A002838824000259C4200DC3EE7264FE41A1740C0E60143481E81410022C9B210E7002E8D
:4064C00000D0F1E0621C94465205520D012A00DCA0E01B4A944500D1C5E06918A94292413F185242D2194908D5070D4357086446A0E6134B9C4200D0D9E69BE611001F3CD9
:40650000E1400C00202B00D180E04021CB1A9A4015436A1E95410027254300241FE763460200203BDA406346202B71D0402366469B1B98400143481E814111430022CFE69A
:40654000FF070000FFFF7FFFFFFF0F80002C48D0CA4CA24200D1A2E07442A1468024240427434C46382C00DDDBE01F2C00DD44E14E462024A41B3E00A640A246B0464C46A2
:406580002E00E640B4464646644626435446A5406C1EA54134002C434D46EF400D1B28E04A4643464D461A4300D0A5E6002300240025DEE61F2A5ADC66462022921B0600B6
:4065C00096409146B04662460E00D640424616434A4691404A1E9141020060463143C240E4E63C002C435AD0F443A146002C52D14D1BA9428941C71B49427F1A14009A466F
:4066000075E69E4A944200D0C7E613E600227FE700208FE7002C00D0C8E03B002B4300D10FE103000B4300D104E66918A9429B413F185B42DF193B0200D41AE1904B0D006B
:406640001F406446F6E59A4689E63A002A43002C5CD1002A75D102000A4300D1CAE007000D009A46E6E564460022002581E662460600203AD6406246B046202A00D1B7E028
:4066800040226646921B904001434246481E8141114300228AE6794CA24200D061E707000D0014009A46C5E5002C41D13C002C4378D0F443A146002C20D0704CA24271D0B6
:4066C0004C46382C00DDB2E01F2C00DDBCE02026341BA2463C005646B4404E46A0462C00F440A446444666463443A4465446A54064466E1EB54125434C46E7406D188D42AD
:4067000089413F184942CF19140056E6002A2FD102000A4300D184E007000D009A46574C88E53D436F1EBD41ECB200270D1B60E7524CA24236D0744280263604A146374305
:40674000BEE702000A4300D174E56A1A90464545B6413A1A7642921B9446120200D4F7E54D1BA9428941C71B49427F1A9A4661E502000A433AD0ED087C072C438025FA0899
:406780002D032A4208D0C7082F4205D145072C003A009A46C9080C43670FD200E5001743364C47E507000D00140043E53A002A4343D002000A4319D0ED087C072C4380259A
:4067C000FA082D032A4207D0C6082E4204D147073C003200C9080C43D700620FE50017439A46264C26E50022002544E5234C21E5002049E700230025BBE54C463E00203C08
:40680000E6404C46B446202C31D040244E46A61BB7403D436C1EA54164462C4300270D1BE7E6802200231203144C0025A1E53D436F1EBD410027EDB260E707000D000F4C18
:40684000F8E407000D00F5E44E463C00203EF440A0464C46202C0ED040244E46A41BA7403D436F1EBD4144460027254346E70027CFE70D0073E50027F2E7C046FF0700000E
:40688000FFFF7FFF4200120E511C4302C9B270B55D0AC40F012915DDE02189008C466D071B0B6244002128000D0D2D052B431C4D52052B40520813435B00E4075B082343C9
:4068C000190070BD002A15D1002D1FD0280000F0B9F80A281DDC0B232A001B1ADA4013000200153295400F4A1B03121A52051B0B520DD7E7002D06D080221B0B12031343E7
:406900006D07094ACEE7084A0023CBE700220023C8E703000B3B9D402B000025E3E7C046FFFF0F8089030000FF0700004B0070B55E0D0C03751C640A420F6D052243C90F72
:40694000C4006D0D012D2ADD3B4BF318FE2B1ADC002B42DD8001451EA841D2001043620F0243500704D00F201040042800D004328020C004104021D00133FF2B03D09201BD
:40698000520ADBB201E0FF2300225202520ADB0513435B00C9075B080B43180070BD002E07D01443EFD08020D20080040243FF23D7E722430023002A03D00522D208FF2BDC
:4069C00003D05202520ADBB2DFE7002A32D08020C00302435202520AD7E71800173014DB8020000402431E20C01A1F280FDC2500124BF3189D406E1EB5419A402B001343B7
:406A00002200C2401A430023ABE70023D5E702256D42EB1A1500DD40202809D0084BF3189A401443621E9441220000232A4398E70022F6E70022A8E780FCFFFF82FCFFFF58
:406A4000A2FCFFFF1C2101231B04984201D3000C10391B0A984201D3000A08391B09984201D30009043902A2105C40187047C046040302020101010100000000000000008D
:406A8000014B18687047C046781100200E4B70B500251E000D4CE41AA410A54204D0AB00F35898470135F8E714F074FF084B00251E00084CE41AA410A54204D0AB00F3586F
:406AC00098470135F8E770BDA0B90100A0B90100A0B90100A8B9010030B50024A24208D0035D651C0C5DA34201D0181B02E02C00F4E7002030BD002310B59A4203D0CC5C58
:406B0000C4540133F9E710BD03008218934202D019700133FAE770470CB430B5164B9DB00C1E1D6804DA8B2301202B6040421DE0822302A99B008B810023029008619C4217
:406B400000D0631E8B604B6101235B42CB81209A21AB2800019300F073F8431C01DA8B232B60002C02D00023029A13701DB030BC08BC02B01847C04678110020F0B58E68F8
:406B800085B007000C00039201939E4243D890238A89DB001A423ED003250969236801985B1A029363695D43EB0F5D19029B6D1001331B18AB4200D91D00530510D52900F0
:406BC000380000F037FB061E14D0029A2169FFF792FFA289194B134080221343A38112E02A00380000F086FB061E0CD12169380000F0D4FA0C23402201203B60A389404247
:406C00001343A38117E0029B2661F61826606561019EED1AA560019BB34200D21E0032000399206800F0A5FA0020A3689B1BA36023689E19266005B0F0BDC0467FFBFFFFC8
:406C4000F0B59FB0029005938B890F0016001B0610D50B69002B0DD1402100F0EBFA38603861002804D10C23029A01381360D8E040237B61002306AD6B6120336B7610334F
:406C8000AB7634002378002B03D1A31B049312D003E0252BF9D00134F4E7A31B320039000298FFF76BFF431C00D1B4E06A69049B944663446B612378002B00D1ABE00122B7
:406CC000002352426A6002A95432521801342B60EB60AB601370AB65534E21780522300000F03CFA002807D00123801B83402A68013413432B60EFE72B68DA0604D5532258
:406D0000202102A8121811701A0704D553222B2102A81218117022782A2A03D0099B00200A210EE0059A111D12680591002A01DB099204E05242EA60022213432B60013495
:406D40000BE02278303A092A04D84B4301349B180120F6E7002800D0099323782E2B1ED163782A2B0AD1059B02341A1D1B680592002B01DA01235B42079310E000230A205A
:406D80001A0001346B6021783039092904D84243013452180123F6E7002B00D00792234E21780322300000F0D9F9002806D04023801B83402A68013413432B6021780622A7
:406DC0001B48661C297600F0C9F9002812D0194B002B06D10722059B073393430833059314E005AB00933A00134B2900029800E000BF07E005AB00933A000F4B290002988F
:406E000000F08AF80390039B013304D06B69039A9B186B6135E7BB890B985B0601D5012040421FB0F0BDC0465EB9010064B9010068B90100000000007D6B0000F7B5170055
:406E400001938A680B6900900C00934200DA130022003B6043321278002A01D001333B6023689B0602D53B6802333B60062523681D401ED0230043331B785A1E93412268BB
:406E800092061CD53020E1184331087021005A1C45310978A2184332023311700FE022000123193201990098089EB047431C0ED00135E3683A689B1A9D42F0DBDAE72200B0
:406EC000019943320098089DA847431C02D10120404220E006232068E1683A6803400025042B03D18D1AEB43DB171D40A3682269934201DD9B1AED180027BD420AD0220032
:406F000001231A3201990098089EB047431CDED00137F2E70020FEBDF0B58BB006920A0043320793059004920A7E0C00109B6E2A00D1ABE011D8632A22D009D8002A00D1E6
:406F4000B5E0582A00D0C5E045310A70814A4FE0642A1DD0692A1BD0BCE0732A00D1AAE009D86F2A29D0702A00D0B3E0202209680A43226037E0752A1FD0782A33D0A9E049
:406F80000E001A684236111D196013683370A4E021681A68080606D4490604D5111D19600023D55E02E0111D19601568002D3BDA2D23049A6D42137036E021681A680806D1
:406FC00006D4490604D51568111D1960ADB202E0111D196015685F4B227E039308276F2A1DD00A271BE022007821453211705A4A19680392081D226818600D68100602D450
:40700000500600D5ADB2D30702D520231A4322601027002D03D1202322689A4322602300002243331A7002E00A274A4B03936368A360002B09DB0422216891432160002DFE
:4070400005D1049E002B11D07BE0002D79D0049E28003900FEF7CCFB039B013E5B5C280033703900FEF73EFB051EF1D1082F09D12368DB0706D563682269934202DC30239C
:40708000013E3370049B9B1B23612BE009681A68080607D4490605D5111D19601368A28A1A8004E0111D1960136862691A600023049E236116E01A68111D196016680021CB
:4070C0006268300000F04AF8002801D0801B6060636803E0260042363270012323610023049A1370079B09AA00932100069B0598FFF7A4FE431C02D10120404227E02369EF
:40710000320006990598079DA847431CF4D0236800259B070FD4099BE068984217DA180015E022000123193206990598079EB047431CE1D00135E368099A9B1A9D42F0DB36
:40714000E9E72600039B42361B7833708EE70BB0F0BDC0466FB9010080B90100C9B28218904204D003788B4202D00130F8E70020704710B5884202D98B18984201D30023ED
:4071800005E09B1A013A08D3995C8154FAE7934203D0CC5CC4540133F9E710BD70B50500002944D00C1F2368002B00DAE418280000F0D8F81E4A13681100002B02D16360F0
:4071C000146031E0A3420DD92268A018834203D118685B688218226063600C6024E0A24203D813005A68002AF9D11E689819A0420BD12168711858181960824214D1106839
:407200005268411819605A600EE0A04202D90C232B6009E021686018824203D1106852684118216062605C60280000F09CF870BDDC230020032370B5CD1C9D430835060048
