:400000000080002011000000210900002109000080B500AF00F08EFC80B500AF2D4B12221A6001F0A9FC2C4B180002F0C1FC012001F0B2FC302001F0B1F9284B284A1A6075
:40004000284B8022D2051A60274B274A126802210A431A60254B264A1A60264B00221A60254B254A126808218A431A60FA23DB00180001F085FA214B180001F039FB204B0F
:40008000204A1A60204B214A1A60214B1D4A1A601D4B204A1A60204BD02252021A601A4B1E4A1A601E4B802212061A601D4B8022D2021A601C4B42221A601C4B40221A6084
:4000C0001B4B41221A60074B8022D2051A60C046BD4680BD30001040001BB70004010B40060000800C020B4078002E407C002E402D3E000064F02E406CF02E40DC05000009
:4001000008030140007FBB000000014042FF00800003014040FF00800403014041FF008008010B4000010B4038010140300101400401014080B582B000AF72B64D4B002262
:400140001A604D4B01221A70FB1D00221A7022E0FB1D1A7813005B009B185B00474A9B183B603B681A78597809020A43997809040A43DB781B06134318003B681A795B7940
:400180001B0213439BB2190000F064FBFB1D1A78FB1D01321A70FB1D1B78012BD8D9384A384B1100180000F065FB374BA02212011A80364B01221A70354B364A1A60364B78
:4001C000992212041A60354B802292021A60344B992212041A60334B802212041A60324B992212041A60314B314A1A60314B802292041A60304B802292041A602F4B80225A
:4002000092001A602E4B06221A602E4B06221A602D4A2D4B1B78DBB23C218B43DBB214210B43DBB21370294A284B1B78DBB216210B43DBB21370264B08221A60254B264A92
:400240001A60264B20221A60254BC42292021A60244B20221A60244B10221A60234B802292011A60FFF7D8FE00F046FBC046BD4602B080BD6CF02E401C700F409C4D01008C
:40028000CC4D0100A84D010000600F4002600F4000000240003000EE000102400003024000500F4008500F4010500F4030500F400400990034500F4038500F403C500F4000
:4002C0002000104000800F4001700F4000700F400000044008000440000CD800000104400801044018010440000304400803044010B5064C2378002B07D1054B002B02D045
:40030000044800E000BF0123237010BD5011002000000000744D0100084B10B5002B03D00749084800E000BF07480368002B00D110BD064B002BFBD09847F9E7000000002D
:4003400054110020744D0100E00B00200000000080B582B000AF00F0FDF8134B01221A7003F0AAFB114B1B78022BF9D103F0A4FB0F4B1B6801221340F2D00D4B1B68012202
:4003800093431A000A4B1A60074B1B78DBB2180000F0DAF9031C7B60786802F0D5FE0300180000F085F8DBE76C110020E02200207411002080B582B000AF786039607B687A
:4003C000022B0ED002D8012B05D01FE0282B08D0412B0DD01AE000F093F9002001F0BEFB14E00C4B1B6808221A430A4B1A600DE0FA239B00180000F03DF9074A3B68100059
:40040000190002231A0003F0FEFAC046C046BD4602B080BD74110020C822002080B584B000AF786039607B68B422FF3293420CD0B622FF3293420CD0D9225200934200D0FC
:400440001CE0104B01221A7018E00E4B00221A7014E03B68FB60FB685B681B6801331B781A00094B1A60084B1B681A02FB685B681B681B781A43044B1A60C046C046BD46CE
:4004800004B080BD6D110020E40B002080B500AF054B180001F0CAFA044B180001F070FFC046BD4680BDC046B50300001D04000080B584B000AF7860234B1B78002B3FD086
:4004C000224B1B68022213403AD0204B1B68022293431A001D4B1A600823FB181A000621002001F05BFF031E2AD17B68DAB20823FB185A707B681B12DAB20823FB189A7046
:400500007B681B0CDAB20823FB18DA707B681B0C1B12DAB20823FB181A710823F9180C4B1A785B781B02134300201B041B0C020C1204134318000B000622002102F04EF921
:40054000C046BD4604B080BD6D11002074110020C822002080B500AF62B6FFF797FF01F0F5F8642001F09EF8202001F0A7F9064B180001F087F900F051FD044B180000F083
:4005800065FDC046BD4680BD784D01003507000080B582B000AF064B1B68C022120213437B60034B7A681A60C046BD4602B080BD00010B4080B582B000AF0A4B1B680A4A50
:4005C00013407B60074B7A688021C9010A431A60044B7A68802109020A431A60C046BD4602B080BD00010B40FF3FFFFF80B500AFFFF7E0FF194A194B1B681B0C1904174B9A
:400600001B6898B2164B1B689BB2C3189BB2CB181360144B134A126804210A431A60FFF7B7FF114B1B685A1E0F4B1A600E4B1B68002B09D10D4B1A680B4B1A600C4B1B68E0
:4006400002221A430A4B1A60094B1B6801221A43074B1A60C046BD4680BDC04608020B40EC0B002010020B40F00B0020E40B00207411002080B582B000AF78601A4B1900B7
:40068000082000F0C7FFFFF795FF184B7A681A60164B1B685A01164B1A60164A154B1B681B0C1904124B1B681B041B0CCB181360114B114A126801210A431A60082000F0C4
:4006C000CFFF0E4B0D4A126801210A431A60C0460A4B1B6802221340FAD0FFF759FFC046BD4602B080BDC046ED050000E80B0020EC0B002008020B400C020B4010020B4087
:4007000080B500AFFFF756FF084B084A126801218A431A60064B064A126804210A431A60FFF736FFC046BD4680BDC0460C020B4010020B4080B500AF024B01221A70C046EA
:40074000BD4680BD7811002080B584B000AF0200FB1D1A700023FB60FB1D1B78002B04D0FB1D00221A7000F035FA084B1B78DBB2002B05D000F052FA00F00AF8031CFB60AE
:40078000FB68181CBD4604B080BDC046C422002080B598B000AF0C23FB18180050231A00002103F039F9294B1B685A1C274B1A60002000F039FB031CFB65244B1B681A0021
:4007C0003B1D1900100000F051FB02000C23FB181100180003F028F90C23FB18180003F030F903001A000C23FB189A18184B1000190002231A0003F006F9002000F08CFBE0
:4008000002000C23FB181100180003F00DF90C23FB18180003F015F903001A000C23FB189A180B4B1000190002231A0003F0EBF80C23FB18180001F025F8202001F03EF883
:40084000FB6D181CBD4618B080BDC0467C110020984D010080B582B000AF786039603A687B680021180003F0D7F8C046BD4602B080BDC04680B586B000AF78603960002388
:400880003B6100237B612FE07B699B007A68D3181B68BB600F23FB18BA681A70BB68FF229343BB6018E03B695B003A68D3181B781A00BB68D31819003B695B003A68D3189A
:4008C0005B780B703B6901333B610F23FB181A780F23FB18013A1A700F23FB181B78002BE1D17B6901337B617B69082BCCD9C046BD4606B080BDC04680B500AF054B032295
:400900001A60054B03221A60044B00221A60C046BD4680BD3000304030003140000E3F4080B500AF03F034F803001B680C2B00D1FEE7FEE780B586B000AF224B7B61224B24
:400940003B61204B7B6135E03B691B68FB603B695B68BB603B699B683B6000237B600CE0FB681A68BB681A60BB680433BB60FB680433FB607B6804337B607A683B689A420D
:40098000EED13B69DB683B6000237B6008E0BB6800221A60BB680433BB607B6804337B607A683B689A42F2D13B6910333B617B69013B7B617B69002BC6D102F0EFFFFFF7C8
:4009C000C7FCFEE701000000C854010080B582B000AF154B144A126801218A431A6000237B600FE07B68032B04D8104B7A689200D35800E00E4B0F4A796889008B507B68EC
:400A000001337B607B682F2BECD9FFF793FB0A4B00221A60044B044A126801210A431A60C046BD4602B080BD00001040000000002109000000000020C000002080B500AFDA
:400A4000024B01221A70C046BD4680BDC422002090B583B000AF142000F04AFEFF2000F01FFC002000F050FB0A2000F041FE012000F04AFB052000F03BFE002000F010FCFF
:400A8000002000F041FBFC1D00F04EFB03002370FB1D1B781800BD4603B090BD80B582B000AF0200FB1D1A70142000F021FE002000F02AFBFB1D1B78002B03D1322000F01E
:400AC00017FE02E00A2000F013FE012000F01CFBC046BD4602B080BD80B584B000AF0200FB1D1A70FF2000F0DBFB0F23FB1800221A7019E0FB1D1A780F23FB181B781A414C
:400B00001300DAB20E23FB1801210A401A700E23FB181B781800FFF7C1FF0F23FB181A780F23FB1801321A700F23FB181B78072BE0D9C046BD4604B080BDC04690B583B023
:400B400000AFFB1D00221A700EE0FB1D1B781F4A9B001F49D3180422180002F054FFFB1D1A78FB1D01321A70FB1D1B78072BECD9BB1D00221A70002000F0C6FAFF2000F00B
:400B80008FFBF0235B00180000F0B2FD012000F0BBFA052000F0ACFD002000F081FB002000F0B2FA372000F0A3FDBC1D00F0BCFA03002370C82000F09BFDBB1D1B78DB43C5
:400BC000DBB21800BD4603B090BDC046A4220020F40B002080B500AFFFF7B0FF03001A000C4B1A700B4B1B78002B04D10A4B01221A7000230AE0CC20FFF76EFF4420FFF71A
:400C00006BFF012000F05CFB024B1B781800BD4680BDC046CA220020C422002090B58BB000AF3B1D180020231A00002102F0F4FE784B1B78DBB2002B01D10023E6E0754B08
:400C400000221A70744B1B78002B01D10023DDE0FFF774FF03001A006F4B1A706E4B1B78002B01D10023D1E02523FB186A4A12781A702723FB1800221A701BE02723FB182E
:400C80001B782522BA1811782722BA18127811410A00D2B201210A40D1B23A1D9B00D31802330A1C1A702723FB181A782723FB1801321A702723FB181B78002BDED0CC200B
:400CC000FFF70AFFBE20FFF707FF2623FB1800221A7047E02423FC18FFF7BAFE030023702723FB1800221A7030E02723FB181B783A1D9B00D31802331B78002B1FD027233B
:400D0000FB181A782723FB1819783B1D8900CB5A19B22423FB1818782723FB181B7818410300012018402623FB181B78984003001BB20B431BB299B23B1D9200D15227234C
:400D4000FB181A782723FB1801321A702723FB181B78002BC9D02623FB181A782623FB1801321A702623FB181B780B2BB2D92723FB1800221A7041E02723FB181B783A1DD8
:400D80009B00D31802331B78002B19D02723FB181A783B1D9200D35A204A934217D92723FB181A782723FB1819783B1D8900CB5A1B498C46634499B23B1D9200D15206E09E
:400DC0002723FB181A783B1D92001549D1522723FB181A782723FB181B78124891003A1D9B004018D3180422190002F00CFE2723FB181A782723FB1801321A702723FB18F9
:400E00001B78072BB8D92523FB181B781800BD460BB090BDC4220020CA220020FF07000000F0FFFFA422002080B584B000AF0200FB1D1A70FB1D1A780B4B9200D25A0E23B4
:400E4000FB181A800E23FB1800229B5E180002F04FFC031CF6218905181C02F08DF9031C181CBD4604B080BDA422002080B588B000AF786039601723FB180A221A703B6841
:400E8000FB613B68BB617B683B611723FB181B781900786802F06CF803007B60FB695A1CFA613A69093211001722BA181278786842438A1A17498A5C1A707B68002BE2D138
:400EC0003B69002B04DAFB695A1CFA612D221A70FB695A1EFA6100221A7011E00F23FB18FA6912781A70FB695A1EFA61BA6912781A70BB695A1CBA610F22BA1812781A706D
:400F0000BA69FB699A42E9D33B681800BD4608B080BDC0464450010080B58CB000AF0200FB1D1A701423FB1818000D231A00002102F072FD1423FB18BB62FB1D1B78344AC2
:400F40009B00D31802331B78002B01D1314B5AE0FB1D1A782E4B9200D25A2623FB181A802623FB181B88DB0BDAB22523FB181A702523FB181B78002B06D02623FB180022D6
:400F80009B5E5B42FB6204E02623FB1800229B5EFB62FB6ADAB22423FB180F210A401A70FB6A1B11FB622523FB181B78002B0FD0FB6A5B420C22BA1811001800FFF756FFDB
:400FC00002001423FB181100180002F02DFD0DE00C23FA18FB6A11001800FFF747FF02001423FB181100180002F01EFD2423FB181A78094B9200D2581423FB181100180077
:4010000002F012FDBB6A1800BD460CB080BDC046A422002058500100F80B002080B500AF074B180000F05CF9064B180000F008F900F0C0F8044B00221A70C046BD4680BDE8
:401040003D0A0000EE020000C422002080B582B000AF786000F04EF87B68180000F00AF8032000F015F800F03BF8C046BD4602B080BDC04680B582B000AF7860034B7A68C3
:401080009A64C046BD4602B080BDC0460000002090B585B000AF0200FB1D1A701623FB600B23FC1801F08DFC030023700A4B0A4A12680A491140FA1D1078FA6890400200C7
:4010C0000A431A600B23FB181B78180001F07DFCC046BD4605B090BD00E400E0FFFF3FFF80B500AF024B04221A60C046BD4680BD00E100E080B500AF024B04221A60C04619
:40110000BD4680BD80E100E080B582B000AF0200FB1D1A70034AFB1D1B781370C046BD4602B080BD72000F4080B500AF024B1B78DBB21800BD4680BD60000F4090B583B070
:4011400000AF124B180000F061F8104B180000F077F8FC1D01F035FC030023700C4A0C4B1B78DBB210210B43DBB21370FB1D1B78180001F02AFC00F073F800F081F8002045
:4011800000F02AF8C046BD4603B090BDED02000091000F4080B500AF0549054B1B78DBB2802252421343DBB20B70C046BD4680BD71000F4080B500AF064B1B78002B04D141
:4011C000FFF7BCFF034B01221A70FFF7E3FFC046BD4680BD8011002080B582B000AF0200FB1D1A70034AFB1D1B781370C046BD4602B080BD81000F4080B500AF024B1B78B3
:40120000DBB21800BD4680BD61000F4080B582B000AF0200BB1D1A80034ABB1D1B881380C046BD4602B080BD40100F4080B500AF024B1B889BB21800BD4680BD80100F4045
:4012400080B582B000AF0200BB1D1A80034ABB1D1B881380C046BD4602B080BD00100F4080B500AF054A054B1B78DBB210210B43DBB21370C046BD4680BDC04671000F40F4
:4012800080B500AF01E0FFF7D1FFFFF7B5FF03001A0008231340F6D1C046BD4680BDC04680B582B000AF0200FB1D1A70034AFB1D1B781370C046BD4602B080BD73000F405C
:4012C00080B582B000AF0200FB1D1A70034AFB1D1B781370C046BD4602B080BD70000F4080B582B000AF786000F04EF87B68180000F00AF8032000F015F800F03BF8C046A8
:40130000BD4602B080BDC04680B582B000AF7860034B7A685A64C046BD4602B080BDC0460000002090B585B000AF0200FB1D1A700E23FB600B23FC1801F043FB030023705B
:401340000A4B0A4A12680A491140FA1D1078FA68904002000A431A600B23FB181B78180001F033FBC046BD4605B090BD00E400E0FF3FFFFF80B500AF024B02221A60C04621
:40138000BD4680BD00E100E080B500AF024B02221A60C046BD4680BD80E100E090B585B000AF78600C23FC1801F00BFB030023707B68022B00D8AFE07B68302B00D9ABE0EC
:4013C0005C4B1B78DBB21A007B689A420AD35A4A0F23FB1812781A70584A0E23FB1812781A703FE0564B1B78DBB21A007B689A420AD3544A0F23FB1812781A70524A0E231F
:40140000FB1812781A702DE0504B1B78DBB21A007B689A420AD34E4A0F23FB1812781A704C4A0E23FB1812781A701BE04A4B1B78DBB21A007B689A420AD3484A0F23FB18EB
:4014400012781A70464A0E23FB1812781A7009E0444A0F23FB1812781A70434A0E23FB1812781A707B68DA1E0B23FB183F498A5C1A700B23FB181B782F2B0DD97B682A2B5B
:401480000AD93B4B19221A60052001F091FA0D23FB1819221A7007E0354B1B68DAB20D23FB183F210A401A700B23FA180D23FB1812781B789A4208D22D4B7A68033A2B4917
:4014C0008A5C1A60052001F073FA2A4B7A6826498C4662441278D2B21A60274B0F22BA1812781A60254B0E22BA1812781A60052000F0FEF80B23FA180D23FB1812781B78A9
:401500009A420CD91A4B7A68033A18498A5C1A60052001F04DFA02E0002000F0B7F80C23FB181B78180001F050FAC046BD4605B090BDC04640F3FF0F41F3FF0F42F3FF0FA8
:4015400043F3FF0F44F3FF0F45F3FF0F46F3FF0F47F3FF0F48F3FF0F49F3FF0F4AF3FF0F4BF3FF0F4CF3FF0F4DF3FF0F9C5001002CFF0B4028FF0B401CFF0B4020FF0B40A3
:4015800080B584B000AF78600023FB60154B154A126801210A431A60134B144A1A60144B134A1268802109020A431A607B68002B12D01023FB600CE0012000F099F800F0C0
:4015C00019F8031E02D00023FB6005E07B68013B7B607B68002BEFD1FB681800BD4604B080BDC04660F02E4078002E400220000010002E4080B582B000AF054B1B680122F7
:4016000013407B607B681800BD4602B080BDC0460C002E4080B584B000AF02003960FB1D1A7080239B05FB60FB1D1B781F2B02D9002000F02BF8FB1D1B7810339B00FA682E
:40164000D3181B68BB60FB1D1B7810339B00FA68D3183A681A60BB681800BD4604B080BD80B582B000AF0200FB1D1A70064BFA1D12781F210A40012191400A001A60C0460D
:40168000BD4602B080BDC04600E100E080B582B000AF0200FB1D1A7001BEC046BD4602B080BDC04680B582B000AF786009E00D4B1B68180001F07CF97B680B4A9446634411
:4016C0007B607A6880231B029A42F0D8074B1B687A685343180001F06BF9C046BD4602B080BDC046440C00200080FFFF3C0C002080B582B000AF0200BB1D1A80BB1D1B88B6
:40170000044A12785343180001F052F9C046BD4602B080BD400C002080B500AF00F036F8C046BD4680BDC04680B500AF064B064A1268802109060A431A6000F019F800F0CE
:401740001DF8C046BD4680BD0000244080B500AF064B1B78002B04D1FFF7DEFF034B01221A70FFF7E1FFC046BD4680BD8211002080B500AFC046BD4680BDC04680B500AF31
:4017800000F066F8C046BD4680BDC04680B500AF1B4B1C4A1A601C4B00221A601B4B1C4A1A601C4B1C4A1A601C4B07221A601C4B00221A601B4B01221A601B4B164A1A6085
:4017C0001A4B00221A601A4B04221A60194B00221A60194B00221A60184B00221A60184B00221A60174B00221A60174B00221A60154B1B689AB2154B1A80C046BD4680BD7A
:40180000000024400B000002400024404800244001000A000003244007000080040324401003244044002440000224400402244050002440880E2440C80E2440480F2440F1
:40184000080F2440C80F2440880F24408411002080B500AF074B074A126807490A40902109040A431A60054B054A12881A60C046BD4680BD00010240FFFF0FFF880F24409F
:401880008411002080B584B000AF78600023FB6009E07A68FB68D3181B78180001F098F8FB680133FB607A68FB68D3181B78002BEFD1C046BD4604B080BDC04680B582B0B9
:4018C00000AF78607B68180001F082F80D2001F07FF80A2001F07CF8C046BD4602B080BD80B500AF0F4B0F4A126801218A431A600C4B0C4A126802218A431A600A4B0A4A2B
:40190000126830218A4310210A431A60064B064A126807218A4301210A431A60C046BD4680BDC04600F02E4000FF2E4080B500AF0F4B0F4A126802218A431A600D4B0D4ADD
:40194000126807218A4302210A431A60094B094A126830218A4320210A431A60044B044A126801210A431A60C046BD4680BDC04600F02E4000FF2E4080B500AFFFF7B0FF27
:40198000044B044A1268802109060A431A60C046BD4680BD00F02E4080B584B000AF78600C4B1B6801221340FB607B68002B02D0012B03D005E0FFF793FF06E0FFF7B6FF7D
:4019C00003E00020FFF762FEC046FB681800BD4604B080BD00F02E4080B500AF094B00221A70094B00221A70084B00221A7000F013F8074B00221A70064B00221A70C046DC
:401A0000BD4680BDEB220020E4220020EA220020CC220020D422002080B500AF00F0A0FC00F0A4FCC046BD4680BDC046B0B594B004AF78603E23FB1800221A802823FA18B6
:401A40003D4B1000190014231A0001F0DCFF3B4B1B78002B04D1FFF7BFFF384B01221A707B68002B5CD0364B7A681A603E23FB181B88002B29D11023FB181C22BA185A6038
:401A80001023FB182022BA181A601023FB1800221A812023FB181B221A802023FB181B225A802023FB1804221A711C23FB1808221A703E23FC180E23FA181023FB18110099
:401AC000180002F0D5F8030023803E23FB181B88002B29D13E23FC182823FD18AE231A0118491948194B0293194B0193052300932B0002F013F8030023803E23FB181B8819
:401B0000002B11D1134B01221A703E23FC18124B15222B2118000EF0A3F90300238003E03E23FB1801221A803E23FB181B881800BD4610B0B0BDC046CC5001008811002091
:401B4000D0220020C8000020DD1E000079020000005D0100E0220020E850010090B585B000AF0200FB1D1A70FB1D1B78022B04D90E23FB1801221A804AE0294B1B78042B59
:401B800041D1284B1B78DBB21A00042313403AD1FB1D1B78002B0BD1234B1E221A82224B5B6820221A80204B5B6830225A8010E0FB1D1B78012B0CD11B4B96221A821A4BBC
:401BC0005B68C822D2001A80174B5B688022D2015A80164BFA1D12781A700E23FC18124B18000CF069F9030023800E23FB181B88002B0DD10B4B1B78DBB204221343DAB2A0
:401C0000084B1A7004E00E23FB180422FF321A800E23FB181B881800BD4605B090BDC046E0220020EB2200207C0C0020EA22002080B584B000AF78600A00FB1C1A700023C3
:401C4000BB60BB68002B20D07B689A79BB681A700F23FB1800221A7012E00F23FB181B780133BA68D3180F22BA18127879688A5C1A700F23FB181A780F23FB1801321A70B5
:401C80000F23FB181B78052BE7D9C046BD4604B080BDC04680B582B000AF78607B681B789AB27B6801331B789BB21B029BB213439BB21800BD4602B080BDC04690B585B01E
:401CC00000AF78600F23FB1800221A707B689B890B22934232D17B68181D7A680F23FC18402300210EF00AF9030023700F23FB181B78002B1AD17B685B681800FFF7CAFF9A
:401D000003001A00022313409BB2002B07D00F4B1B687968822252001000984706E00B4B1B6879680622FF3210009847084B1B78DBB201229343DAB2054B1A700F23FB181D
:401D40001B781800BD4605B090BDC046D0220020EB22002090B585B000AF78600F23FC187B681800FFF7AAFF030023701F4B1B78DBB21A00012313400CD00F23FB181B7828
:401D8000002B07D10F23FC187B68180000F0A6FB03002370154B1B78DBB21A00012313401FD10F23FB181B78002B16D00823FB1812229A707B689A890823FB181A80082349
:401DC000FB180F22BA181278DA700823FA187B68110018680DF0BCF903E07B6818680DF043FAC046BD4605B090BDC046EB22002080B582B000AF78607B68002B0AD0074BB0
:401E00001B78DBB21A000123134003D07B68180000F062FDC046BD4602B080BDEB22002080B500AF044B00225A70034B00221A70C046BD4680BDC046E822002080B582B0B9
:401E400000AF7860C046BD4602B080BD80B500AFC046BD4680BDC04680B584B000AF78600E23FB1800221A707B689B79002B1CD10F23FB1800221A7012E00F23FB181B7809
:401E80007A68D35C002B04D00E23FB1801221A700BE00F23FB181A780F23FB1801321A700F23FB181B78052BE7D90E23FB181B781800BD4604B080BD80B582B000AF02009A
:401EC000BB1D1A80C046BD4602B080BD80B582B000AF7860C046BD4602B080BD80B588B000AF02003960FB1D1A70CB4B1B78DBB201221343DAB2C84B1A70FB1D1B78412B4A
:401F000000D1A9E123DC212B00D1EFE00DDC022B00D1C1E002DC012B3BD0F8E1052B00D1BFE0062B00D1C1E0F1E1272B00D117E106DC242B00D109E1262B00D11CE1E6E1E3
:401F4000282B00D114E12A2B00D104E1DFE14F2B00D1CFE10BDC432B00D19CE100DA97E14C2B00D1B4E14E2B00D1C5E1CFE1572B00D1C3E106DC502B00D1C1E1542B00D1F9
:401F8000ABE1C4E1712B00D140E1FA2B00D1A9E1BDE11023FB1807221A701023FB1800225A701023FB18180003F066FD1023FB1807221A701023FB1801225A701023FB18F3
:401FC000180003F059FD0023002B01D001F06CFD924B1B681800FFF73FFF031E11D08F4B1B68180001F06CFD8C4B1B6800211800FFF71EFE894B1B6801211800FFF718FE48
:4020000036E0874B1B781A003F231A40854B1B789901FC231B010B401A43834B1B781903F8235B020B401A43804B1B785904FE231B040B401343BB61BB69DAB27C4B1A7019
:40204000BB691B0ADAB27A4B5A70BB691B0CDAB2774B9A70764B180001F032FD744B00211800FFF7E5FD724B01211800FFF7E0FD00200BF0B5FD0C23FB183F221A700C239D
:40208000FB1800225A700C23FB1818000BF0C6FD684B04221A703AE13B681800FFF7CEFE35E13B681A78644B1A7030E13B687B617B691B78002B00D024E17B695B78002BA1
:4020C0000BD15E4B0222DA805C4B18229A805B4B5B4A1A607B69594A5A604F4B1B78DBB201229343DAB24C4B1A700BE14A4B1B78DBB21A002023134000D005E1514B1B7846
:40210000102B02D14F4B0522DA704F4B1B784D4A110018000BF08EFE03001A000A23FB181A800A23FB181B88002B06D0474B1B680A22BA18110036209847374B1B78DBB23C
:4021400001221343DAB2344B1A70DDE03B685A783F4B1A70DBE03B681800FFF7B7FED6E03B681800FFF7B2FE324B02221A70CEE0304B04221A70CAE02E4B1B78022B00D11B
:40218000C4E0254B1B78DBB21A000123134000D1BCE0214B1B78DBB21A00042313400BD0244B03221A701C4B1B78DBB204229343DAB2194B1A70A9E0174B1B78DBB21A00B2
:4021C000082313400BD01B4B04221A70124B1B78DBB208229343DAB20F4B1A7096E0154B1B78032B00D091E0124B04221A70194B1B78002B00D089E00120FFF7AFFC031E60
:4022000000D083E00B4B03221A707FE03B681B881800FFF751FE7AE0EB220020980C00207CF2FF0F7DF2FF0F7BF2FF0F78F2FF0F900C0020E0220020E4220020B011002048
:40224000A80B0020C40D0020E8220020D0220020D4220020EA2200203A4A3B681000190002231A0001F0CFFB374B00221A70354B1B784F33DA00354BD3180133344A100008
:40228000190008231A0001F0BEFBFFF7DFFD3EE0FFF7C6FD3BE03B685B88162B05D81E23FB183A6852881A8003E01E23FB1817221A801E23FB1819883B681A8800231204C7
:4022C000120C1B0C1B04134318000CF04BFF1EE03B681800FFF73EFD19E03B681800FFF787FD14E01B4B1B7801221343DAB2194B1A700CE0C0460AE0C04608E0C04606E018
:40230000C04604E0C04602E0C04600E0C046124B1B78DBB21A00112313400ED00E4B1B78DBB201229343DAB20B4B1A700B4B1B68FA1D1278396810009847C046BD4608B03A
:4023400080BDC046E8220020E4220020005D0100D8220020CC220020EB220020D022002080B500AFC046BD4680BDC04680B500AF024B00221A80C046BD4680BDBC110020B5
:4023800080B582B000AF7860034B7A681A60C046BD4602B080BDC046B811002080B586B000AF3A60FB1D021C1A70BB1D0A1C1A701623FB1800221A80FB1D1B78032B04D9E4
:4023C0001623FB1801221A8023E0FB1D1A78144913005B009B185B00CB1802331A880823FB181A81BB1D1B789AB20823FB189A800823FB183A681A600823FB1800220021D1
:4024000018000DF045FD031E03D01623FB1801221A801623FB181B881800BD4606B080BD4454010090B587B000AF0400080011003B60FB1D221C1A70BB1D021C1A707B1DD7
:402440000A1C1A701623FB1800221A80FB1D1B78032B03D8BB1D1B78012B04D91623FB1801221A8030E0FB1D1A78BB1D18781A4913005B009B181B185B00CB1804331A8883
:402480000823FB181A810823FB181B89002B17D07B1D1B789AB20823FB189A800823FB183A681A600823FB180022002118000DF0EFFC031E08D01623FB1801221A8003E0C0
:4024C0001623FB1801221A801623FB181B881800BD4607B090BDC0464454010090B589B000AF78601E23FB1800221A701D23FB1800221A70B34B1B68002B00D15BE11F2327
:40250000FB1800221A704BE17B6899891F23FB181A78AD4813005B009B185B00C31804331B8899420FD07B6899891F23FB181A78A54813005B009B185B00C31802331B88DC
:40254000994200D025E10C23FB187A6812881A800C23FB181F22BA1812789A707B681A1D0C23FB185A607B6899891F23FB181A78954813005B009B185B00C31802331B885B
:40258000994200D073E01F23FB181B78032B4ED17B685B681A22BC181800FFF77BFB030023801A23FB181B88002B40D00823FA181F23FB181878130004220121FFF732FF36
:4025C000031E34D11823FC180823FB181800FFF761FB030023800823FB1802331622BC181800FFF757FB030023807B685B681A22BC181800FFF74EFB030023801A23FB1890
:402600001B88002B13D01A23FA181823FB1812881B889A4207D31A23FA181623FB1812881B889A4203D91E23FB1880221A701E23FB181B78002B00D09FE07B68181D7A68EE
:402640001E23FC18402300210DF058FC030023701E23FB181B78002B00D08EE0594B1B680C22B918B622FF321000984785E07B68181D7A681E23FC18402300210DF03EFCBD
:40268000030023701E23FB181B78002B00D074E01F23FB181A784C4913005B009B185B00CB1802331B885A1E484913009B009B189B00CB1804331A6880235B0313401CD0BA
:4026C0007B685B681800FFF7E5FA03001A00012313409BB2002B08D03A4B1B680C22B918D82252001000984707E0364B1B680C22B918B222FF32100098471F23FB181A785C
:40270000314913005B009B185B00CB1802331B885A1E2E4913009B009B189B00CB1804331A6880239B0313401CD07B685B681800FFF7B0FA03001A00022313409BB2002B76
:4027400008D0204B1B680C22B918D92252001000984707E01B4B1B680C22B918B422FF32100098471A4B1B78012B06D1194B1B7802221343DAB2174B1A70174B1B78DBB22D
:4027800001229343DAB2144B1A701D23FB1801221A701F23FB181A781F23FB1801321A701F23FB181B78032B05D81D23FB181B78002B00D1A8E61E23FB181B781800BD464D
:4027C00009B090BDB811002044540100E8500100D4220020CC220020EB22002090B589B000AF0C243C192080080011007B600B23FB18021C1A700A23FB180A1C1A70324B2B
:402800001B78022B05D01E23FB180422FF321A8053E00B23FB181A782C4913005B009B185B00CB1804331B885A1E294913009B009B189B00CB1810331B685B681800FFF7AA
:4028400029FA03001A00022313409BB2002B05D11E23FB180222FF321A802EE00B23FB181A781A4913005B009B185B00CB1802331A881023FB181A811023FB187A681A6012
:402880000A23FB181B789AB21023FB189A801E23FC181023FA180C23FB18110018680CF095FC030023801E23FB181B88002B04D11023FB181A89074B1A801E23FB181B8836
:4028C0001800BD4609B090BDE022002044540100E8500100BC11002080B586B000AF78601623FB1800221A702D4B1B68002B52D02C4B1B88002B4ED01723FB1800221A7048
:402900003FE01723FB181A78274913005B009B185B00CB1802331A88224B1B889A4229D10C23FA187B681000190002231A0001F06AF80C23FB181722BA1812789A700C231E
:40294000FB1800225A60194B1B78DBB201229343DAB2164B1A70134B00221A80104B1B680C22B918DA225200100098471623FB1801221A701723FB181A781723FB180132E8
:402980001A701723FB181B78032B04D81623FB181B78002BB5D0C046BD4606B080BDC046B8110020BC11002044540100EB2200200230800803D00138FDD1C046C046C046D0
:4029C0007047EFF3108072B6704780F31088704780B582B000AF7860C046064B1B681F221340082BF9D0044B7A681A60C046BD4602B080BD080224404002244090B583B086
:402A000000AFFC1DFFF7DDFF03002370074B074A126804218A431A6030BFFB1D1B781800FFF7D3FFC046BD4603B090BD10ED00E080B582B000AF78600A00BB1C1A80BB1C3D
:402A40001A887B681A60C046BD4602B080BDC04680B582B000AF78600A00BB1C1A80BB1C1A887B681A60C046BD4602B080BDC04680B584B000AF494B1B78DBB21B02484AA1
:402A80001278D2B21343FB60464B1B78DBB21B02454A1278D2B21343BB60BB68434A934207D1FB68072B04D1414BBB600423FB6009E0BA68D4231B019A4204D1FB68042B2A
:402AC00001D13B4BBB603B4BBA681A603A4BFA681A603A4B1B78DBB21B02394A1278D2B21343FB60FA6880239B019A4202D0FB68002B01D1334BFB60334BFA681A60334B7C
:402B00001B78DBB21B02324A1278D2B21343FB60FB68304A934206D0FB682F4A934202D0FB68052B01D12D4BFB602D4BFA681A602C4B1B681B097B602B4B1B68AA2B29D1C5
:402B40007B68012B26D9214B1B78DBB20E2B21D1264B1B78DBB29BB21B0299B2244B1B78DBB29AB2BB1C0A431A80224BBA1C12881A60214B1B78DBB29BB21B0299B21F4BAF
:402B80001B78DBB29AB23B000A431A801C4B3A0012881A60C046BD4604B080BD59F1FF0F58F1FF0F5FF1FF0F5EF1FF0F580B0000580D00006C002E4074002E405BF1FF0F90
:402BC0005AF1FF0F0220000078002E405DF1FF0F5CF1FF0F0F0F000005050000050F000080002E40EC0F00F0E00F00F06DF2FF0F6CF2FF0F84002E406FF2FF0F6EF2FF0F21
:402C000094002E4080B582B000AF0200BB1D1A80BB1D1B881800FEF76BFDC046BD4602B080BDC04680B582B000AF78607B681800FEF738FDC046BD4602B080BD80B500AF2B
:402C400000F0ECF8C046BD4680BDC04680B500AF00F0F0F8C046BD4680BDC04680B500AF00F0E8F8044B180000F0A2F8032000F0ADF8C046BD4680BD4D2E000080B500AF2A
:402C8000034B180000F080F8C046BD4680BDC0464D2E000080B500AF014B1800BD4680BD0202000080B582B000AF78602B231800BD4602B080BDC04680B582B000AF7860B9
:402CC0002B231800BD4602B080BDC04680B582B000AF78602B231800BD4602B080BDC04680B582B000AF78602B231800BD4602B080BDC04680B582B000AF78602B2318008A
:402D0000BD4602B080BDC04680B582B000AF78602B231800BD4602B080BDC04680B582B000AF78602B231800BD4602B080BDC04680B582B000AF78602B231800BD4602B0FA
:402D400080BDC04680B500AF2B231800BD4680BD80B582B000AF0200FB1D1A702B231800BD4602B080BDC04680B582B000AF786039602B231800BD4602B080BD80B500AFAB
:402D8000C046BD4680BDC04680B582B000AF786000F050F87B68180000F00AF8032000F015F800F03BF8C046BD4602B080BDC04680B582B000AF7860034B7A681A67C046CE
:402DC000BD4602B080BDC0460000002090B585B000AF0200FB1D1A700623FB600B23FC18FFF7EFFD030023700B4B0B4A1268C0218A431100FA1D1078FA68904002000A43AC
:402E00001A600B23FB181B781800FFF7DEFDC046BD4605B090BDC0460CE400E080B500AF034B802252011A60C046BD4680BDC04600E100E080B500AF034B802252011A602B
:402E4000C046BD4680BDC04680E100E080B500AF11F07CFFC046BD4680BDC046002243088B4274D303098B425FD3030A8B4244D3030B8B4228D3030C8B420DD3FF220902DE
:402E800012BA030C8B4202D31212090265D0030B8B4219D300E0090AC30B8B4201D3CB03C01A5241830B8B4201D38B03C01A5241430B8B4201D34B03C01A5241030B8B421E
:402EC00001D30B03C01A5241C30A8B4201D3CB02C01A5241830A8B4201D38B02C01A5241430A8B4201D34B02C01A5241030A8B4201D30B02C01A5241CDD2C3098B4201D3D7
:402F0000CB01C01A524183098B4201D38B01C01A524143098B4201D34B01C01A524103098B4201D30B01C01A5241C3088B4201D3CB00C01A524183088B4201D38B00C01A31
:402F4000524143088B4201D34B00C01A5241411A00D20146524110467047FFE701B5002000F0F0F802BDC0460029F7D076E7704703460B437FD4002243088B4274D3030932
:402F80008B425FD3030A8B4244D3030B8B4228D3030C8B420DD3FF22090212BA030C8B4202D31212090265D0030B8B4219D300E0090AC30B8B4201D3CB03C01A5241830B90
:402FC0008B4201D38B03C01A5241430B8B4201D34B03C01A5241030B8B4201D30B03C01A5241C30A8B4201D3CB02C01A5241830A8B4201D38B02C01A5241430A8B4201D3A3
:403000004B02C01A5241030A8B4201D30B02C01A5241CDD2C3098B4201D3CB01C01A524183098B4201D38B01C01A524143098B4201D34B01C01A524103098B4201D30B01E4
:40304000C01A5241C3088B4201D3CB00C01A524183088B4201D38B00C01A524143088B4201D34B00C01A5241411A00D201465241104670475DE0CA0F00D04942031000D30C
:403080004042534000229C4603098B422DD3030A8B4212D3FC22890112BA030A8B420CD3890192118B4208D3890192118B4204D389013AD0921100E08909C3098B4201D376
:4030C000CB01C01A524183098B4201D38B01C01A524143098B4201D34B01C01A524103098B4201D30B01C01A5241C3088B4201D3CB00C01A524183088B4201D38B00C01A70
:403100005241D9D243088B4201D34B00C01A5241411A00D20146634652415B10104601D34042002B00D54942704763465B1000D3404201B5002000F005F802BD0029F8D0C8
:4031400016E770477047C0469E2110B5C905041C00F046FB002803D1201C00F0A7FA10BD9E21201CC90500F01BF900F09FFA80231B069C466044F2E7F0B557464E464546CB
:403180004300E0B446028846760A1F0EC40F002F47D0FF2F25D0002380259A469946F600ED042E437F3F434642465D02D20F5B006D0A1B0E904640D0FF2B39D08022002075
:4031C000ED00D20415437F3BFB1842465746591C62408C4607430F2F5CD86F49BF00C9598F46002E45D108239A46063B9946DAE7424602282DD0032800D1C3E0012800D038
:40320000A2E0002500260240D4B27602ED05760A2E43E407264330001CBC90469946A246F0BD002E1AD104239A46033B9946BAE72A00511E8A41901CC6E70120002DC3D07C
:40324000280000F0D7FA431F76309D4043420020BAE70124FF2514400026D6E7300000F0C9FA431F9E400023763047429A46994699E70C239A46093B994694E7802600248F
:40328000F603FF25C1E735004846B2E7350022004846AEE72904090C0800370C3604360C2C0C7943704367437443060C64183619B14203D980214902884647440004000C61
:4032C000310409188D01681E8541890E2943350CED19AD010D43290104D5012369081D4063460D4319007F31002925DD680704D00F202840042800D00435280103D52749F4
:4033000080330D401900FE29A3DC0124AD016E0A1440CDB279E78020C003064207D0054205D128434602760A4446FF256DE706437602760AFF2568E70124611A1B2905DD02
:4033400014400025002660E76346CBE72E002023CE40591A8D406B1E9D412E43730704D00F233340042B00D00436730104D5012401251440002648E70124B601760A144058
:40338000002542E780260124F6032E437602760A1440FF2539E7C04660540100FFFFFFF7F8B54A024E0043024400240EC50F9B09360EC90F9209FF2E00D183E00120414017
:4033C000A01BA9425CD0002800DC95E0002E1CD1002A00D081E05A0704D00F221A40042A00D004335A013BD50134FF2C00D191E001209B015B0AE4B205405B02E4055B0A62
:40340000ED0723432B431800F8BDFF2CE3D08021C9040A431B2800DD90E016002021C640081A8240511E8A4132439B1A5A0115D59B019E09300000F0DDF9053886408442E2
:403440006CDC041B330020200134E340041BA640721E964100243343BDE70D005A07BCD1DF0801231D40FF2C33D1002F00D190E08022D20313003B435B025B0AFF24BCE7DE
:4034800000284FDD002E2ED0FF2CA4D08025ED042A431B2800DD97E016002025C640281A8240501E824132439B185A01D5D50134FF2C6DD001227B481A405B0803401343B7
:4034C0000D0088E7002A00D07AE777E7031EC5D100257B025B0AE4B28FE701380028A4D0FF2C97D177E7002A00D174E701380028DAD0FF2CCDD16EE7002821D1601CC0B280
:40350000012858DD80279E1AFF0437402FD0D61A0D008FE701231D4000236EE7624B241A334058E7002851D1601CC6B2012E33DDFF282DD09B185B0804004CE7012274E7E0
:40354000002C1AD0FF2E1FD08024E404404223431B2800DD96E01D002024C540201A8340581E83412B43D31A34000D005EE7002E00D05FE700250024ABE7002B44D0C04330
:403580000028F0D0FF2EE3D11300FF240D0022E70D00FF24002330E7002C5DD1002B7DD0002A00D117E79B185A0100D456E73E4A040013400FE7002C1ED1002B2FD1002A5D
:4035C00065D013000D0006E701226DE7002C1FD1002B59D0C04300280BD0FF2E4FD01B285EDC1D002024C540201A8340581E83412B439B18340058E7002B1CD1002A49D047
:4036000013000D00FF24E6E6130034000D00E2E6FF2E34D08024E40440422343DFE7002A00D1D8E68027981AFF04074000D14DE7D31A0D00CFE6FF24002A00D1CBE6802075
:40364000DB08C003034204D0D208024201D113000D00DB00FF24BEE6002B10D0FF24002A00D1B8E68020DB08C003034203D0D208024200D11300DB000D00FF24ABE6130003
:40368000FF24A8E601236EE713003400A3E6002700251EE780270025FF03E9E613009AE60123A6E7FFFFFF7DFFFFFFFB4302590A4300C20F1B0E00207E2B0EDD9D2B0DDC22
:4036C000802000040143952B0BDC9620C31AD9400B005842002A00D118007047034BD018FBE7963B99400B00F3E7C046FFFFFF7F70B5002830D0C317C5185D40C40F28005B
:4037000000F078F89E231B1A962B0DDC9622D21A95406A02520AD8B25202C005520AE40702432243100070BD992B19DC9922D21A9540124A2A40690704D00F210D40042D8A
:4037400000D00432510103D50C4B1A409F231B1A9201520AD8B2DFE7002400200022DBE705222E00121AB921D6402A00C91A8A40551EAA4135001543DBE7C046FFFFFFFB17
:403780008446081C6146FFE71FB500F0BDF8002801D40021C8421FBD10B500F049F84042013010BD10B500F0AFF8002801DB002010BD012010BDC04610B500F0A5F80028E0
:4037C00001DD002010BD012010BDC04610B500F057F8002801DC002010BD012010BDC04610B500F04DF8002801DA002010BD012010BDC0461C2101231B04984201D3000C08
:4038000010391B0A984201D3000A08391B09984201D30009043902A2105C40187047C04604030202010101010000000000000000430270B542004C005D0AC30F4802120E3A
:40384000460A240EC90FFF2A0FD0FF2C11D00120A24200D070BDB542FCD18B420DD0002AF8D12800431E9841F4E70120002DF1D1EBE70120002EEDD1E9E70020EAE7C04684
:403880004302F0B542005D0AC30F4802440A4800120E000EC90FFF2A1FD0FF2822D0002A09D16E426E4100280FD1002C0DD10020002D09D005E0002801D1002C01D08B4248
:4038C00013D0584201231843F0BD002EF7D048424141012049420843F6E7002DDDD002204042F1E7002CDAD0F9E78242E9DC04DBA542E6D80020A542E6D258424341012033
:403900005B421843E0E7C0464302F0B542004C005E0AC30F4802120E450A240EC90FFF2A17D0FF2C19D0002A0BD170427041002C17D0002807D048424141012049420843AB
:40394000F0BD002C13D08B4214D0584201231843F6E70220002EF3D1E3E70220002DEFD1E1E7002DE5D10020002EE9D0EDE7002DE9D1EAE7A242E8DC04DBAE42E5D8002065
:40398000AE42DDD25842434101205B421843D7E7014B18687047C0464C1100200E4B70B500251E000D4CE41AA410A54204D0AB00F35898470135F8E711F074FD084B002512
:4039C0001E00084CE41AA410A54204D0AB00F35898470135F8E770BDB0540100B0540100B0540100B854010030B50024A24208D0035D651C0C5DA34201D0181B02E02C00AF
:403A0000F4E7002030BD002310B59A4203D0CC5CC4540133F9E710BD03008218934202D019700133FAE77047020010B51378002B01D00132FAE7CC5CD4540133002CFAD170
:403A400010BD0023C25C0133002AFBD1581E7047134A1088810703D08107890F401A001D11791030484381B25088820703D08207920F801A001D800040180A494030098930
:403A800080B2CA0701D0503080B2890706D504495422091F09785143081880B270470000D00D0020CC11002010B501F005FF10BD10B501F007FF10BD10B500F055FA10BD31
:403AC00010B50749044609780220002907D1204601F048FF002802D120460AF091F910BD6C0F002070B504460120002C12D02368002B0FD0616800290CD0074D06222889AA
:403B0000208118462968FFF77EFF6968606809780170002070BD0000CC110020FFB585B0002768460E9D07734F481C460078002802D0082009B0F0BD10990F98019000955B
:403B4000029105A807C800F001F90028F2D16946264603AB84460873002C19D0002115E08A00B75A082F09D990198078002805D0083FB7521878401C187005E0002914D020
:403B80000027B75290198770491CC9B2A942E7D360460028CED10F98002809D0109901F03BFA002804D00120C4E701208446EFE701F088FE2D4800214160816005990160B5
:403BC00021888180022D07D3A1798171A17AC171A1890181218A418100211EE0481C19E082008B00A75AE65ABE46BE4211D26F463E80B4461E190296B678BE700196764604
:403C0000E6521719029EBB78B3706646A652019EBE70401CA842E3D3491CA942DED3134822460C3000906846037B0799069800F015F90028B8D168460B4C007B60700B486D
:403C40000C3001F06FFE0028AED1084907480C3107F076F90028A7D107F090F90028A3D10121217066E70000CA0D0020C0110020F8B5054633480E460078002802D00224BD
:403C80002046F8BD002E5BD000242F49002D16D02A89D0070DD02868002808D003881B3BE12B04D24088FB2801D81B2801D2012409E0900707D56868002804D1F7E7002001
:403CC000088108604860002CDAD11F482F8907811C481B21801D018041800421017119490020891C0870F80705D016480622801D2968FFF788FE1449B80703D56A681148D5
:403D0000127882700F480D46801D0860001F486001F04EFE0B48801D01F03CFE28890DF0E1F928890DF048FB03461033FFF790FE1F21C018890140180249308088809FE72D
:403D400001249DE7CA0D0020CC110020FFB58446384F1C460020BB883F78054602460646002F11D100290ED0029999420BD36146002908D0002C06D00A99002906D02E4B15
:403D80000B99994202D2012004B0F0BD002144E0AB001F19BF78002F3BD0E35A002B38D07B43591889B22B0000F04AF8050410161C253100A7782388BC46FF27233BEB374B
:403DC000BB4222D26346032B1FD322E0A388002B1FD0302B19D31CE02389002B19D0282B13D316E0A289002A13D01346134F233BBB420AD20DE0268A002A0AD033460F4FEE
:403E0000233BBB4201D2964203D901200EE0002001E000280AD16D1CEDB2099B9D42B7D31C2463435B1802998B42ACD89642AAD8AAE70000CA0D002079020000BAFF0000FD
:403E400030B47446641E2578641CAB4200D21D46635D5B00E31830BC18470000FFB583B0002469460C801F4606468C80002806D00598002803D004983043800701D001245D
:403E800066E0002FFBD03449049809888842F6D3FEF7F4FEFEF7DAFE00F012FC002855D100F07AFD002851D12C49084601F0E8F805042D0C4AD12A4804990660818000214C
:403EC000C18007810C98007AC00704D0684601F012FD040007D10C98007A800703D501A801F012FD0446BF1DFEB2002C20D13146059800F05DF804001AD10DF06BFA0400EF
:403F000016D16A461088928808368518144AF1B29088D288AEB29319984207D3401B801A80B201F09DFB050007D000E0FF25012400F05EFA002D04D008E0F8B200F01CF995
:403F4000F6E700F081FA07490120087000F0CAFB204607B0F0BD0000CE0D00209D400000D8110020D60D002010B503480078012801D101F017FA10BDD60D002070B5084BE0
:403F80000446DA889E8800205518B54206D81D68AA182260DA885118D98070BD032070BDD81100200148008970470000D8110020F0B587B007460D4600208900009006917C
:403FC0006846FFF7DBFF844600285DD1304800990160002117E02E4B88001A680629115406D22C4C0419667882185670628805E0C419203CA67A8218567022891B68C01849
:40400000491C4280C9B2A942E5D300242DE0601CC2B2059025E01E4FA30039689600581840887118039604904E88B04217D938466F46FE80B6464F786E4677710297049F47
:404040004F800168039F5E18767879184E700168764659184E800068029F18184770521CD2B2AA42D7D30598C4B2AC42CFD36046002809D168460699FFF780FF84460028D8
:4040800002D1054900980860604607B0F0BD0000D80D0020D8540100DC0D00207047000010B5002809D005494A68002A05D0011F08788000105801F081FA10BDD80D002058
:4040C00010B50446FFF76EFFC0B2801DA0420CD307484068002808D0A100405801F0E0F9002801D00470001D10BD002010BD0000D80D0020F8B516460D460446FFF752FF4E
:40410000C0B2801DA04203D20020C0430090F8BDB2B2E9B2684601F0E9F90099481C03D0024AA000526811500098F8BDD80D0020F8B50746FFF736FF801DC6B20A490020FB
:4041400005460C680DE06178002907D06188B94202D32078FFF7B4FF002804D1241D6D1CEDB2B542EFD3F8BDD80D002010B5002801D0FFF795FF10BD70B5064609480025EB
:4041800004680BE06178002905D062882078121D0023FFF7AFFF241D6D1CEDB2B542F1D370BD0000D80D0020FFB581B00A9F16000C4620D000F0F2F8054604281BD0002FB2
:4041C0000CD03846FFF7B4FF20492A0151184860002810D03A460499FFF715FC1B4928010E504618778101980570200406D47D20C000444304E0FF2005B0F0BD6404640C7D
:4042000000F0BAF80746042807D000F04FFAA0420BD800F04BFA201A03E0204600F0AAFA0020F06035720020E6E700F03FFA009000F0B6FA00980121001B009000F0ECF8AC
:4042400002493A0151180098C860E6E7E4110020F8B5060116483418217A042903D0E068002802D017E00020F8BD00F01FFA054600F096FA00F0A0F804280CD001010C48EC
:404280000F18F8680021451900F0C6F80020F860284600F06FFA6068054D002801D0FFF765FF042020720020A8516081E060DAE7E4110020FEB500266A4630460123254947
:4042C000050169180D7A042D02D0C96800291BD000211154401CC0B20428F0D300246846005D002830D01B4821010818418947680568029100210160416004224181027231
:40430000C160002E02D015E01354E3E700F054F804280ED001010F4808180190C6680021304600F079F801980021C160304600F021FA0126002D07D038460299A847002F02
:4043400002D03846FFF712FF641CE4B2042CC6D3FEBD0000E41100200EB5002005216A460090118150810348694600680DF097FE0EBD0000E00D0020074A002001018918AB
:404380000B7A042B02D0C968002903D0401CC0B20428F3D370470000E41100200549002002015218127A042A03D0401CC0B20428F6D37047E411002030B50A4B04200A4C13
:4043C00000210A011219157A042D06D0D268002A03D09A4201D808461346491CC9B20429EFD330BDFFFF0000E41100207047000030B50020074C05460423020111190B7243
:40440000A5504D60401C4D81C0B2CD600428F4D330BD0000E411002030B5094C00231A011219157A042D04D0D568002906D02D18D5605B1CDBB2042BF1D330BD2D1AF7E726
:40444000E4110020002070471CB5002469460C70142001902346054A05480DF025FE04480068401C00D1FF2420461CBDC5440000E00D00203EB5124A0146FF2000230124F0
:40448000126800290DD0012914D0042908D104206946009308814B8110460DF000FE80B23EBD6846009304814381694610460DF0F1FDF4E768460093048143816946EBE7CF
:4044C000E00D002070B545890468416800890300FFF7B6FC08280509091E22282628002005F0F0FB1EE0022908D0C8B22A4621460BF064FF2046FFF739FE13E002202A46AE
:4045000021460BF05BFF2946204600F00DF809E000200DF0C3FA05E02046FFF7CBFE01E0FEF72CFC002070BD014B0022DB681847E40D002070B5448905680089022803D0D7
:40454000032809D0FF2070BD2246094C0023A46829460120A04708E0FFF7AAFA241DA2B200232946022006F09EFB002070BD0000E40D00207047000002480021416001808C
:4045800041807047E40D002070B50C46002186B016460391012802D0022859D116E003A9012006F0D5FB01281BD1039D324621462846FFF728FA009528780190022069462B
:4045C00008814E816846FFF7B5FF41E0214D002B686809D0049004A9022006F0B9FB01281DD0022006B070BD002812D0298840182146FFF708FA28880024801980B22880C7
:404600006988091D884206D12C801348FFF792FF03E00320E6E788421AD96C6018E004986860E278A378110219430B4A698000231060E3565360032313815181A178817045
:40464000E178C1706178417021780170042028800020C7E7E40D0020241200203EB515460C46022803D004280CD000203EBD0091019002206946088107484A8100680DF060
:404680000EFD07E00BF09AFE044B0022DB6829462046984701203EBDE00D0020E40D0020014AD16090607047E40D0020034801688068081A0A214843000970473012002009
:4046C00010B5FEF7CBFA482204490548FFF79BF903490120C870002010BD0000F45401003416002010B5FEF7A9FA10BD70B5134C2368002B08D0207B1149C20705D0400851
:40470000400020738868A08070BD88680B4AA18880B29268814203D90A4D691A091802E0814202D2411A5118A160A080A0689842EAD30DF0D1FC00F013F870BD30120020E4
:40474000C0102E40FFFF000010B508461946FFF7A7FF10BD704710B5FFF780FF10BD000003480021016041608160C1607047000030120020024610B5FF20002A0CD0FFF7B3
:40478000EFFF064C0321207B0843207310010A21FEF7EAFB2060002010BD00003012002000B504480A21806848430209FFF7D8FF104600BD301200200248007B8007C00F30
:4047C000704700003012002010B54B490868002802DA4A4B01221A70022290430860484800694549C00B4031096A0246C907C90F0A4259D0012000F097FA3F480E216C30A3
:40480000FEF726F93E4820218430FEF721F93C4814219C30FEF71CF93948FF21C131A430FEF716F93648FF212F31B030FEF710F933483449BC30FEF70BF931483249AC3057
:40484000FEF706F930492E48491CB430FEF700F92B482E49B830FEF7FBF829482C49CC30FEF7F6F826482B490830FEF7F1F824482949A830FEF7ECF8214828498830FEF791
:40488000E7F81F4826498C30FEF7E2F81C481921C9029030FEF7DCF8FEF7EAF8FEF7FAF9C0B2022812D01FE000290BD0002101420AD0114801216030FEF7CAF80120FEF770
:4048C000B1F997E70121F2E7FF2010BD15491648FEF7BEF814481549001DFEF7B9F8124800210830FEF7B4F854200449C043891C0870002010BD000000F02E40F40D002024
:4049000000002E40320300002F3F00003102000010520000EC160000FA12000031D000003AE300009956000080012E40F80F000070B50646581C80B245086D00002408E0E3
:40494000304600F0C1F81055000A1119A41C4870A4B2AC42F4D3D80705D0D0182038D15CC47FD454C17770BD30B50A4C002100195B1E07E0541864782502545C2C43048024
:40498000891C89B29942F5DB994201D1515C018030BD000000102E4010B5FF2000F0C4F90F49FF2048700E481021801D41800121417001700A490020C91C4870FFF704FF34
:4049C00004000AD100F010F907210648FEF730F8044807211830FEF72BF8204610BD0000F40D0020CC112E4070B5002405465B1E0AE0284600F068F8010A161971702D1DBF
:404A00001055A41CADB2A4B29C42F2DB9C4203D1284600F059F8105570BD000070B500210A4D5B1E0AE0541864782602545C344346193480001D891C80B289B29942F2DB7D
:404A4000994202D1515C4019018070BD00102E40F0B50599091FCFB200217E1E0BE0541864782502545C2C43164D45192C80001D891C80B289B2B142F1DBFC0712D01C7860
:404A8000515C24020F4A0C4381180C809C785D78001D210280B2294384182180001D80B2D9780CE059781A7809021143054A84182180001DD9789B78090280B219438018C6
:404AC0000180F0BD00102E40014940180088704700102E4010B50B490020487000F084F8002000F047F9002000F034F907210648FDF79EFF044807211830FDF799FF002052
:404B000010BD0000F70D0020CC112E4010B50B46062812D006DC01280CD0032801D1FFF7D9FF10BD0A28FCD00B28FAD105480078107010BDFFF730FF10BD1146184600F0EF
:404B400035F910BDFA0D0020F8B5244DAC6A0127A007234E002816DA307806280ED1286A384328621F480069F903084381B21D481030FDF76DFF042000F0D6F81748022188
:404B80002830FDF755FFE00718D000F01DFF01280FD1002000F06AFF062000F0C5F81049FF20C91E48707078002802D1686B384368630A4801212830FDF73AFFE0050BD554
:404BC0003078042802D1052000F0AEF80348FF2101312830FDF72CFFF8BD000040F02E40F70D002000002E4010B503212348FDF72FFF0120FEF706F820483038406A204CEA
:404C000080076178800F890001431C480C38FDF71FFF6078002808D0401E022181401820FEF78CFAC000083800E0B82081B21548FDF70EFF1348032109021438FDF708FF17
:404C400010481149B830FDF703FF612189010F48FDF7FEFE0D480321001FFDF7F9FE0C490C48FDF7F5FE0B480B496038FDF7F0FE084801218838FDF7EBFE10BD70F02E4073
:404C8000FA0D0020D8102E4090890000041E2E40FF0F000058122E40209000000849087806280BD148780749002803D1486B400840004863C86A01221043C86270470000E2
:404CC000F70D002040F02E400148007870470000F70D002000B50300FFF7B2F8080D050D0B070507090D012000BD032000BD042000BD022000BDFF2000BD0000074A9168FF
:404D0000D26889B2064B92B2994204D105498A4201D1012100E000210170704780002E4033D000003FE3000010B50446FDF78EFF072C01D9FF2C01D102480470FDF77EFFA6
:404D400010BD0000F70D00200149487070470000F40D002010B5064A012805D01921C9021046FDF775FE10BD1D21C902F8E7000090002E4010B50A4A141D012808D0094943
:404D80001046FDF765FE08492046FDF761FE10BD04491046891CFDF75BFE0349491DF3E788002E4031D000003AE3000070B50C460546FDF76FFFC0B202280E49287804D0AF
:404DC000FF2810D04C280CD810E0FF2809D10A4AD0680004800F032801D0087807E09069000A553803E00878207070BD4F382070087070BDF60D002000002E40F0B501221C
:404E0000002834D0002932D00424420600D00524792342065B06D21800D0641C034600221EE00C2516466E43124D00277519AF72104F002ABB51696007D0661EB24209D1D0
:404E40000D4E86197606760E05E05E06760E8027BE1B00E080269B198919521C2E81D2B2A242DED303480549006B002288611046F0BD0000BC14002079020000000E00202E
:404E800018B50020694608700A48006900280ED0132149014018047E684604704F21C900054800F059F8A04201D0012018BD002018BD0000000E002040120020074900202E
:404EC0000C2242435218927A012A05D0401CC0B20628F5D30020704701207047BC140020F8B50E000446154609D0194F19497868A04202D94018A04201D38D4201D90120AE
:404F0000F8BD31462046FEF76FFD00281ED02A4631462046FEF777FDE8B200210C224A43D21913895568EE18A6420BD90126641B1B1B9672834209DA1469C01A044AC0B283
:404F400020329676491CC9B20629E7D30020F8BDBC14002079020000034610B50020024604E09C5C2018521CC0B292B28A42F8D310BD000070B500F05FF8084C064A21691E
:404F800007480D46FEF73FFD05492846FFF736FFFFF776FF207070BD79020000000E002040120020002070470020054A002902D0012902D002E0906000E0D06000207047FE
:404FC000000E002070B5084C154608460549E26889182A46FEF717FDE0684019E06028B270BD000040120020000E00203EB50A226946FFF7E7FF044606480A2200686946A2
:40500000FEF7F2FC002802D00020C0433EBD20463EBD0000040E0020002802D0044A914201D2FF20704703494A6108610020704779020000000E0020024800218160C160D1
:4050400070470000000E002070B5074C15460548A26880182A46FFF743FFA0684019A06028B270BD40120020000E002010B503490A220968FFF7E8FF10BD0000040E00204F
:4050800010B50F4A002313600E4A13600E4B18600E4801600E49012008600E490860000290600E490C4808600D4914300860FF381538506000F0BCF800F0CAF9002010BDCB
:4050C000340E00201C0E0020480E00204C0E0020380E0020280E0020041600202C0E0020400E0020014610B50020002910D0094B1A689C685118A14209D25868196080184F
:405100008A0704D08A07920F891A091D196010BD002010BD1C0E0020F8B50024164E671E321F3D463168136806E01422624310328A58521C1BD0641C9C42F6D36A1C14D021
:405140002C461422544322460C3288500C214843FFF7C8FF3168002808510AD031680020103408517068401C70602846F8BD2546E4E73846F8BD00002C0E0020F3B50026FB
:40518000F64381B000281BDB1E490968884217D80299002914D01B4F142204463F1D54432546396810354859401C09D0FDF74EFD38682F1F4159C359994203DBFDF73EFD5F
:4051C0003046FEBD214608310091465801590C20704308180C220299FEF715FC0948761C001D0068C159B14200D100260549009A091D865008684159491C4151FDF71EFD27
:405200000020FEBD280E0020002803DB07490968884202D90020C043704704491422091D096850431030085870470000280E0020F0B500200D4A451E0346171F50600FE000
:4052400014260146714314680E1DA3510C461668083433511668083435511468401C635039688842ECD30020F0BD00002C0E0020F3B50026F64381B0002841DB2349096859
:4052800088423DD8029900293AD0204F142204463F1D54432546396810354859401C2FD0FDF7D4FC3868415900292BD0211D009146580C21005971430F46C1190C22029852
:4052C000FEF7A1FB11480021001D0068761C00590C34C0190160416081600C48001D00680159B14200D100260849009A091D865008684159491E4151FDF7A0FC0020FEBDC5
:405300003046FEBDFDF79AFCFAE70000280E0020FEB504460D4600201E49089E0860471E009001900290002C11D0486885420ED2002A0CD0002E0AD0642E08D808460C3010
:4053400001681C2068430C18207A002801D03846FEBD0120226020721846FFF7DDFE6060401C13D06681A6810A4827610C3067610179A94200D205710021684601810A4650
:405380002846029B00F040F82846FEBD00202072DDE70000340E002038B50124009400F039F838BDFEB50027164EFF433D4600240EE01C20316860430818017A002906D0D6
:4053C0004068FFF721FF002801D0254603E0641C3079A042EDDA681C12D01C2130684D434419FDF733FC69466068FFF741FF0546FDF724FC002DD9D1216868468847D5E7E6
:40540000FEBD0000400E002038B50024009400F001F838BD1FB500220C49541E0A60002811DB496888420ED808491C220C31096850430818406801A9FFF7A0FE401C02D020
:40544000002004B010BD2046FBE70000340E0020F0B50021114A4D1E174611710C3F0B46BD6016E008461C2460431668041D355114680646235014680836A3551468361DB5
:40548000A353044616680A34335318301468491C255078688142E5D30020F0BD400E002038B500210091002811DB0F49097888420DDA0D4D04010C3529680859002807D068
:4054C000201D0818694600F06FF9002801D0002038BDFDF7BBFB28680F34015D491E0155FDF7ACFB009838BD500E0020F7B582B0002502986E1E06602E48D21C024017466A
:405500002D4A2C4610460C380178106805E02301C358002B0FD0641CE4B28C42F7D3711C28D03401211D40180191039900F02AF900281FD101E02646F1E71F480168204617
:405540000C300F521C480399026820460E30115419480399026820460F3011540398784300F0A0F8144900280968085102D00024009011E001251AE00F480168019808186D
:40558000009900F02CF9002801D0012502E00098C0190090641CE4B203988442ECD3002D05D10298066004480179491C0171284605B0F0BDFCFF00005C0E0020F8B50D4610
:4055C00000216A468C461180002839DB23490978884235DA214B04010C3319680A59002A2ED020460C300B5A801C0E5C184670438018954224D3854222D2002006E0074627
:405600005F43BF18AF4206D0401CC0B2B042F6D36046002814D0114E271DC8190C366A46294600F006F900280AD168460088012808D030682946C01900F0D1F8002803D04D
:405640000120F8BD0020F8BDFDF700FB30680F34015D491C0155FDF7F1FAF3E7500E0020F8B50F46002400F031F8002817D10C4900220B460C334A600EE021011D680E467C
:405680006A501D680C36AA53B61C1D680F31AA551D68641C6A54E4B2BC42EED31A71F8BD500E002000280BD0C01C074A81085068890053884118994203D893685160181840
:4056C0007047002070470000500E0020F8B5064600200F4D009029700C0121466846FEF74DFC00280CD129460C3100980860301B001F84B221466846FEF740FC002801D010
:40570000FF20F8BD6C800098A8600020F8BD0000500E0020F8B5002827DB19490978884223DA174C05010C342168485900281CD028460C30085A009028460E300E5C401C40
:405740000E5420682F1DC01900F064F800280CD12068002445590EE0094829460C300068C01900F03CF8002801D00120F8BD00982D18641CE4B2B442EED30020F8BD0000E2
:40578000500E002030B50D4604000BD0A800FFF789FF6060002805D000202570C0436080002030BD012030BD70B50D46040005D0002D03D00220205E002801DA012070BD7C
:4057C000FDF744FA0221615E60688900405828606088401E6080FDF731FA002070BD70B50D46040007D0002D05D002212078615E401E814201DB012070BDFDF727FA60887B
:40580000401C00B26080616880000D50FDF716FA002070BD10B5040009D0227800216068FEF7FAF80020C0436080002010BD012010BDF0B500231D46002802D00224045FEB
:405840000AE00120F0BD46689F00F6598E4201D1012503E05B1CDBB29C42F4DA15700020F0BD00000148007870470000640E00207CB505460024FEF71BF9A879694608702C
:4058800000A8062229460130FEF7BDF80021684604F0DEFC0C2806D0072806D01F2806D0122806D006E0022404E0042402E0272400E0012420467CBD014801214172704737
:4058C0003C17002010B500F05FF9FFF7FDF9FFF701FA10BD70B504460025FEF7E9F8002C06D0A079012803D8214602F07BFC00E00125284670BD01460120002902D05020B1
:40590000088000207047000001460120002905D003485422007850430880002070470000660E002010B502460D49FE204870032410460CF0D7FE002810D10CF07BFE0028B6
:405940000CD105F061FA002808D100F013FB002804D104F023FF002800D10024204610BD640E002070B50025044600280ED0A07901280BD8FEF79CF8A0790028204602D045
:4059800002F0D6FF03E002F0ABFF00E00125284670BD0000014610B50120002904D006220248FEF730F8002010BD0000700E002001460120002903D00878024908700020F5
:4059C00070470000660E00200148007A704700003C17002038B504460120002C20D0617801291DD800290BD0FF25E535FEF760F80C4828180088C0B22070072803D00EE066
:405A0000FF25CD35F2E70020694608706846FFF775F969460878012801D108202070002038BD000000102E40014A002192681047640E002008B500226B461A7026280CD006
:405A4000094A342852680BD0352805D1900703D50021352005F0B4FA08BD19462620F9E7D007F9D03420F5E7640E002001490872704700003C170020F8B504460120002C49
:405A800026D06178012902D92278092A20D8002905D0FF25E5352078092803D004E0FF25CD35F8E708202070FEF702F82078114F114E08280DD00020FFF75CF97078012805
:405AC000207810D00D4969180880FE2070700020F8BD0120FFF74EF90720B8810549203188800120F2E7B8810248217820308180EBE70000C0112E40640E002000102E400F
:405B000070B50E46050001D0002400E00C4C002C11D0E28A500609D5D107C90F022002F09BFFE08A40218843E08204E0D107C90F012002F091FF3146284602F079FC70BD07
:405B40009C160020F8B50546002004460D4E009013E022466946284600F0D6FF0098002801D00CF0A1FDA878214602F099FAA878214602F087FA641CE4B2308AA042E8D826
:405B8000F8BD00006817002038B51E4CFFF79CF8042813D0052811D0062812D003282AD007280AD100206946087002460120FEF7ADFFFFF789F80128FBD138BD00F077FB40
:405BC00038BD02F0C3FA00F072FB02F03FFB8007800F0228F4D10C4841880029F0D05B21095D0029ECD101210170A07D0140022002F032FF38BD02F0ADFA0120FFF794F83E
:405C000038BD00009C1600208A0E0020F8B50646002402F08FFF0546304602F0A5FF03460A480021068A0DE001228A401046174628401F40002803D0002F01D1224394B2AA
:405C4000491CC9B28E42EFD82046F8BD681700201CB50020694648706846FFF7BBFE01AA69460A20FEF752FF6946042008561CBD70B50D4601F028FB04000BD0207900283E
:405C800008D0FDF715FFE178A0782A4602F056FC002070BD022070BD0148007870470000741600204030C07E002800D00120704700B500F001F800BD902148430749084A6A
:405CC00040186030417F491CC9B24177D289914201D300214177C8B2704700007C1600206817002013B501F0EFFA04000BD001F08CFE002807D0214601AA0A310620FEF7A4
:405D000005FF00201CBD02201CBD000010B50C4601F0DAFA00280AD001F077FE002806D0224604490A20FEF7F1FE002010BD022010BD00005D160020F3B581B0074601468A
:405D40000026029802F0EEFE0446002F01D0002500E0154D002D21D0284601F0EBFA032C04D13946029802F039FF06463846029902F088F9032C06D0002C10D001213846A2
:405D800001F0DEFB03E03146384603F025F9284602F06CF80221284602F082F8FEBD3846029902F06FF9FEBD9C16002010B5044600F066FA002804D103F0D8FD002801D097
:405DC0000C2010BD2078611C02F0BAFCFF2801D01F2010BD02F000FDFF280AD02178621C02F0DEF8044821780068026B601C904710BD072010BD0000B00E002010B503F0B6
:405E0000B5FD002801D00C2010BD02F07BFC03480068C06A8047002010BD0000B00E002070B50D46044610210CF07EFB1021601806460CF079FB334610221946204603F0B6
:405E4000C3FD102130460CF06FFB02202870204604F0DAFB70BD0000F8B504464078217802028006870FE0781143A67809050002090D0643084601F027FA00210546F2B22E
:405E8000002812D0002C10D0022F0ED0032F0CD0002A0AD00279092A07D0002A05D0134A5A23527E1B5C9A4207D82889002104F0E0FA20460CF0F8FBFF21002914D10C48D4
:405EC000224600682946436930469847C0B2FF280AD128464030817EF2B2491C8176FF232146284600F0E3F8F8BD000034160020CC0E00200020704710B5044603F036FD2A
:405F0000002801D00C2010BD2078611C02F018FCFF2808D002F050FB044821780068426B601C904710BD1F2010BD0000B00E002010B500F06BF904F031FC002010BD10B528
:405F4000044600786178E2780843A17811430843217908436179084305D003F0F9FC002803D00C2010BD122010BD204602F0E0FC002010BD10B5FCF78DFE02F0FDFD0448D3
:405F800003F060FD02F022FB012000F003F810BD44160020F1B586B003A8009005A8019028489F22817A114081726846FDF79AFD002845D169460989C90705D02248069904
:405FC0000068C2686846904769460989890706D5002835D11D480068816A0698884700282ED11B4E0025757075737571F575357675767575B570F570B5713746F573012083
:40600000D03738731F20F880FF2130467972A0300176457600F0D0FA00242046069901F09FFC002803D1641C2406240EF5D0FD720749BD72B573C0310D704D704D600D72FB
:4060400007B0F0BD34160020CC0E0020B00E00207C16002070B505460E46084602F06AFD0446304602F080FD0121A9400A46224001400A4301D0012070BD002070BD10B5B2
:406080000446084602F070FD0121A140014201D0012010BD002010BD10B5FEF715FE032804D102F057F80120FEF73EFE10BDFEB51C4616460F46054601F0D8FEA878FFF7DC
:4060C000F7FD02460190334639460094284600F00DF8002808D1A8780199FFF711FDFF2C02D138460CF0E0FAFEBD0000FFB585B005460E980C46FF2810D02B49C000096840
:406100000A5840180179C0795278814201D9012601E09006860F6846038108E06078A1788006860FE0780002014368460181284601F076FC070007D021462846079A00F04F
:4061400077FC384609B0F0BD304600F025FD04AE0346039002AA29460096204600F0B1FB3C20405D002818D0284601F059FC012813D0684600890096C0B20190A878231D06
:40618000FF22079902F008F968460089039BC2B2A878079902F048FCD3E7684600890021C0B20091E9E70000C80E0020F8B5002600253046FFF72AFD07001DD09020114988
:4061C000704340186030447F12E0601CFCF7CCFECCB23846E040C007C00F07D02146304601F048FF21463046FFF7A6FD6D1CEDB20548018AA942E8D8761C3606360ED7D09E
:40620000F8BD00007C1600206817002010B502F0DDF90020FFF7BEFE0CF0DCFA002010BDF8B5002400F0B2F80123012800D10124104F00203E4620360425082203E00028D5
:4062400001D0002100E031460979002907D001290BD002290BD0114681402143CCB2401C0006000EEBD07C70F8BD1C43F7E72C43F5E700007C16002010B5FFF7D1FF10BDF0
:4062800010B5044604F0DCFB002802D1601C00F001F810BD1CB500240094062269460194FDF7A2FB002800D1122420461CBD10B5FCF787FB0446FEF707FD012809D0FEF76F
:4062C00003FD022805D0FCF799FB2046FCF77DFBEEE72046FCF779FB10BD10B50B4681791943817103D08078114602F06BFB10BD10B582798A43827102D1807802F076FB85
:4063000010BD000030B50C4C0220A28A0B4B9978002901D0022906D11D785B78EB18282B01D9032002E0032900D101205105490DC0020143A18230BDC0112E40800E002038
:4063400000B500F029F8002807D0012805D0032801D0042801D0002000BD012000BD014600B50020C90701D000F010F800BD014600B50020C90701D000F008F800BD0000CA
:406380000148006870470000780E002001480088000A704720102E400448008B410501D5042070474007800F7047000000102E4010B501F011FF044601F04EFF01462046CB
:4063C00001F032FF10BD00000148406870470000780E002038B50446000610D5FFF7DCFF01280CD1684601F0C5FE6846007800F023FB012001F0A2FD0220FFF73DFF600765
:4064000008D507480179012904D1002101712620FFF710FB0348006801692046884738BD840E0020B00E002070B505460C49007800240870FFF7AAFF012803D1FFF7B8FFE4
:40644000022803D3284602F0DFF907E0284600F0EBF8040002D1034801210170204670BD800E00203C17002070B50446FFF78EFF002801D00C2070BDA27B01211F48002A3F
:40648000827801D00A4301E05208520082706279012A14D0C17849084900C170184D2868016820468847207901280CD06188208803F00EF82080207904280FD015E0C27829
:4064C0000A43C270EAE72868C168E01D8847E01D02F01AFA0B48808C208006E02868C168E01D8847E01D02F00FFA074920798870204602F097F9002070BD00007C1600209A
:40650000B00E002034160020800E002008B50178FFF73CFF814201D10C2008BD002914D0072069460870FFF70BFF012807D10121684600F0D9F8012801D0092008BDFFF7AD
:40654000E1FE02F0A3F9012011E0FFF7F9FE012806D1684601F00EFE6846007800F0A0FA02F08AF9FFF712FF0028FBD10220FFF783FE002008BD000070B505460C49007829
:4065800000244870FFF702FF012803D1FFF710FF022803D3284602F0F5F907E0284600F05DF8040002D1034801214170204670BD800E00203C17002038B568460CF00AF8DC
:4065C000002801D01F2038BD01210098C90201804180002505714571857107214173857302F020F9009C202200212046FDF714FA25702A460021601CFDF70EFA204602F024
:4066000003F9204602F0BEF900980CF04DF8062200210448FDF700FA02480C388560002038BD0000840E0020F8B504460025684600950BF0CFFF002801D007250AE0064E2E
:40664000009830602278611C401CFDF7DCF93168207808702846F8BD780E0020F8B504460025684600950BF0B5FF002801D007250AE0064E009870602278611C401CFDF704
:40668000C2F97168207808702846F8BD780E00200346084800B5834209D8184600F014FE002804D00089984201D1012000BD002000BD0000FF0E0000074A9179491C8906D1
:4066C000890E917138220A4092014907090E114308430249084070477C160020FF0E0000C006C00E70470000F8B507460E4600240D4803E0002C01D0002500E005462979D7
:40670000002905D0641C2406240EF3D00020F8BD0021204601F024F92E712046FFF7CCFF28813C700120F8BD9C16002010B503F07FF90222002100F003F801F0F3FE10BD80
:4067400010B5094B40074907000F090F185A595A40185043C0086421FCF706FC002800D1012080B210BD00003C550100F7B53D20405C88B015460C46002802D028780428F5
:4067800002D200200BB0F0BD6946087200262046FFF788FA012800D00126204603A938300191009023460327A17E34333246206A03F062F902A8089900900B460191204607
:4067C0003A4603A9243003F0DFF802466846007A2870204601F0B0F81046D3E7FFB587B00C4605461078694608723D20005D1746002826D000262046FFF754FA012800D001
:406800000126204603A93830019100902346A17E34333246206A03F02FF902A80090291D019120462B1D03A924300A9A03F0ACF802006846007A388002D1204601F07CF80E
:4068400010460BB0F0BDF0B505463C20405C89B016460C4600280CD0307869460873002806D000272046FFF71DFA012803D003E01F2009B0F0BD012703200890204604A9A3
:406880003830019100902346E17E34333A46E06903F0F2F86846007B03A928180290009120462B46019504A92430089A03F0A0F802466846007B3070204601F047F81046A9
:4068C000D7E7FFB505463C20405C89B016460C46002810D0084601F0A3F801280BD0308869468883002809D000272046FFF7DAF9012805D005E000200DB0F0BD0220FBE7DC
:406900000127204603A93830019100902346E17E34333A46E06903F0AFF8291D2B1D07A8129A6D4607C5204603A924300C9A03F05FF802466846808B3080204601F006F83D
:406940001046D9E770B50D460446FFF7ABF901280AD0E87AA97A00020143A07801F0DEFC012808D0002070BD00222421204602F001FD242070BD28214C200155204600F017
:40698000B1FB282070BD0000002801D0002000E003484030C07F012800D00020704700009C1600200146002049070ED50021084B03E0002901D0002200E01A461279022A1D
:4069C00004D0491C0906090EF3D07047012070479C1600200146002049070ED50021084B03E0002901D0002200E01A461279022A04D0491C0906090EF3D07047012070475F
:406A00009C16002010B5044680346068002803D00BF05EFE0020606010BD4030417070474030817070474030017070470171704792001018C166704770B53C2501F096F9AB
:406A4000040004D020460021433001F01BFCFF222946204600F0E2FB002C02D0A07801F007F970BD10B5002801D0002000E00348002802D0008903F043FD10BD9C160020E7
:406A800010B5002801D0002000E00448002804D00179072901D100F047F810BD9C16002010B501F063F9002802D0807801F0E0F810BD00207047000070B50546008A0028F3
:406AC0001ED01049F122897A1140C90618D5294640314A8A098A521C4A4392B2D10800D10121540801E0621A94B2A042FBD9FEF7B9FE012804D1298AA878224601F0D4FC7F
:406B000070BD00003416002010B50023054C0B60248A944204D992001018C26E0A60C36610BD00006817002038B5044600200090A079002814D14020015D052901D00E29CF
:406B40000ED168460BF056FD002809D12046009902F0EEFB03481021C28A2046FFF7BDFB38BD00003416002010B50B4604460146184602F067F8002802D020460BF09EFDD7
:406B800010BD13B5044601AA11460620FDF7BEFF6846818861811CBD002800D10220704770470000F8B504462346401D543300909A1EA078911E01F0F9FA25464035A88AD9
:406BC000298A8000FCF7D0F9401E81B2688A884203D96982A07801F079FF698A8C20015120460021433001F04DFB27480088E88102F01EFFE989891C8AB26179FFF7A0FDBE
:406C000001F090FC02F014FF2A8A6179FFF798FD074601F07BFC688A002806D01B49088A032212021043088202E0002001F042FF1648803801886E8A002E0CD03046484332
:406C40001349FCF77BFA0004000C01D0401C80B21049488002E00F4800214180288A704381B2A07801F09CFEFF2228374932B9B21346204602F030FCE98AA07801F010FE9D
:406C8000A07801F01FFAF8BD80102E40E0112E40710200008A0E00207FB504468034616805460E46183108226846FCF7ACFE31462031082202A8FCF7A6FE102168460BF010
:406CC00033FC6068102108300BF02EFC60682B46083024331022694602F076FE7FBD10B504460821FFF704FB10212046FFF700FB207905281FD006281DD008281AD121897A
:406D0000002003F075FB072020712046FEF7CAFF014620464030012913D00E21017000210176204600F0B6FF2046FFF76BFE2046FFF7C2FE10BD20890122002103F03CFBC2
:406D4000E1E70521EAE70000FFB581B01F4604460821FFF7CDFA10212046FFF7C9FA2079082803D0092804D0042203E00422012501E009220025204600F03EFE2646002045
:406D80004036307022712046FFF73CFE0398002D02D0012808D00BE001280AD120890022029903F009FB04E02189029803F020FB012700203076012F04D0204600F06AFFC6
:406DC00005B0F0BD02983073204602F0FFFA054605480121C28A2046FFF77FFA002DEFD109202071ECE700003416002070B50C460546FEF757FF012809D108212846FFF747
:406E000077FA0023012221462846FFF79DFF70BD10B5044600F0F0FD2046FFF7F3FD00214034217010BD70B505461A24FEF73AFF012809D108212846FFF75AFA00230122D6
:406E400021462846FFF780FF70BD0000F8B50446002000900E4668460BF0CCFB002801D00D20F8BD8420005908212030009D00F026FA20460421383000F021FA002E02D133
:406E8000204600F0F5FD2946204602F0E0F90E480821C28A2046FFF720FA204600F06BFF25464035002808D0204600F023F8002801D0092028700020F8BD082028702046E3
:406EC00000F0D4FFF7E7000034160020014610B540310A460978082906D0092907D00A2901D100F091F810BD0B20107010BD00F001F810BD70B504460079254640350528BB
:406F000005D0062803D008280FD00C2070BD03220621204602F02EFA0D480821C28A2046FFF7DBF91120287010E006202873204602F04CFA0646AA8A0A204243012120467E
:406F4000FFF7CBF9002E01D109202071002070BD3416002038B504460020009068460BF049FB002801D00D2038BD2046009D00F0BDF908202071204600F07AFD29462046F3
:406F800002F098F900213D2001550F2040210855204600F06BFF002038BD00B5024600F02BFD10214032117000BD10B50446FEF779FE012809D04020005D112805D1002356
:406FC0001A4606212046FFF7BFFE10BD10B5FFF786FE10BD38B504460021684600910BF009FB00280CD12046009902F0E4F905480821C28A2046FFF770F90D2040342070F7
:4070000038BD00003416002038B504460021684600910BF0EFFA002801D00D2038BD2046009902F0BDF905480821C28A2046FFF754F90C2040342070002038BD341600209A
:4070400000787047F8B5002569460D70002801D0002400E01F4C002C18D0204600F0D5FC002813D0207903280BD005280CD026464036B18AA07801F09DFCB078012806D0A7
:407080001DE0042020711DE006202071F8BD0021204601F0F4FD274680373868002802D00BF016FB3D600020B0702079072802D12046FFF701FD0221204600F0F1FE2079AF
:4070C0000428E3D1207A694608703420FEF7B2FCF8BD00009C16002010B54C22115400F04CF810BD10B50446FF21FFF701F909202071A07801F084FC10BD000038B5FF219C
:407100006A461180002801D0002400E0084C002C0DD011460620FDF7F9FC684601882046FFF72FFD03480068C1692046884738BD9C160020CC0E002010B50446807900288C
:4071400009D022214C200155FF212046FFF7D0F8204600F012F810BD10B5037902464032002B03D01173092B02D003E0002100E02221117300F001F810BDFEB50446008956
:40718000002700902781207926464036002817D0012815D002280AD112E002AA01A9204601F03EFD002807D101980BF087FA204601F05EFD0028F0D02046FEF7C3FCB77603
:4071C000254680352868002802D00BF081FA2F606868002802D00BF07BFA6F60317B002919D0009800F064F8A078002100F086FF2046FFF79BFAA07801F07AF8A07800F013
:4072000037FDFF212046FFF773F80B20FFF734F800F068FCFEBD1F213173E2E7F8B517460E46054602F000FC04003CD020460C3001F018F82046062200211830FCF7ECFB0F
